:020000040800F2
:10000000300900209D020008DF4D000891430008E0
:10001000DD4D00087D170008C161000800000000E8
:10002000000000000000000000000000F552000881
:100030007F17000800000000E14D0008F75200089B
:10004000B7020008B7020008B7020008B7020008AC
:10005000B7020008B7020008B7020008B70200089C
:10006000B7020008B7020008B7020008B70200088C
:10007000B7020008B7020008B7020008B70200087C
:10008000B702000800000000B7020008B70200082D
:10009000B7020008B7020008B7020008B70200085C
:1000A00015540008B7020008B7020008B70200089C
:1000B000B7020008C1540008B7020008B7020008E0
:1000C000B7020008B7020008B7020008B70200082C
:1000D000B702000869610008B7020008B70200080B
:1000E000B7020008B7020008B7020008B70200080C
:1000F000B7020008B7020008B702000800000000BD
:1001000000000000B702000800000000B70200086D
:10011000B7020008000000009D550008B702000863
:10012000B7020008B7020008B7020008B7020008CB
:10013000B70200080000000000000000B70200083D
:10014000B7020008B702000800000000000000002D
:10015000000000000000000000000000000000009F
:10016000000000000000000000000000B7020008CE
:10017000B7020008000000000000000000000000BE
:1001800000000000B70200080000000000000000AE
:10019000000000000000000000000000000000005F
:1001A0000000000000000000B7020008B7020008CD
:1001B000B7020008B7020008B702000800000000FC
:1001C00000000000B702000800000000000000006E
:1001D000B7020008B702000800F002F800F04FF87C
:1001E0000AA090E8000C82448344AAF10107DA4592
:1001F00001D100F044F8AFF2090EBAE80F0013F095
:10020000010F18BFFB1A43F0010318479477000051
:10021000B4770000103A24BF78C878C1FAD85207E2
:1002200024BF30C830C144BF04680C607047000070
:100230000023002400250026103A28BF78C1FBD8EF
:10024000520728BF30C148BF0B607047662906F0CF
:100250003F82642900F0F680782900F02F81002089
:1002600070471FB506F02FFA00F0AAFC040000202A
:10027000002106F08FF8E0601FBD10B510BD00F042
:100280009FFD1146FFF7EDFF06F016F800F0BDFDEB
:1002900003B4FFF7F2FF03BC00F000FE09488047FB
:1002A00009480047FEE7FEE7FEE7FEE7FEE7FEE758
:1002B000FEE7FEE7FEE7FEE704480549054A064B70
:1002C0007047000061530008D90100083003002086
:1002D00030090020300500203005002053EA020CD0
:1002E00000F069802DE9F04B4FF00006002B1FBF96
:1002F000B3FA83F503FA05F424FA05F65E4012BF5B
:100300001643B2FA82F502FA05F4C5F120051EBFC4
:1003100022FA05FC44EA0C04203556EA044C4FEA64
:10032000144418BF641C4FF000084FF000099042BD
:1003300071EB030C39D3002919BFB1FA81F701FA27
:1003400007F6B0FA80F700FA07F6C7F120071EBFDC
:1003500020FA07FC46EA0C062037B6FBF4FCA7EBB4
:100360000507103F07F01F0BCBF120060CFA0BFB23
:100370002CFA06F644BFB3460026202FA4BF5E46E3
:100380004FF0000B5BEA060C08BF4FF0010B19EBB6
:100390000B09ABFB027C48EB0608C01B06FB02CC3A
:1003A0000BFB03CC71EB0C01C1E70B460246414647
:1003B0004846BDE8F08B13B54FF000004FF0000148
:1003C000AFF30080BDE81C40704700000FB41CB5BF
:1003D000074B06AA7B4469460090059800F0D7FBBE
:1003E0000020694600F0E6FB1CBC5DF814FB000031
:1003F000DD07000070B5044685690068C10601D5B7
:10040000302600E02026C00707D070BDD4E90121C6
:1004100030469047206A401C20626D1EF6D570BDA4
:1004200070B5044685690078C00707D170BDD4E96E
:10043000012120209047206A401C20626D1EF6D5C5
:1004400070BD00002DE9F0410646002410687529B2
:10045000314616A510D0AFF30080002802DA4042E2
:1004600013A507E031688A0701D512A502E0490704
:1004700004D511A5012401E0AFF3008000210A2278
:1004800006F1240709E0B0FBF2FCB0FBF2F302FB3B
:100490001C00303078541846491C0028F3D12346FC
:1004A0002A463046BDE8F04100F004B900000000E3
:1004B0002D0000002B0000002000000070B5044655
:1004C0000D4621461068AFF300802188090502D54A
:1004D0000F4A7A4402E00E4A7A440E32002104F1B7
:1004E000240305E000F00F060009965D5E54491CE8
:1004F0000028F7D120780023000704D5702D02D002
:1005000009B1022311322046BDE8704000F0D2B894
:100510000E7400002DE9F0474FF0000A89460446AA
:10052000C0F820A02046E1688847002876D025281A
:1005300006D0D4E901219047206A401C2062F1E7EF
:10054000E168204600258847C4F81CA0064600271D
:10055000C4F818A02A2E09D0304605F05AFE38B348
:1005600004EB8708303EC8F8186019E059F8041BFE
:10057000204604EB87029161E1688847012F064617
:1005800018D1E069002820DA25F020051DE0D8F810
:10059000180000EB800006EB40003038C8F8180067
:1005A0002046E1688847064605F033FE0028EED174
:1005B000012F0AD02E2E08D12046E16888477F1CE3
:1005C0000646022F45F02005C4DBA069002803DAA7
:1005D000404245F00105A061E80701D025F0100573
:1005E000B6B1A6F14100192802D8203645F40065BD
:1005F0004A463146204625604D46FFF727FE58B152
:10060000012806D0ED1D25F0070000F1080989E753
:1006100004E005F1040985E730468AE7206ABDE871
:10062000F08710B5431C02E010F8011B71B181077F
:10063000FAD14FF0013202C88C1A8C4314EAC2116D
:10064000F9D0C01A0A0603D0C01E10BDC01A10BDD2
:100650000A0401D0801E10BD0902FCD0401E10BD4E
:100660004FF0000200B5134694469646203922BF4B
:10067000A0E80C50A0E80C50B1F12001BFF4F7AF96
:10068000090728BFA0E80C5048BF0CC05DF804EB78
:10069000890028BF40F8042B08BF704748BF20F8E6
:1006A000022B11F0804F18BF00F8012B70477047E4
:1006B000704770472DE9F0470D469946924604462B
:1006C00000F124080168880604D5E06921F01001D2
:1006D000216000E00120A84201DD471B00E0002767
:1006E000A1697A1902EB0900081AA0612078C006F6
:1006F00002D42046FFF77EFE002608E0D4E901215F
:100700001AF806009047206A401C761C20624E456D
:10071000F4DB2078C0060AD52046FFF76BFE06E022
:10072000D4E9012130209047206A401C2062381E05
:10073000A7F10107F4DC07E0D4E9012118F805006E
:100740009047206A401C2062281EA5F10105F3DCB9
:100750002046FFF765FE2078000602D50220BDE89E
:10076000F0870120FBE770472DE9FF4F0C461E463E
:100770004FF0FF378BB0D2E90001DDF860800A90BE
:100780008A46C1F30A5505B93D46002108464FF097
:100790000000BAF1000F00F4400005DA00EB800021
:1007A0004FF4400101EA50004FEA9059B9F1010FAE
:1007B00000DDB9460A9850EA4A000ED044F61050BF
:1007C000A5F2FF3545432F14B8F1000F1ED0754236
:1007D000291E1EDDC9F100021CE0B8F1010F4FF027
:1007E000000001D0302103E0F24305E02154401C19
:1007F000B042FBDB30460022002121540B99C1F8A6
:100800000880C1E900200FB0BDE8F08FBD1B6D1C52
:10081000DEE74A4600DA694206A800F05BFA06AB5A
:1008200093E8070003AB83E8070050460A9900F0FD
:100830003CFB8DE80700A0F500501F38009003989E
:10084000002D0ADD42F21F014A460844002303A995
:100850000390684600F0A5FD09E0A0F500504A4667
:100860001F38002303A90390684600F0AFFD8DE810
:1008700007000004000C03D04FF0FF30410800E0F7
:100880001046B8F1000F03D00022009215461EE07A
:10089000751E05D400F098F9303262556D1EF9D5F9
:1008A000B3460122084302D000227F1C04E02078D6
:1008B000302801D100227F1E002A099784D01DE034
:1008C000112D07DA00F080F9303262556D1C50EAC4
:1008D0000102F5D1084302D00098C8B10EE0002112
:1008E000681E05E0235C625C63542254401E491C70
:1008F0008142F7DBAB46A81B401E0990002004F89C
:100900000B000B98099AC0F80880C0E9002B7AE721
:1009100011264FF0000857E72DE9F04F88460446AE
:10092000D21D22F0070191B0D1E90001CDE90A0101
:1009300005F047FC02460B98C00F01D02D2007E0C0
:100940002068810701D52B2002E0202101EAC000A8
:10095000032A099001D0072A05DB034641462046B9
:1009600000F078F90BE12078800601D5E06900E01D
:100970000620B8F1650F814606D0B8F1660F18D091
:10098000B8F1670F70D131E00020B9F1110F00907C
:1009900001DB112301E009F101030AAA01A90CA856
:1009A000FFF7E2FEDDE90C70002609F10105834640
:1009B00047E001204B4600904FF000470AAA01A9EA
:1009C0000CA8FFF7D1FEDDE90DB00C995D460026BD
:1009D00010B909F101000D18B9EB050003D4C0F1FD
:1009E000FF3609F10105A5EB09002BE0B9F1010F74
:1009F00001DA4FF001090020B9F1110F00904846CB
:100A000001DD112300E003460AAA01A90CA8FFF7A3
:100A1000ABFEDDE90C704D460026834620780007CA
:100A20000AD4AB4500DA5D4601A8012D04DD411969
:100A300011F8011C302907D04F4502DA17F1040FD5
:100A400004DA012082460FE06D1EEEE7002F02DC83
:100A5000ED1B3E4403E0781CA84200DD7D1CB81B62
:100A600000F1010A4FF000472078000703D4AA459F
:100A700001DB4FF0FF3A0021B7F1004F0DF14308C1
:100A80008DF8431024D002202B23002F01DA7F425F
:100A90002D230A21021EA0F1010000DC5FB197FBAB
:100AA000F1FC97FBF1F201FB1C7C17460CF1300CBA
:100AB00008F801CDEEE7A8F10100037021880905CF
:100AC00001D5452100E06521A0F1010800F8011CD5
:100AD00009980FA9A1EB0807FF1D00B101204119DA
:100AE00001EBEA70A1693844081A401EA061207821
:100AF000C00602D42046FFF77DFC099828B1D4E94E
:100B000001219047206A401C20622078C00622D52F
:100B10002046FFF76FFC1EE0002E04DBB34502DD2C
:100B200001A8805D00E03020D4E901219047206ACF
:100B3000401C2062761CAAF101005FEA000A0AD17B
:100B400000F03EF8C0680168405CD4E9012190479C
:100B5000206A401C2062281EA5F10105DCDC07E0AC
:100B6000D4E9012118F8010B9047206A401C20624B
:100B7000381EA7F10107F3DC2046FFF751FC0320E4
:100B800011B041E601694A1C02610878704700B55E
:100B90008FB0CDE901310021059105497944CDE9B6
:100BA000031011466846FFF7B5FC0FB000BD00000A
:100BB000E5FFFFFF0A6802F8010B0A6070470000BA
:100BC00000487047EC02002030B5B0F10A024FEA4D
:100BD000900E71F100034EEA817EB0EB0E0061EBE6
:100BE00091014FEA101E4EEA017E10EB0E0041EB20
:100BF00011114FEA102E4EEA016E10EB0E0041EB80
:100C000011214FEA104E4EEA014E10EB0E0041EB5F
:100C10001141401841F100014FEAD00040EA417013
:100C20004FEAD10110EB80054FEA810444EA907449
:100C300044EB01046D1944EB0404521BA3414FF033
:100C4000000348BF0A3200D530BD401C41F100010D
:100C500030BD00002DE9F0411F460446032601681F
:100C6000072A01F4006004DB08B116A505E016A50B
:100C700003E008B115A500E015A521F010002060E3
:100C8000A069C01EA0610FB1401EA0612046FFF701
:100C9000B1FB4FB1D4E9012138469047206A401C8E
:100CA0002062C01C206206E0206AFAE7D4E9012134
:100CB00015F8010B9047761EF8D22046FFF7B0FBDF
:100CC000BDE8F0814E414E006E616E00494E460017
:100CD000696E66002DE9F047814616468AB03548B0
:100CE00078440DC88DE80D0032487844801C03AC70
:100CF0000DC884E80D0041F69B300844372190FB75
:100D0000F1F290FBF1F5A5F1800501FB12041B3C0B
:100D100002D56442012000E00020DFF898A0804660
:100D20000027FA44AAF1BE0A0EE0E0070AD03246D4
:100D3000684607EB470101230AEB810100F046FBFF
:100D40008DE8070064107F1C002CEED1194F7F4402
:100D5000AE3F19E0E80715D007EB04100DF1180AB3
:100D600090E80E008AE80E00C068F04201D19819A0
:100D700008903246012306A903A800F027FB03AB25
:100D800083E807006D10641C002DE3D14FF00103D0
:100D900032466946B8F1000F03A802D000F001FB0B
:100DA00001E000F013FBC9E90001C9F808200AB00E
:100DB000BDE8F087A46C000000487047CC0200201A
:100DC0007546FFF7F9FFAE4605006946534620F029
:100DD0000700854618B020B5FFF76EFABDE8204041
:100DE0004FF000064FF000074FF000084FF0000BE7
:100DF00021F00701AC46ACE8C009ACE8C009ACE89A
:100E0000C009ACE8C0098D46704710B50446AFF381
:100E100000802046BDE81040FFF73ABA4FF0013C91
:100E200050F8042B51F8043B9A4221D1A2EB0C0359
:100E3000934313EACC1317D150F8042B51F8043B19
:100E40009A4215D1A2EB0C03934313EACC130BD1B6
:100E500050F8042B51F8043B9A4209D1A2EB0C0341
:100E6000934313EACC13DBD04FF00000704700BF70
:100E7000D01A01BAB1FA81F101F0180122FA01F099
:100E8000CB40C1F12001DBB2C0B2C01A2CFA01F391
:100E9000D11A914311EAC311E6D1704701491820D4
:100EA000ABBEFEE72600020070475FEA400C08BFB9
:100EB00091F0000F4FEA8C234FEAC12243EA5151CF
:100EC0004FEA1C5018BF00F5F0404FEA300018BF41
:100ED00041F000415FEA6C5C00F02980BCF1FF3F0B
:100EE00008BF40F080407047130C06BF12044FF05B
:100EF000100C4FF0000C130E04BF12020CF1080C82
:100F0000130F04BF12010CF1040C930F04BF9200E5
:100F10000CF1020CD30F04BF52000CF1010C11466E
:100F20004FF00002A0F11F00A0EB0C00704711F081
:100F3000004F08BF704731F000413FF4D5AF0B0CB4
:100F400006BF09044FF0100C4FF0000C0B0E04BF4D
:100F500009020CF1080C0B0F04BF09010CF1040C81
:100F60008B0F04BF89000CF1020CCB0F04BF4900AA
:100F70000CF1010CCCF12003A0EB0C0022FA03F3DE
:100F800002FA0CF241EA030100F10100704720F07F
:100F90007F4C80EA030023F07F47ACEB070303F5A7
:100FA0007C5300F0004003F1FF032DE980494FEA34
:100FB000154B09B44FEA144325EA0B4E24EA0348C3
:100FC0000FF2042606EB132749083E785FEA320247
:100FD00003FB0667C7F5000707FB06F64FEA543721
:100FE0004FEAD64606F1020607FB066CCCF1005C20
:100FF0004FEA1C472CEA074C07FB06F40CFB06F5EE
:1010000004EB15464FEA961634BF00204FF000401F
:101010004FEAD13706FB07FC4FEA1C4C0CFB0BF7E1
:10102000D21B03FB0CF761EB07010CFB0EF7B0EBD7
:10103000074072EB17420CFB08F734BFA2EB0742E4
:10104000B2EB074261EB17414FEA0C444FEA9107BC
:1010500006FB07FC4FEA1C4C0CFB0BF7B0EBC74040
:1010600072EB573203FB0CF734BFA2EBC742B2EB73
:10107000C74261EB57310CFB0EF7B0EBC70072EBC8
:1010800057720CFB08F734BFA2EBC702B2EBC702E2
:1010900061EB5771039F4FEA816141EA921104EBC2
:1010A000CC044FEAD1374FEA826206FB07FC42EAE2
:1010B00090124FEA80604FEA1C4C0CFB0BF7D21BDE
:1010C00003FB0CF761EB07010CFB0EF7B0EB0740DD
:1010D00072EB17420CFB08F734BFA2EB0742B2EBEE
:1010E000074261EB17414FEA8C554FEA910704EB39
:1010F0009C2406FB07FC4FEA1C4C0CFB0BF7B0EBE7
:10110000C74072EB573203FB0CF734BFA2EBC74268
:10111000B2EBC74261EB57310CFB0EF7B0EBC700E7
:1011200072EB57720CFB08F734BFA2EBC702B2EBAD
:10113000C70261EB577115EB4C254FEA816141EA1B
:1011400092114FEA82624FEAD13742EA901206FBCF
:1011500007FC44F100044FEA80604FEA1C4C0CFB92
:101160000BF7D21B03FB0CF761EB07010CFB0EF72F
:10117000B0EB074072EB17420CFB08F734BFA2EB51
:101180000742B2EB074261EB174115EB1C154FEA22
:10119000813141EA92414FEA823242EA90424FEA7B
:1011A00080304FEA0C7644F1000448EA03434EEAEB
:1011B0000B484FF0000EB2EB080C71EB030724BF95
:1011C000624639464EEB0E0E4FF0000B00185241AE
:1011D00049414BEB0B0BB2EB080C71EB03077BF1B6
:1011E000000B24BF624639464EEB0E0E4FF0000B4B
:1011F0000018524149414BEB0B0BB2EB080C71EB61
:1012000003077BF1000B24BF624639464EEB0E0EFE
:1012100051EA020718BF46F0010616EB0E7655F1AB
:10122000000254F1000103D5BDE88901BDE8008842
:10123000BDE88901BDE80048B619524141EB010102
:10124000A3F10103704780807F7E7D7C7B7A797873
:10125000777676757473727171706F6E6E6D6C6C7B
:101260006B6A6A696868676666656464636362611D
:101270006160605F5F5E5E5D5D5C5C5B5B5A5A599E
:10128000595858575756565555555454535352520A
:101290005251515050504F4F4F4E4E4D4D4D4C4C62
:1012A0004C4B4B4B4A4A4A494949484848474747AB
:1012B00047464646454545444444444343434342E8
:1012C000424242414141002B9C4630D477002BD012
:1012D0001CB54FEA370703B44FF010004FF0100170
:1012E000BAF1000F06D0BCF1000FDCBF40F00800DF
:1012F00040F008014FF000000FBCBDE810400BF1BA
:10130000010BBBF1010F08BF5FEA170722BF12F103
:10131000010211F101014FF0004143F1000300F01F
:10132000004043EA00007047F9D35708D0E746EA87
:10133000064613F1400F4FEA16461FDD13F1200F4A
:10134000DFBF16430A46002120335B42BED0C3F103
:10135000200746EA064602FA07F74FEA164646EA2B
:101360000706C3F1200722FA03F201FA07F721FA70
:1013700003F14FF0000342EA0702A7E746EA02063C
:1013800046EA06464FEA164646EA0106BCBF46EA6A
:101390000646360C4FF000034FF000024FF00001FC
:1013A00094E72DE9804C9A46934670B491E8380052
:1013B00007C831EA400C48BF34EA430C03D5FFF7B5
:1013C000E6FDFFF780FFF0BCBDE8008C2DE9804C06
:1013D0009A46934670B491E8380007C810F0804FE1
:1013E00008BF13F0804F03D100F005F8FFF76BFF43
:1013F000F0BCBDE8008C20F07F4780EA030023F0BA
:101400007F4C07EB0C03A3F57C5300F00040A3F1E5
:10141000FE0392F0000F00F0B38095F0000F00F093
:1014200077802DE901494FEA11404FEA144621EA3D
:10143000004800FB06FC24EA064708FB06F607FB0B
:1014400008F800FB07F718EB06484CEB164C4FEA80
:10145000124B18EB07484FEA15464CEB174022EAAF
:101460000B4E0BFB06FC25EA06470EFB06F607FBB8
:101470000EFE0BFB07F71EEB064E4CEB164C4FF027
:1014800000061EEB074E4CEB174B18EB0B0840F118
:10149000000018EB0E0B58EB000840F100008F1A0B
:1014A0004FF000013CBFC943661B14BFB5EB040CF1
:1014B00000213CBFC943F61B4FEA17444EEA8E0E8B
:1014C00027EA04454FEA1C4704FB07622CEA074C55
:1014D00005FB07F70CFB05F604FB0CFC16EB0746B7
:1014E00042EB174216EB0C4642EB1C421BEB060686
:1014F00058EB0202414146EA9E0601D5BDE801894A
:10150000B619524141EB0101A3F10103BDE8018984
:101510004FEA14454FEA114724EA054621EA074CF1
:1015200005FB07F406FB07F70CFB06F105FB0CFCBB
:1015300011EB074144EB17444FEA124711EB0C4102
:1015400044EB1C4422EA074C05FB07F206FB07F7B5
:101550000CFB06F605FB0CFC16EB074642EB1742AC
:1015600016EB0C4642EB1C456A1854F1000148BFCB
:101570007047B619524141EB0101A3F101037047D5
:1015800095F0000F37D04FEA11424FEA144721EA95
:10159000024624EA074C02FB07F106FB07F70CFBA7
:1015A00006F402FB0CFC14EB074441EB17414FEA35
:1015B000154714EB0C4441EB1C4125EA074C02FB98
:1015C00007F506FB07F70CFB06F602FB0CFC16EB17
:1015D000074645EB174516EB0C4645EB1C42121926
:1015E00051F1000148BF7047B619524141EB01016A
:1015F000A3F1010370474FEA14454FEA114724EA6B
:10160000054621EA074C05FB07F106FB07F70CFB33
:1016100006F24FF0000605FB0CFC12EB074241EB13
:10162000174112EB0C4251EB1C4148BF7047921816
:1016300041EB0101A3F101037047000010B504481C
:1016400000F00EFC024800F0D1FA80B210BD00009C
:101650007400002030B589B020216846FFF700F8FB
:1016600019481849002401608902C0E90114C460C6
:1016700004250461C0E9054504774477012101622E
:1016800080F82440C462046380F83840C46380F862
:10169000404000F0AFFA08B100F094F80B48009019
:1016A00006200190072002907F200594CDE90305D4
:1016B0006946054800F088F8002801D000F082F85B
:1016C00009B030BD00010050740000200080F03EE1
:1016D000F8B50446002000902068816811F0010FE1
:1016E00041D18168214A11422ED18168D5432940D8
:1016F000491C81601E48806800F0E07000020DD532
:101700001C481D490068B0FBF1F0401C00EB400094
:10171000800000E0401E00900028FBD100F0CCFDCE
:1017200006461BE0816811F0010F03D18168294052
:10173000491C816000F0C0FD801B02280ED9206882
:101740000068C043C00709D0E06D40F01000E065BC
:10175000206E40F0010020660120F8BD206801687D
:10176000C943C907DED10020F8BD00003F0000805A
:10177000000300503C000020400D0300FEE77047CE
:10178000002240F6B83306E00021491C89B2994294
:10179000FBD3521C92B28242F6D3704710B504229A
:1017A0000321074804F06CFD0A2000F045FC0448C2
:1017B00004220321BDE81040083004F037BD0000CA
:1017C0002000002072B6FEE72DE9F84F00270446FE
:1017D000009790F85800DFF8E0930D46B8460128CE
:1017E00011D0012684F85860206803F0AFF960B189
:1017F000E06D40F02000E0655FF0010784F858805C
:101800003846BDE8F88F0220FBE7D5E900210C231C
:10181000206803EA91131844036B01F01F014FF095
:101820001F0C0CFA01FCC2F3846223EA0C038A4009
:1018300013430363206803F089F98246206803F0AC
:1018400081F95AEA00003CD1AA6829682068B2F1FF
:10185000004F37D003F07EF92068416921F0004144
:10186000416120686969C268C2F3C10252009140B7
:101870002A69042A31D000EB82002B68026EDFF85F
:101880003CC303F0F84302EA0C020B431A4342F054
:101890000041016620682A69A96900EB8200026E96
:1018A00022F080720A430266297F22682869012992
:1018B00010D0002102EB8000026E22F000720A4379
:1018C00002667DE0002203F045F92068416941F09D
:1018D0000041C5E74FF00071ECE7002103F02CF95F
:1018E000400320684FF0000172D003F025F990FA10
:1018F000A0F0B0FA80F1286842036ED090FAA0F010
:10190000B0FA80F0814204D100221146206803F031
:1019100030F90121206803F00FF9400320684FF0EF
:1019200001015DD003F008F990FAA0F0B0FA80F15F
:101930002868420359D090FAA0F0B0FA80F08142B2
:1019400004D100220121206803F013F9022120684C
:1019500003F0F2F8400320684FF0020148D003F092
:10196000EBF890FAA0F0B0FA80F12868420344D076
:1019700090FAA0F0B0FA80F0814204D10022022156
:10198000206803F0F6F80321206803F0D5F840033F
:1019900020684FF0030133D003F0CEF890FAA0F0A6
:1019A000B0FA80F1286842032FD090FAA0F0B0FA84
:1019B00080F0814204D100220321206803F0D9F88D
:1019C0002068816811F0010F22D0ACE000E004E053
:1019D00003F0B2F8C0F384618DE7C0F3846091E74F
:1019E00003F0AAF8C0F38461A2E7C0F38460A6E71D
:1019F00003F0A2F8C0F38461B7E7C0F38460BBE7EB
:101A000003F09AF8C0F38461CCE7C0F38460D0E7B8
:101A10002A7B296850F8B03FC1F3120C23EA0C036B
:101A200002F0180C664A22FA0CF20A4013430360D3
:101A3000E968494577D1286841031CD090FAA0F1A4
:101A4000B1FA81F1491C01F01F0109294FEA403127
:101A500032D8002912D000BF90FAA0F1B1FA81F17A
:101A600001F1010101F01F0106FA01F609D100BFE1
:101A7000C0F3846109E0C0F38461E3E7C0F38461EB
:101A8000EEE790FAA0F1B1FA81F101F1010101F064
:101A90001F0146EA816102D1C0F3846003E090FA3D
:101AA000A0F0B0FA80F000F1010000F01F0000EBA0
:101AB000400041EA005132E000290ED090FAA0F136
:101AC000B1FA81F101F1010101F01F0106FA01F6FD
:101AD00006D100BFC0F3846106E0C0F38461F1E782
:101AE00090FAA0F1B1FA81F101F1010101F01F01B9
:101AF00046EA816102D1C0F3846003E090FAA0F06D
:101B0000B0FA80F000F1010000F01F002D4A00EB58
:101B1000400002EB005041EA000141F00071AA6868
:101B2000206803F017F828482A6802423FF466AE9E
:101B300026488168264B01F0E0719A4202D0254B7D
:101B40009A421CD10B021AD42268B2F1A04F7FF442
:101B500055AE826841F4000122F0E0720A438260CF
:101B60001D481E490068B0FBF1F0401C00EB40002E
:101B7000800000E0401E00900028FBD13EE6184D9A
:101B8000184BAA4207D1CD0105D422689A42F5D05C
:101B900041F0807109E0144DAA42EFD14A02EDD420
:101BA00022689A42EAD041F48001826822F0E07211
:101BB0000A43826022E6000000007F4000F0FF033D
:101BC000FFFF0700000020FE000008800003005017
:101BD000000021C31000C0903C000020400D030015
:101BE000000052C700010050000084CB0068006C68
:101BF00070470000F8B54FF0000504002E46009530
:101C000002D0E06D10B107E00120F8BD204600F0E1
:101C1000EBF8266684F8586020688168C1F340714B
:101C200019B18168684A1140816020688168C1F3F8
:101C3000007189B98168654A114041F08051816025
:101C4000634864490068B0FBF1F04000801C00E08C
:101C5000401E00900028FBD120688168C1F300710C
:101C600041B9E16D41F01001E165216E41F00101E2
:101C70002166012502F06AFFE16DC90600D430B18A
:101C8000E06D40F01000E06501252846F8BDE06DEC
:101C900020F4807040F00200E0652068806810F059
:101CA000010F11D14FF0A04080684B4900F00100B6
:101CB000896801F00101084306D1484861688268DB
:101CC00022F47C120A438260E168E06B627F084381
:101CD000A16841EA4231084394F8241040EA0140E7
:101CE000012904D1218D3E4A02EB41410843E16ABA
:101CF00029B101F47871226B014342EA01002268A4
:101D0000D168384B19400143D16020680169626B8A
:101D100021F0406111430161206802F013FF70BBA4
:101D2000207F94F83810800340EA41022168C86897
:101D300044F2020398431043C860206900282068D9
:101D400001690AD041F480310161206850F8C01F58
:101D500022696FF30D01114307E021F48031016125
:101D6000206850F8C01F6FF30D01016094F8400027
:101D700001280CD02068016921F00101016160692E
:101D800001282068016B21F00F0111D013E0D4E984
:101D900011010843D4E913121143084321680A6969
:101DA00040F2FC739A43104340F001000861E6E7FB
:101DB000226A521E11430163E06D20F0020040F0E0
:101DC0000100E06561E70000C0FFFF5FC0FFFF7F2B
:101DD0003C000020400D03000001005000030050B3
:101DE0000000FEFF0740F0FF10B598B00446142134
:101DF00011A8FEF735FC44216846FEF731FC154971
:101E00002068884223D1C401000500940F906846E1
:101E100000F050FB08B1FFF7D5FC0F48C16C41F44E
:101E20000051C164C16C01F400511691C16C41F0C4
:101E30000201C164C06C11A900F0020016900320D9
:101E4000CDE9114000201390044800F007F918B0C4
:101E500010BD0000000100500010024000040048C6
:101E60002DE9F04104463848806800F01F052068DD
:101E700002F06CFE18B102210846BDE8F08194F82A
:101E8000580001280CD0012084F858002046FFF7A4
:101E90001FFC01004FF0000304D084F85830EBE73A
:101EA0000220EAE7E06D40F60162904340F4807062
:101EB000E065264A20684FF0A046904201D137469F
:101EC00000E00746874200D01DB9E76D27F4801770
:101ED000E765E76DFF0404D5276E27F00607276640
:101EE00000E023661C27076084F858302068904281
:101EF00001D1334600E00346834215D0A5B1052D3C
:101F000012D0092D10D0E36D43F48013E3659042A5
:101F100000D13046C0688001AED5E06D20F400509D
:101F200040F48050E065A7E7C268920105D5E26DF4
:101F300022F4005242F48052E2658268044B1A4057
:101F4000121D826098E7000000030050000100505D
:101F5000C0FFFF7F10B590F8253000210122022B31
:101F600003D00421C163012122E003681C6824F02E
:101F70000E041C60836C1C6824F480741C6003686D
:101F80001C6824F001041C6090F84430046C03F0D9
:101F90001F0302FA03F36360D0E913345C60436DFE
:101FA00033B11C6824F480741C60D0E916345C6082
:101FB00080F82520002280F82420084610BD70B546
:101FC00090F82520002401212346022A07D004226C
:101FD000C26380F8251080F82430012429E00268CB
:101FE000156825F00E0515600268156825F00105D5
:101FF0001560826C156825F48075156090F8442092
:10200000056C02F01F0201FA02F26A60D0E91325A2
:102010005560426D32B1156825F480751560D0E9C0
:102020001625556080F8251080F82430816B01B1A9
:102030008847204670BD000070B5044600F03CF9AA
:102040000546601C02D004484068044400F034F99E
:10205000401BA042FAD370BD300000202DE9F04FA4
:10206000DFF82092002301260324A9F1040B85B098
:102070000F2709F1040AABF1040EFAE006FA03F5A2
:102080002A407CD091F804C00CF0030CBCF1010F85
:1020900002D0BCF1020F26D1D0F808C0CDF800C0A4
:1020A0004FEA430C04FA0CF8CDF810C0DDF800C07C
:1020B0002CEA080CCDF800C0D1F80C80DDF810C077
:1020C00008FA0CF8DDF800C048EA0C08C0F80880EF
:1020D000D0F804C02CEA050C0D79C5F300159D401D
:1020E00045EA0C0545600D79ED43AD070ED0C56896
:1020F0004FEA430804FA08FC25EA0C05D1F808C0A9
:102100000CFA08FC4CEA050CC0F80CC00D7905F07F
:102110000305022D16D1DD0800EB850CCDF808C0B3
:10212000DCF820805D074FEAD56C07FA0CF528EA49
:1021300005080D6905FA0CF5DDF808C045EA080543
:10214000CCF8205005684FEA430CCDF808C004FADB
:102150000CFC25EA0C0591F804C00CF00308DDF82E
:1021600008C008FA0CF848EA0508C0F800804D6875
:1021700015F4403F7CD0444DD5F860C000E077E0D6
:102180004CF0010CC5F860C02D6E23F0030C05F077
:10219000010500953D4D65440295AD684FEA837C8D
:1021A0004FEA1C7807FA08FC25EA0C05B0F1904FBD
:1021B00006D0DFF8DCC0604505D14FF0010C20E00F
:1021C0004FF0000C1DE0DFF8CCC0604502D14FF0AD
:1021D000020C16E0DFF8C0C0604502D14FF0030CDE
:1021E0000FE0DFF8B8C0604502D14FF0040C08E002
:1021F000DFF8ACC0604502D14FF0050C01E04FF0B4
:10220000060C0CFA08FC4CEA050C029DC5F808C047
:10221000D9F80050CC46D1F8048095435FEAC8282D
:1022200000D51543CCF80050DAF80050D446D1F868
:10223000048095435FEA882800D51543CCF8005008
:10224000DBF80050DC46D1F8048095435FEA88381B
:1022500000D51543CCF80050DEF80050F446D1F814
:10226000048095435FEAC83800D51543CCF8005088
:102270005B1C0A6832FA03F57FF400AF05B0BDE8D5
:10228000F08F0000080401400010024000000140EF
:102290000004004800080048000C004800100048F6
:1022A000001400480069084000D0012070470AB1BE
:1022B0008161704781627047014880687047000003
:1022C00030000020024881684268114481607047F4
:1022D0003000002010B50024032000F073F80F2018
:1022E00000F008F808B1012401E000F025F82046CC
:1022F00010BD000070B50E4E05460024706898B100
:102300004FF47A71B1FBF0F00A490968B1FBF0F0C3
:1023100000F0F8FE40B9102D06D200222946501ECA
:1023200000F030F8356000E00124204670BD000068
:10233000300000203C0000200A4882B0016E41F0CD
:1023400001010166016E01F001010091816D41F012
:1023500080518165806D00F08050009002B000F0E7
:10236000A1B8000000100240002809DB00F01F02A5
:10237000012191404009800000F1E020C0F80011E7
:1023800070470000F0B40E4B1B680C46C3F30223E9
:10239000C3F10705042D00D90425191D072901D211
:1023A000002300E0DB1E012606FA05F1491E21404C
:1023B00099409E40761E16403143F0BC03F019BF91
:1023C0000CED00E0064900F0070208684FF6FF0335
:1023D000184040EA0220034A10430860704700009A
:1023E0000CED00E00000FA052B492C4B0A68322165
:1023F0004A432B4940B1B0F5007F086829D020F44A
:10240000C06040F480602CE00868C0F341200228DE
:1024100004D051F8800F20F4807022E0D1F88000C1
:1024200020F48070C1F88000086820F4C06040F497
:1024300000700860B2FBF3F0401C00E0401E4A69E7
:10244000520501D50028F9D1486940050AD5032075
:102450007047C0F34120022806D051F8800F40F4A5
:102460008070086000207047D1F8800040F48070D0
:10247000C1F88000086820F4C06040F40070086073
:10248000B2FBF3F0401C00E0401E4A695205DBD568
:102490000028F9D1D8E700003C00002040420F009E
:1024A000007000400248816841F4804181607047BB
:1024B000007000402DE9F8430446006800269D4D59
:1024C00000035ED5A86D0027C00008D4A86D40F0B9
:1024D0008050A865A86D012700F080500090DFF8BB
:1024E0005892D9F8001041F48071C9F80010FFF734
:1024F000E3FE804606E000BFFFF7DEFEA0EB08002B
:1025000002282BD8D9F80000C005F5D5D5F89000E1
:1025100010F4407014D0216C814211D0D5F8900095
:10252000D5F8901020F4407041F48031C5F8901037
:10253000D5F8901021F48031C5F89010C5F89000BE
:10254000C00711D0FFF7B8FE804641F2883907E096
:10255000FFF7B2FEA0EB0801494501D903260BE0C5
:10256000D5F890008007F3D5D5F89000216C20F4C1
:1025700040700843C5F890001FB1A86D20F080504E
:10258000A8652078C00707D0D5F88800616820F0DA
:1025900003000843C5F888002078800707D5D5F8E0
:1025A0008800A16820F00C000843C5F88800207856
:1025B000400707D5D5F88800E16820F030000843CF
:1025C000C5F888002078000707D5D5F8880021696C
:1025D00020F0C0000843C5F888002078800607D5A1
:1025E000D5F88800616920F440600843C5F8880088
:1025F0002078400607D5D5F88800A16920F440501E
:102600000843C5F888002078000607D5D5F888006B
:10261000E16920F440400843C5F888002088C005DF
:1026200007D5D5F88800216A20F440300843C5F862
:1026300088002088800507D5D5F88800616A20F4D5
:1026400040200843C5F88800208840050FD5D5F8FC
:102650008800A16A20F440100843C5F88800A06AE9
:10266000B0F5801F03D1E86840F48010E86020884E
:1026700000050FD5D5F88800E16A20F44000084332
:10268000C5F88800E06AB0F5800F03D1E86840F42F
:102690008010E8602088C0040FD5D5F88800216B31
:1026A00020F040700843C5F88800206BB0F1807FAF
:1026B00003D1E86840F48010E86020884FF00061A2
:1026C00080040ED5D5F88800626B20F0406010437E
:1026D000C5F88800606B884203D1E86840F4801038
:1026E000E860208840040ED5D5F88800A26B20F061
:1026F00040601043C5F88800A06B884203D1E868A9
:1027000040F48010E860208800040FD5D5F88800D8
:10271000E16B20F040500843C5F88800E06BB0F151
:10272000805F03D1E86840F48030E8603046BDE85F
:10273000F883000000100240007000402DE9F047CF
:102740000E4605004FF0000725D0DFF8AC81D8F821
:10275000000000F00F00B0420CD2D8F8001021F0B9
:102760000F013143C8F80010D8F8000000F00F0046
:10277000B04210D12968614CC80741F2883A5AD05A
:102780006868DFF87C91032808D0022820682DD0E3
:10279000400500282CDB0120BDE8F087206880017F
:1027A000F9D5E06800F00302E068C0F30310401CB4
:1027B000032A19D0534A00BFB2FBF0F0E268C2F31B
:1027C00006225043E268C2F34162521C5200B0FB41
:1027D000F2F0484517D9A06810F0F00F0CD0880728
:1027E00011D5A86840B10EE0474AE5E78003D0E77D
:1027F00000F0B6F8484506D9A06820F0F00040F097
:102800008000A0608027A068696820F0030008436A
:10281000A060FFF751FD814606E000BFFFF74CFDC9
:10282000A0EB090151453AD8A068696800F00C0096
:10283000B0EB810FF2D12868810714D5400703D58A
:10284000A06840F4E060A0602878000705D5A06883
:1028500020F4605040F4E060A060A068A96820F017
:10286000F000084304E0802F03D1A06820F0F000BE
:10287000A060D8F80010404601F00F01B14216D90F
:10288000016821F00F0131430160FFF715FD074694
:1028900007E000BFFFF710FDC11B514501D9032020
:1028A0007AE7D8F8000000F00F00B042F2D12878A3
:1028B000400705D5A068E96820F4E0600843A060FF
:1028C0002878000706D5A068296920F4605040EAFE
:1028D000C100A06000F044F8A1680C4AC1F30311E4
:1028E000515C01F01F01C8400949086009480068AF
:1028F000BDE8F047FFF7FEBC002002400010024098
:1029000000B4C4040024F40000366E01FC66000824
:102910003C00002030000020054806490068896816
:10292000054AC1F30221515C01F01F01C840704704
:102930003C000020001002400C67000805480649D2
:1029400000688968054AC1F3C221515C01F01F018A
:10295000C84070473C000020001002400C6700088F
:10296000184910B58868C0F381021748012A0BD0B6
:102970008A68164BC2F38102022A06D08A68C2F323
:102980008102032A03D0002010BD184610BDCA687A
:1029900002F00304CA68C2F30312521C032C02D0D3
:1029A000B0FBF2F001E0B3FBF2F0CA68C968C2F311
:1029B00006225043C1F34161491C4900B0FBF1F0CC
:1029C00010BD0000001002400024F40000366E012B
:1029D0002DE9F84304007AD02078F84DC00747D09D
:1029E000A868E96800F00C0001F003010C2802D08F
:1029F000082817D001E0032914D06068B0F5803FA3
:102A000017D0B0F5A02F286817D020F480302860A8
:102A1000286820F4802028606068E0B1FFF74CFC53
:102A2000064614E02868800322D560680028D2D0CA
:102A30001EE0286840F48030EDE740F480202860F4
:102A4000F7E700BFFFF738FC801B642870D82868C0
:102A50008003F7D50CE0FFF72FFC064605E000BF2A
:102A6000FFF72AFC801B6428F0D828688003F7D47D
:102A7000207880074CD5A868E96800F00C0001F0C8
:102A800003010C2802D004280DD001E002290AD04D
:102A9000E068002828682BD040F480702860FFF799
:102AA0000BFC064619E02868400502D5E0680028BE
:102AB00091D06868217C20F0FE4040EA01606860A7
:102AC000BF480068FFF716FC002800D120E072E143
:102AD000FFF7F2FB801B0228B8D828684005F7D51D
:102AE0006868217C20F0FE4040EA016068600FE0E9
:102AF00020F480702860FFF7DFFB064605E000BF8A
:102B0000FFF7DAFB801B0228A0D828684005F7D41D
:102B10002078000729D560690028D5F8940013D0E3
:102B200040F00100C5F89400FFF7C6FB064606E03A
:102B300090E000BFFFF7C0FB801B022886D8D5F8C5
:102B400094008007F6D510E020F00100C5F894004D
:102B5000FFF7B2FB064604E0FFF7AEFB801B02283E
:102B600078D8D5F894008007F6D42078400761D54E
:102B7000A86D0026C00008D4A86D40F08050A8655C
:102B8000A86D012600F0805000908E480168C905AC
:102B900011D40168804641F480710160FFF78CFB1D
:102BA000074604E0FFF788FBC01B022852D8D8F87C
:102BB0000000C005F6D5A068012815D00528D5F875
:102BC000900016D020F00100C5F89000D5F89000D4
:102BD00020F00400C5F89000A06841F28838B8B130
:102BE000FFF76AFB07460EE0D5F8900040F00100C1
:102BF000F0E740F00400C5F89000F5E7FFF75CFB54
:102C0000C11B414526D8D5F890008007F6D50CE0C9
:102C1000FFF752FB074604E0FFF74EFBC11B41459F
:102C200018D8D5F890008007F6D41EB1A86D20F012
:102C30008050A8652078800629D5A0690028D5F89D
:102C4000980013D040F00100C5F89800FFF734FB5E
:102C5000064606E075E000BFFFF72EFB801B02284A
:102C60006FD8D5F898008007F6D510E020F0010065
:102C7000C5F89800FFF720FB064604E0FFF71CFBB1
:102C8000801B02285DD8D5F898008007F6D4E0694B
:102C9000F0B3A968C1F3810103295DD00228286837
:102CA00020F08070286003D0FFF706FB04464BE05D
:102CB000FFF702FB064604E0FFF7FEFA801B02283E
:102CC0003FD828688001F7D4F4E908016FF00F02BB
:102CD00002EB01110843218A5204490802EB4151D9
:102CE000A26841EA02210843217D4FF07E42490853
:102CF00002EB41610843217B40EAC160E968324A46
:102D000011400843E860286840F08070286000E0C7
:102D10005EE0E86840F08070E860FFF7CDFA0446B6
:102D200005E000BFFFF7C8FA001B022809D8286891
:102D30008001F7D54CE000BFFFF7BEFA001B022868
:102D400002D90320BDE8F88328688001F4D4E8683C
:102D50001E490840E8603BE00128F3D0E868226A99
:102D600000F00301914226D1616A00F0F0020901EE
:102D7000103991421FD1A26A00F4FE41B1EB022F3B
:102D800019D194F82C2000F07841B1EBC26F12D128
:102D9000218E00F4C00249084905A1F500119142B5
:102DA00009D194F8341000F0C06049084906A1F137
:102DB000007181420CD00120C4E7000000100240E5
:102DC00030000020007000400C809F01FCFFEEFEF0
:102DD0000020B7E710B500680B4641680D48014078
:102DE000080CD870C1F304245C7001F03F049C709F
:102DF000C1F34231197052B902F07DF9D870587898
:102E000002F079F95870987802F075F998700020FE
:102E100010BD00003FFFFF0010B50B460168896838
:102E2000596001680969C1F30E0199600068016881
:102E30000D480140C1F305401870C1F306245C70D1
:102E400001F07F049C70890DD97052B902F053F9DA
:102E50001870587802F04FF95870987802F04BF9D2
:102E60009870002010BD00007F7F7F0070B50400C7
:102E70004FF0010040D094F8250028B9002084F8D4
:102E80002400204600F040F8022084F82500206845
:102E9000C168C943C90630D5CA214162216853209F
:102EA0004862204602F03CF910BB20688169154A4F
:102EB00011408161216888696268A36910432269B1
:102EC0001A43104388612189E06840EA0140216883
:102ED0000861204602F049F950B9D4E907211143AD
:102EE00022686369956925F060452B431943916118
:102EF0002268FF21516208B170BD0020012184F8D1
:102F0000251070BDBFFF8FFB10B592B00446442161
:102F10006846FDF7A5FB1049206888421AD14FF496
:102F2000002000904FF4407010906846FFF7C2FAFE
:102F300008B1FEF747FC094850F8901F41F40041E2
:102F400040F83819016841F480610160006800F4BC
:102F50008060119012B010BD0028004000100240A7
:102F600070B5044690F824000B4601281BD00126BA
:102F700084F82460022084F82500B2B19878D978CA
:102F800040EA014558781978000240EA413005438B
:102F90002168CA204862216853204862204602F016
:102FA000BFF8D0B120E0022070BD5878C10603D52B
:102FB00000F0EF000A305870D87802F0A5F8050448
:102FC000587802F0A1F845EA0025987802F09CF8BC
:102FD0000543187845EA4035DAE708480540206897
:102FE0004560204602F0C1F82268FF21516208B90D
:102FF00084F82560002184F8241070BD3FFFFF0095
:103000002DE9F041044690F8240090460D46012831
:1030100011D0012784F82470022084F8250021684B
:10302000CA204862216853204862204602F078F89E
:10303000002618B129E00220BDE8F0812068B8F12F
:10304000000F80694FEA406024D0002800DBEE705A
:10305000A8782978EA7840EA01406978090241EACB
:103060008251084318490840216808602068816936
:1030700021F480218161D5E90301084321688A692F
:1030800010438861204602F070F82268FF215162E7
:10309000A0B115E0002800DBEE70287802F034F8CB
:1030A0000304687802F030F843EA0023A87802F0BD
:1030B0002BF80343E87843EA8050D3E784F825707F
:1030C00084F82460B8E700007F7F7F0070B5044675
:1030D0000B482168C860FFF7EFF805464FF47A7691
:1030E00007E000BFFFF7E8F8401BB04201D903201A
:1030F00070BD2068C0688006F4D5002070BD000057
:103100005F00010010B5401EB0F1807F01D30120A7
:1031100010BD4FF0E02460610F21601703F069F8E3
:103120000020A06107202061002010BD704770477B
:103130007047000030B590F83C20012A42D00122AF
:1031400080F83C20CA688B6822F440721A434B68AE
:1031500022F480621A430B6822F400621A430B695E
:1031600022F480521A434B6922F400521A430B6B2B
:1031700022F480421A430B8B22F4702242EA03426B
:10318000CB6922F080521A430F4D03680024AB42F2
:1031900002D00E4DAB4210D10D8D22F4700242EAE6
:1031A00005520D6A22F080722A434D6A22F00072A5
:1031B0002A43C96A22F000520A435A6480F83C400C
:1031C000002030BD022030BD002C01400034014001
:1031D0007047704770470000F0B590F83C20012A16
:1031E0003AD0012580F83C50022280F83D20036847
:1031F0005A689C68194E1A4FB34201D0BB4204D1A1
:1032000022F4700C4A6842EA0C02DFF858C002EA65
:103210000C02D1F800C04CEA020CC3F804C00268EA
:10322000B2420DD0B2F1804F0AD00F4B9A4207D074
:103230000E4B9A4204D0BA4202D00D4B9A4204D1AE
:10324000896824F080031943916080F83D50002183
:1032500080F83C100846F0BD0220F0BD002C014073
:10326000003401408FFFFFFD0004004000080040D3
:1032700000400140704710B5040003D094F83D00B1
:1032800010B107E0012010BD002084F83C0020466A
:1032900000F022F8022084F83D00211D206802F091
:1032A000A7F9012084F8480084F83E0084F83F0024
:1032B00084F8400084F8410084F8420084F8430018
:1032C00084F8440084F8450084F8460084F84700F8
:1032D00084F83D00002010BD10B586B004461421CE
:1032E0006846FDF7BDF921682448B1F1804F26D02A
:1032F000234A91422DD1816D41F002018165816D9A
:1033000001F002010591C16C41F00101C164C06C82
:10331000002100F001000590802000900220CDE9FE
:103320000101CDE9031069464FF09040FEF796FE8B
:10333000002211461D20FFF725F81D201AE0816D9F
:1033400041F001018165806D00F00100059006B03B
:1033500010BD0C4A9142FAD1816D41F01001816596
:10336000806D002200F01000059001213620FFF74B
:1033700009F83620FEF7F8FFE9E7000000100240E8
:10338000000400400010004090F83D10012901D0D9
:1033900001207047022180F83D1000680F498842E3
:1033A0000ED0B0F1804F0BD00D49884208D00D49A6
:1033B000884205D00C49884202D00C49884207D186
:1033C00081680B4A1140062906D0B1F5803F03D031
:1033D000016841F00101016000207047002C0140AC
:1033E000000400400008004000340140004001405B
:1033F0000700010090F83D10012901D0012070471D
:10340000022180F83D100168CA6842F00102CA60DA
:103410000068104988420ED0B0F1804F0BD00E49A1
:10342000884208D00D49884205D00D49884202D013
:103430000C49884207D181680B4A1140062906D001
:10344000B1F5803F03D0016841F001010160002027
:1034500070470000002C01400004004000080040BC
:1034600000340140004001400700010070B50446EF
:1034700090F83C000025012814D0012684F83C6017
:10348000022084F83D0022689068364B184020F4F2
:103490007F409060086870282ED010DC10F00F0F6D
:1034A00003D021E04FF0020070BD4FEA2012072A3E
:1034B0001AD2DFE802F0525252524A3840002A4BE8
:1034C000C21A984249D009DCB0F5805F0DD0B0F542
:1034D000005F1CD0B0F1101F06D13EE0102A3CD096
:1034E000202A3AD0502A38D0012584F83D600020A7
:1034F00084F83C00284670BDCB68D1E901212068E2
:1035000002F0E1F82068816841F0770109E0CB68BA
:10351000D1E90121206802F0D6F82068816841F4E1
:1035200080418160E1E7CA684968206802F0DEFAFC
:103530005021206806E0CA684968206802F01EFB36
:103540006021206802F0CAF8CFE7CA68496820689D
:1035500002F0CCFA40212068F4E7226801461046C8
:10356000F0E7000088FFCEFF2000100070B5054690
:103570000068194988422ED1287F184C022821D191
:103580000421174800F0F8FB401C81B200EE101A2D
:10359000DFED140AA180B8EE400A80EE801A84EDB7
:1035A000061AE08800EE100AF8EE400A00EE101A43
:1035B000B8EE401A80EE810ADFED0B0A20EE200AF9
:1035C00084ED070A287F012805D10021044800F076
:1035D000D3FB401CE08070BD0004004000000020D0
:1035E00054010020002474490000C8422DE9F04134
:1035F000054690F83C0000260C46012810D001201A
:1036000085F83C0072B1042A1CD0082A2CD00C2A60
:1036100050D00126002085F83C003046BDE8F081FE
:103620000220FBE7D4E90012E368286802F070FA90
:103630002868816921F00C01816128688169A2688C
:1036400011430FE0D4E90012E368286802F0A8FAF9
:103650002868816921F44061816128688169A268D4
:1036600041EA02218161D5E72868D4E9002C277B53
:10367000036A016A21F480710162C16923F4206345
:1036800021F0030141EA0C0121F0F00C39074FF45D
:1036900020674CEA116107EA02221A43C161026203
:1036A0002868C16921F00C01C1612868C169A2685C
:1036B00011432BE02868D4E90021E768036AD0F8B9
:1036C00020C02CF4805CC0F820C0D0F81CC023F4CB
:1036D00020432CF4407C4CEA012121F4704C4FF63D
:1036E000FF7101EA07314FF4204741EA0C0107EA74
:1036F00002321A43C16102622868C16921F4406143
:10370000C1612868C169A26841EA0221C16181E7FB
:1037100010B5040003D094F83D0010B107E001207B
:1037200010BD002084F83C00204600F022F8022062
:1037300084F83D00211D206801F05AFF012084F823
:10374000480084F83E0084F83F0084F8400084F884
:10375000410084F8420084F8430084F8440084F86F
:10376000450084F8460084F8470084F83D000020B6
:1037700010BD70472DE9F04104460068C668056930
:103780004FF00007A90713D5B10711D5F91E016144
:1037900001202077206880698007204602D0FFF74B
:1037A000E5FE04E000F028F9204600F045FA27770E
:1037B000680716D5700714D521686FF004000861FA
:1037C000022020772068806910F4407F204602D0D4
:1037D000FFF7CCFE04E000F00FF9204600F02CFAD1
:1037E0002777280715D5300713D521686FF0080013
:1037F0000861042020772068C0698007204602D035
:10380000FFF7B4FE04E000F0F7F8204600F014FAE9
:103810002777E80616D5F00614D521686FF010005A
:103820000861082020772068C06910F4407F204696
:1038300002D0FFF79BFE04E000F0DEF8204600F027
:10384000FBF92777E80708D0F00706D021686FF06A
:1038500001000861204600F06FFA280601D4A80490
:1038600008D5300606D521686FF40250086120465D
:10387000FFF75DFCE80508D5300606D521686FF432
:10388000807008612046FFF751FC680608D5700675
:1038900006D521686FF040000861204600F0ACFAC0
:1038A000A80608D5B00606D521686FF0200008618B
:1038B0002046FFF73DFCE80208D5F00206D5216856
:1038C0006FF4801008612046FFF783FCA80208D53A
:1038D000B00206D521686FF4001008612046FFF79A
:1038E00077FC680208D5700206D521686FF4800065
:1038F00008612046FFF76EFC28020AD5300208D581
:1039000021686FF4000008612046BDE8F041FFF730
:10391000B1BCBDE8F081000030B587B00446142189
:103920006846FCF79DFE24680023154902224FF0EB
:103930009040B4F1804F16D0124DAC4211D1CC6CF6
:1039400044F00104CC64C96C01F00101059104212B
:103950008DE80E005FF00901CDE903316946FEF7FD
:103960007DFB07B030BDCC6C44F00104CC64C96C65
:10397000009201F001010591CDE901230121EBE75E
:10398000001002400040014070B5044690F83C0031
:10399000002501280BD0012084F83C000C2A1ED001
:1039A00007DC82B1042A12D0082A06D113E00220D3
:1039B00070BD102A17D0142A19D00125002084F8D0
:1039C0003C00284670BD206801F092FEF6E72068B2
:1039D00001F0DCFEF2E7206801F020FFEEE720684E
:1039E00001F064FFEAE7206801F0A8FFE6E720683D
:1039F00001F0DCFFE2E70000044A0168914204D1D3
:103A0000007F012801D1486A4863704700400140A7
:103A100010B5040003D094F83D0010B107E0012078
:103A200010BD002084F83C00204600F023F802205E
:103A300084F83D00211D206801F0DAFD012084F8A2
:103A4000480084F83E0084F83F0084F8400084F881
:103A5000410084F8420084F8430084F8440084F86C
:103A6000450084F8460084F8470084F83D000020B3
:103A700010BD000008B500680B49884212D10B4800
:103A8000016E41F480310166006E002200F4803046
:103A9000009011461820FEF775FCBDE8084018207C
:103AA000FEF762BC08BD000000400140001002406B
:103AB00070B5044690F83C0000260D4601280BD056
:103AC000012084F83C000C2A4AD007DC82B1042A89
:103AD00020D0082A06D131E0022070BD102A53D030
:103AE000142A63D00126002084F83C00304670BDC3
:103AF000206801F0FDFD2068816941F008018161C5
:103B00002068816921F004018161206881692A6946
:103B1000114311E0206801F039FE2068816941F409
:103B2000006181612068816921F480618161206880
:103B300081692A6941EA02218161D4E7206801F0A4
:103B40006DFE2068C16941F00801C1612068C1694A
:103B500021F00401C1612068C1692A69114311E0A3
:103B6000206801F0A3FE2068C16941F40061C161D1
:103B70002068C16921F48061C1612068C1692A6936
:103B800041EA0221C161AEE7206801F0D7FE20685A
:103B9000016D41F0080101652068016D21F004010B
:103BA00001652068016D2A69114311E0206801F068
:103BB000FDFE2068016D41F4006101652068016D22
:103BC00021F4806101652068016D2A6941EA0221C2
:103BD000016588E710B5040003D094F83D0010B1EA
:103BE00007E0012010BD002084F83C00204600F0D2
:103BF00022F8022084F83D00211D206801F0F8FC25
:103C0000012084F8480084F83E0084F83F0084F8DE
:103C1000400084F8410084F8420084F8430084F8AE
:103C2000440084F8450084F8460084F8470084F88E
:103C30003D00002010BD70477047000030B50446BD
:103C4000022269B1042912D0082917D00C291CD0EE
:103C5000102921D094F84300012824D0012030BD40
:103C600094F83E000128F9D184F83E201DE094F834
:103C70003F000128F2D184F83F2016E094F840007C
:103C80000128EBD184F840200FE094F8410001288E
:103C9000E4D184F8412008E094F842000128DDD105
:103CA00084F8422001E084F843200122206801F0DA
:103CB000FDFC194B20681949194A984209D08842DD
:103CC00007D0904205D0174DA84202D0164DA84209
:103CD00003D1456C45F400454564206898420CD0FA
:103CE000B0F1804F09D0114B984206D0104B98424A
:103CF00003D0884201D0904207D181680D4A11401B
:103D0000062906D0B1F5803F03D0016841F00101DA
:103D10000160002030BD0000002C01400034014053
:103D200000400140004401400048014000040040C0
:103D3000000800400700010010B5006809498842EA
:103D40000ED109A10A48FCF741FB0948FCF769FCC0
:103D500082B2BDE8104032230549064800F0C0BADF
:103D600010BD00000010004048690D0A000000006E
:103D700010000020380200200246002041B1042932
:103D800009D008290AD00C2901D11068006C7047AD
:103D90001068406B70471068806B70471068C06B8C
:103DA000704770B5044690F83C00012812D00125F8
:103DB00084F83C50022084F83D00204601F02EFE9D
:103DC00001004FF0000007D084F83D5084F83C001B
:103DD000012070BD022070BD2168CA6822F0400237
:103DE000CA602168CA6822F48042CA6084F83D50E3
:103DF00084F83C00002070BD704790F884100129C1
:103E000018D0012180F884102421C0F8881001689E
:103E10000A680B6823F001030B6022F000510022B6
:103E20004266036819602021C0F8881080F8842059
:103E300010467047022070477047704770B50446BF
:103E400090F8840001281DD0012084F884002420EB
:103E5000C4F8880020680568026822F00102026048
:103E60002068826822F060620A438260204601F086
:103E7000B3FE206805602020C4F88800002084F884
:103E8000840070BD022070BD70B5044690F88400B7
:103E900001281DD0012084F884002420C4F8880063
:103EA00020680568026822F00102026020688268CA
:103EB00022F060420A438260204601F08DFE2068B5
:103EC00005602020C4F88800002084F8840070BDBC
:103ED000022070BD70477047704700002DE9F04127
:103EE00003680446D86919689A6840F60F052842A5
:103EF0004FF000054FF002060AD187067ED501F08B
:103F0000200702F0805C57EA0C0777D0616F3AE136
:103F1000B24FDFF8CCC2174001EA0C0C57EA0C0C88
:103F20006CD05FEAC07C0CD05FEAC15C09D54FF071
:103F3000010CC3F820C0D4F8903043F00103C4F85A
:103F40009030830709D5D30707D023681E62D4F8C1
:103F5000903043F00403C4F8903043070AD5D307E8
:103F600008D0266804233362D4F8903043F002036B
:103F7000C4F8903003070CD501F020033B4308D070
:103F8000266808233362D4F8903043F00803C4F85D
:103F9000903003050BD54B0109D526684FF400631B
:103FA0003362D4F8903043F02003C4F89030D4F852
:103FB0009030002B3DD0800609D501F0200002F0A2
:103FC0008051084303D0616F09B120468847D4F877
:103FD000900021688968490602D410F0280F2AD081
:103FE000204601F0DFFE2068806840061ED520686C
:103FF000083050E8001F21F0400100E021E040E8D7
:104000000012002AF3D1D4F8800078B17549816399
:10401000D4F88000FDF7D3FF00280AD0D4F8800040
:10402000816B00E02046BDE8F04108472046FFF7DD
:1040300053FFBDE8F0812046FFF74EFFC4F89050D3
:10404000F7E7D4F86CC02027BCF1010F7ED15FEAFE
:10405000C06C7BD55FEAC16C78D5102018622068EF
:104060008068400645D5D4F8801008684068000490
:10407000000CDED0B4F85C208242DAD9A4F85E00ED
:104080000868006880062CD4216851E8000F20F4ED
:10409000807041E80002002AF6D12068083050E81C
:1040A000001F21F0010140E80012002AF5D120682C
:1040B000083050E8001F21F0400140E80012002ABB
:1040C000F5D1C4F88C70E566206850E8001F21F037
:1040D000100140E80012002AF6D1D4F88000FDF764
:1040E00039FF2667B4F85C00B4F85E10401A81B25C
:1040F00030E0B4F85C00B4F85E10401A81B2B4F855
:104100005E00002895D0002993D0226852E8000F65
:1041100020F4907042E80003002BF6D12F4BDB43D4
:104120002068083050E8002F1A4040E8002CBCF10D
:10413000000FF5D1C4F88C70E5666567226852E817
:10414000000F20F0100042E8000300E006E0002B22
:10415000F4D126672046FFF76FFE6AE7C60209D54D
:10416000560207D54FF4801018622046BDE8F04192
:10417000FFF7B1BE03060AD501F0800302F4000286
:10418000134304D0A16F00297FF44CAF51E74206DE
:1041900011D54A060FD52046026852E8001F21F0CB
:1041A000400142E80013002BF6D1C0F88870856703
:1041B00000F0EDF83DE7020206D54A0004D520469E
:1041C000BDE8F041FFF786BEC001C6D50029C4DABC
:1041D0002046BDE8F041FFF730BE000001000010AE
:1041E00020010004915D000810B5040003D0D4F84C
:1041F000880010B107E0012010BD002084F8840081
:10420000204600F027F82420C4F8880020680168C0
:1042100021F001010160A06A10B1204601F0FEFC0E
:10422000204601F01DFE0128E6D02068416821F4F7
:10423000904141602068816821F02A0181602068F6
:10424000016841F0010101602046BDE8104001F025
:1042500049BD000010B598B00446142111A8FCF720
:10426000FFF944216846FCF7FBF91B4920688842A6
:1042700030D101200024CDE900046846FEF71AF988
:1042800008B1FDF79FFA1548016E41F480410166BF
:10429000016E01F480411691C16C41F00101C164CD
:1042A000C06C11A900F0010016904FF4C06011908D
:1042B0000220CDE912040720CDE914404FF09040D0
:1042C000FDF7CCFE002211462520FEF75BF82520E5
:1042D000FEF74AF818B010BD003801400010024047
:1042E0002DE9F8430446D0F88800984616460D4656
:1042F000202802D00220BDE8F883A5B19EB100209D
:10430000C4F890002120C4F888001834FDF7D4FFC9
:10431000A6878146E68754F8100C2027183CB0F594
:10432000805F02D003E00120E5E7206910B12E464E
:10433000002510E000260EE08021204601F0CAFE94
:10434000C0B9DEB116F8010B21688862B4F85600D6
:10435000401EA4F85600B4F856004B464FF0000239
:10436000CDF800800028E7D14FF04001204601F051
:10437000B1FE40B1C4F888700320BCE735F8020BE9
:10438000C0F30800E0E7C4F888700020B3E7704786
:10439000FEE7000000B585B014216846FCF760F91F
:1043A000C0200090012001900290022003906946F5
:1043B0000248FDF753FE05B000BD000000040048B0
:1043C00070B50824002500F05DFF13E06806050EB7
:1043D000002000F03FFF142001F022FF142001F024
:1043E0001FFF012000F036FF142001F019FF00F03C
:1043F0003DFF0543641EE4B2E8D2002000F02AFF2E
:10440000142001F00DFF00F05FFF284670BD10B5CD
:10441000002000F04DFF142001F002FF142001F0F5
:10442000FFFE012000F016FF142001F0F9FE00202D
:1044300000F010FFBDE81040142001F0F1BE70B58F
:104440000446082516E000F005FF142001F0E8FE00
:1044500004F0800000F02CFF142001F0E1FE600663
:10446000040E142001F0DCFE012000F0F3FE142005
:1044700001F0D6FE6D1EEDB24FF00000E3D200F069
:10448000E9FEBDE87040142001F0CABE10B501205D
:1044900000F00EFF142001F0C3FE142001F0C0FE56
:1044A000012000F0D7FE142001F0BAFE002000F039
:1044B000D1FEBDE81040142001F0B2BE10B50120BD
:1044C00000F0F6FE142001F0ABFE012000F0C2FE69
:1044D000142001F0A5FE002000F0EAFE142001F0F7
:1044E0009FFE002000F0B6FEBDE81040142001F051
:1044F00097BE10B5002000F0ADFE142001F090FE34
:10450000002000F0D5FE142001F08AFE012000F00A
:10451000A1FE142001F084FE012000F0C9FEBDE8D8
:104520001040142001F07CBE10B5052400F0AAFE56
:10453000142001F075FE012000F08CFE142001F023
:104540006FFE05E0641EA4B2142001F069FE64B1A0
:1045500000F08CFE0028F5D100F07CFE00F0B4FEE7
:10456000142001F05DFE002010BD00F0ADFEFFF74D
:10457000C0FF012010BD000010B500F023F8104C62
:104580000128207004D0022806D0032809D00CE0AE
:10459000607840F0010002E0607820F00100607077
:1045A00003E000F05FF8012806D00020207060785A
:1045B000BDE8104000F0DABB607880F00100EEE763
:1045C0000000002070B5264D01212846FDF76AFE47
:1045D00060B90A20FDF730FD012401212846FDF7CE
:1045E00061FE0028F9D00A20FDF726FD02212846A9
:1045F000FDF758FE60B90A20FDF71EFD02240221D6
:104600002846FDF74FFE0028F9D00A20FDF714FDDB
:1046100004212846FDF746FE60B90A20FDF70CFD8F
:10462000032404212846FDF73DFE0028F9D00A2086
:10463000FDF702FD4FF0904501212846FDF732FEBF
:1046400060B90A20FDF7F8FC042401212846FDF793
:1046500029FE0028F9D00A20FDF7EEFC204670BDA7
:10466000000400480648026806498B68D21A642A8A
:1046700001D2002070470068886001207047000068
:1046800038000020000000202DE9F04186B0142100
:104690006846FBF7E5FF3648C16C41F00401C16490
:1046A000C16C01F004010591C16C41F02001C164AD
:1046B000C16C01F020010591C16C41F00101C164A0
:1046C000C16C01F001010591C16C41F00201C164AE
:1046D000C16C01F002010591C16C41F00801C16497
:1046E000C06C244F00F008004FF47F460590002274
:1046F00031463846FDF7DBFDDFF87C8000220421DF
:104700004046FDF7D4FD012500240096CDE9015473
:10471000694638460394FDF7A1FCCDE9005469468B
:104720004FF090400294FDF799FC0720CDE900047A
:10473000694612480294FDF791FC04200090CDE9EF
:104740000154694640460394FDF788FC0122314636
:104750003846FDF7ACFD012204214046FDF7A7FDD8
:10476000002204214046FDF7A2FD06B0BDE8F0811D
:104770000010024000080048000C004800040048F7
:1047800000B585B014216846FBF76AFF4FF6FF704D
:10479000009000200321CDE9020101906946024802
:1047A000FDF75CFC05B000BD0008004800B585B011
:1047B00014216846FBF754FF4FF6FF70009001206C
:1047C0000190032003900020029069460248FDF703
:1047D00045FC05B000BD00000008004870B500248D
:1047E00006462146204600F003F900F041F94FF457
:1047F0009635304600F010F9641CAC42F9D370BD18
:1048000070B586B014216846FBF72AFF1E48C16CBC
:1048100041F00401C164C16C01F004010591C16C57
:1048200041F00101C164C16C01F001010591C16C4D
:1048300041F00201C164C06C032500F00200059044
:104840004FF448700124002603958DE85100694615
:104850000E48FDF703FC200203958DE851004FF050
:10486000904469462046FDF7F9FBFFF79FFFA069DA
:1048700040F48070A06105481830016841F4087167
:10488000016006B070BD0000001002400004004846
:10489000203AD2B2034B02EB420203EB021200F0C9
:1048A00019B8000014670008F0B50E460746002549
:1048B00040F23F1407E021463846FFF7E9FF103C7D
:1048C0006D1CA4B2761C3278002A01D0142DF2D3CC
:1048D000F0BD00002DE9F04791468A4600260446C7
:1048E00000F086F8DFF84080012700BF00F0C0F834
:1048F0005FF0000539F8160007FA05F10842404656
:1049000001D1408800E0008800F086F86D1C102D71
:10491000F0D3641CE4B25146204600F069F8761CDE
:10492000182EE3D3BDE8F0874000002010B5FFF754
:1049300067FF002000F014F8084CA080A088A0F5C4
:104940000241303906D000F0D5FA002000F008F816
:10495000A08010BD00F045FAF7E7000040000020FD
:1049600070B51D490A6842F400720A600A6842F490
:1049700080720A60184C103C226842F020022260CB
:10498000164A1060086840F02000086000BF00BFB1
:1049900000BF206840F020002060206840F4807054
:1049A0002060FFF7EDFE4FF09041886A40F4807080
:1049B000886200BF00BF00BF0848001F006885B2C2
:1049C000886940F480708861FFF7F0FE206840F449
:1049D00000702060284670BD280400481408004874
:1049E00001B5BDF800000149488008BD4000002025
:1049F00010B50C460146202000F068F82146BDE8BD
:104A00001040212000F062B801B5BDF80000014956
:104A1000088008BD40000020134A116841F400716D
:104A20001160114910390B6843F480730B600B68F7
:104A300043F020030B600D4B1860106840F020001D
:104A4000106000BF00BF00BF086840F02000086091
:104A5000086840F48070086000BF00BF00BF0868AD
:104A600040F40070086070472804004814080048AB
:104A70001449086840F400700860086840F48070C9
:104A8000086010481038026842F0200202600E4BA5
:104A900022221A600A6842F020020A6000BF00BFAA
:104AA00000BF016841F020010160016841F480719C
:104AB000016000BF00BF00BF016841F400710160E8
:104AC000704700002804004814080048184B10B52F
:104AD0001A6842F400721A601A6842F480721A600E
:104AE000134A103A146844F020041460114C2060FA
:104AF000186840F02000186000BF00BF00BF1068B9
:104B000040F020001060106840F480701060216058
:104B1000186840F02000186000BF00BF00BF106898
:104B200040F020001060106840F48070106010BDEC
:104B3000280400481408004800EB8100006E00F0D3
:104B4000F84070478068C0F3C00070478068C0F3C9
:104B500080007047042303EAD15310B51844436919
:104B6000C1F3045107248C40A3438A40134343619B
:104B700010BD00EB8100016E21F000411143016680
:104B8000704700001CB54BA14E48FBF71FFC4D4978
:104B90000020FFF789FEFCF751FD00EE100AB8EE89
:104BA000C00A10EE100A01F01DFD9FED471B53ECEB
:104BB000112B01F019FC9FED461B53EC112B01F05A
:104BC00013FC41EC100B44A153EC102B3D48FBF7B8
:104BD000FDFB3C491820FFF767FE4448C2888188E6
:104BE000CDE900124388028841A13648FBF7EEFB6D
:104BF00034493020FFF758FE3C4C203C608801F0DF
:104C0000DFFB9FED411B53EC112B01F0EDFB41EC61
:104C1000100B3FA153EC102B2A48FBF7D7FB294977
:104C20004820FFF741FEE06901F0DCFC41EC100B8D
:104C30003CA153EC102B2348FBF7C8FB2149602013
:104C4000FFF732FEA06901F0CDFC41EC100B39A159
:104C500053EC102B1B48FBF7B9FB1A497820FFF7E0
:104C600023FE1849002218313648FEF7D5F80022F5
:104C700004F114013348FEF7ADF81248183081787A
:104C800000914378027830A11838FBF79FFB0D495B
:104C90009020FFF709FE04F114002FA183784278D9
:104CA0000848FBF793FBBDE81C400649A820FFF726
:104CB000FBBD000020202020202020204441544122
:104CC0000000000048000020000000000000303F0D
:104CD0006666666666660A402020202020202052F4
:104CE00033373A25342E31660000000020000020C2
:104CF0002020454550524F4D3A25642C25782C25CF
:104D0000782C25780000000051DA1B7C6132E93FE5
:104D100020204D5350343031373A25342E31664BF4
:104D2000000000002020447574793A252E31662554
:104D3000250000002020467265713A252E31664814
:104D40005A000000E0000020202054696D653A25DB
:104D5000642D25642D2564002020446174653A3259
:104D60003032342D25642D256400000070B5124DBD
:104D7000044601224FF47F412846FDF798FA0F4E72
:104D8000012204213046FDF792FA00220421304628
:104D9000FDF78DFA210200222846FDF788FA01224C
:104DA00004213046FDF783FA3046BDE8704000220A
:104DB0000421FDF77CBA000000080048000C004800
:104DC00010B57F2001F0D3FA0A20FDF735F901F084
:104DD000BDFA0149488010BD00000020FEE7FEE753
:104DE000704730B501210020FFF770FE4FF47A7054
:104DF000FCF7C6FC00210120FFF768FE41F290712C
:104E00001020FFF763FE4FF41C516020FFF75EFE99
:104E100001216120FFF75AFE02214620FFF756FECE
:104E200048F210011320FFF751FE48F2FE01122054
:104E3000FFF74CFE4FF4A0610220FFF747FE41F25E
:104E400030010320FFF742FE40F2033421463020B8
:104E5000FFF73CFE21463120FFF738FE2146322085
:104E6000FFF734FEE51E29463320FFF72FFE03210E
:104E70003420FFF72BFE21463520FFF727FE1421B3
:104E80003620FFF723FE21463720FFF71FFE21467D
:104E90003820FFF71BFE21463920FFF717FE294671
:104EA0003A20FFF713FE03213B20FFF70FFE2146B8
:104EB0003C20FFF70BFE4FF4A0513D20FFF706FE0C
:104EC0004FF400719220FFF701FE21469320FFF777
:104ED000FDFD40F60D019020FFF7F8FD41F21801AD
:104EE0000320FFF7F3FDBDE8304040F273110720C7
:104EF000FFF7ECBD10B543F20801E320FFF7E6FD34
:104F00001221E720FFF7E2FD41F23121EF20FFF708
:104F1000DDFD00210120FFF7D9FD4FF4E061022003
:104F2000FFF7D4FD41F230010320FFF7CFFD002150
:104F30000420FFF7CBFD40F207210820FFF7C6FD54
:104F400000210920FFF7C2FD00210A20FFF7BEFD66
:104F500000210C20FFF7BAFD00210D20FFF7B6FD60
:104F600000210F20FFF7B2FD00211020FFF7AEFD5A
:104F700007211120FFF7AAFD00211220FFF7A6FD4F
:104F800000211320FFF7A2FDC820FDF755F841F2DC
:104F900090611020FFF79AFD40F227211120FFF7C2
:104FA00095FD3220FDF748F81D211220FFF78EFDF8
:104FB0003220FDF741F84FF400611320FFF786FD22
:104FC00014212920FFF782FD0B212B20FFF77EFD06
:104FD0003220FDF731F800212020FFF777FD002176
:104FE0002120FFF773FD07213020FFF76FFD40F20E
:104FF00007713120FFF76AFD06213220FFF766FDB9
:1050000040F204713520FFF761FD41F6047136204E
:10501000FFF75CFD04213720FFF758FD0021382001
:10502000FFF754FD40F206713920FFF74FFD40F2C3
:1050300001713C20FFF74AFD0F213D20FFF746FD9F
:1050400000215020FFF742FDEF215120FFF73EFDE8
:1050500000215220FFF73AFD40F23F115320FFF7A5
:1050600035FD4FF41C516020FFF730FD0121612018
:10507000FFF72CFD00216A20FFF728FD002180208A
:10508000FFF724FD00218120FFF720FD0021822071
:10509000FFF71CFD00218320FFF718FD002184206D
:1050A000FFF714FD00218520FFF710FD102190204F
:1050B000FFF70CFD00219220FFF708FD032193204C
:1050C000FFF704FD4FF488719520FFF7FFFC0021E6
:1050D0009720FFF7FBFC00219820FFF7F7FC41F237
:1050E00018010320FFF7F2FCBDE8104040F27311F5
:1050F0000720FFF7EBBC010901EB810100F00F0075
:1051000000EB4100C0B270470022014602E00A39BC
:10511000C9B2521C0A29FAD2100741EA106070473E
:105120002DE9F041044600680025C168490619D4FC
:10513000C16841F08001C160FDF7BEF806464FF43A
:105140007A78032708E000BFFDF7B6F8801B4045DA
:1051500002D9032584F825702068C068400601D470
:10516000032DF1D12846BDE8F08170B504460068F2
:105170000025C16821F08001C160206881694FF07D
:105180000306890607D42046FDF7A0FF98B184F8EE
:10519000256003250FE0816921F02001816120460F
:1051A000FDF794FF10B184F825600325206881691C
:1051B00041F020018161284670BD000010B586B025
:1051C00014216846FBF74CFA214800241F49059436
:1051D000C0E900147D21816041F27071C0E90314BF
:1051E0004FF080414461C0E906410462FDF73EFE94
:1051F00008B1FCF7E7FA14208DF8000046208DF87E
:10520000010020208DF802000194039401226946D8
:105210000F480494FDF7F4FE08B1FCF7D3FA02201E
:105220008DF8140004208DF8150009208DF8160063
:105230008DF81740012205A90548FDF791FE0028C9
:1052400001D0FCF7BFFA06B010BD000000280040F6
:10525000E000002008B1044801E003481030016874
:1052600041F04001016070471804004810B58021EA
:105270000348FDF717F8012800D0002010BD0000FA
:105280000004004800B585B014216846FBF7E8F932
:1052900080200090002001900120029002200390C5
:1052A00069460248FCF7DAFE05B000BD000400487C
:1052B00008B1044801E003481030016841F0800162
:1052C000016070471804004800B585B01421684695
:1052D000FBF7C6F980200090112001900020029079
:1052E0000220039069460248FCF7B8FE05B000BDF5
:1052F000000400487047FCF7E5BF10B594B03821B2
:105300006846FBF7ADF914210EA8FBF7A9F94FF495
:105310000070FDF769F80120009000040190022060
:105320000324CDE907041421CDE90A100C900D9057
:1053300009946846FDF74CFB08B1FCF743FA0F20CF
:10534000CDE90E04002010901190129002210EA8B9
:10535000FDF7F4F9002801D0FCF734FA14B010BDC1
:105360000248016841F470010160704788ED00E077
:1053700010B598B00024149415941C210DA816940F
:10538000FBF76EF934216846FBF76AF920481F499C
:1053900001604F21C0E901146321C0E90314802199
:1053A000C0E90541FEF734FB08B1FCF70BFA149491
:1053B00014A917481694FDF70FFF08B1FCF702FA7D
:1053C0003020CDE90D040F94109411941294002212
:1053D0000DA90F481394FEF7D7FA08B1FCF7F2F9BC
:1053E00000944FF40050CDE90440019402940394DA
:1053F0000694694606480C94FDF79CFE08B1FCF73C
:10540000E1F90348FEF788FA18B010BD00400140EA
:10541000EC0100200148FEF7ADB90000EC010020CE
:1054200010B58EB000240794089409940A940B9444
:105430000C941C2168460D94FBF712F91F484FF09D
:10544000804101604F21C0E9011440F2F311C0E92D
:10545000031480218161FDF70EFF08B1FCF7B2F95A
:105460004FF48050079007A91448FDF7FFFF08B1DB
:10547000FCF7A8F91148FEF7ADFB08B1FCF7A2F95B
:105480000B940BA90D480D94FDF7A6FE08B1FCF78F
:1054900099F9602000904FF4AA70CDE9010404222C
:1054A000694606480494FEF703FB08B1FCF78AF945
:1054B0000248FEF731FA0EB010BD000008010020CE
:1054C0000148FEF757B900005401002010B590B014
:1054D000002409940A940B94142104A80C94FBF75B
:1054E000BFF82D480D940F940E94009401940294EB
:1054F0002849039401604F21C0E901144FF6FF7160
:10550000C0E903148461FDF7B6FE08B1FCF75AF94F
:105510004FF48050099009A91F48FDF7A7FF08B173
:10552000FCF750F91C48FEF7F3F808B1FCF74AF90C
:10553000042004906020CDE9050404A916480894CD
:10554000FEF72FFC08B1FCF73DF90D940DA91248A8
:105550000F94FDF741FE08B1FCF734F902200090EA
:10556000CDE90104002269460B480394FEF73EF89A
:1055700008B1FCF727F90120CDE900400422694673
:105580000548FEF733F8002801D0FCF71BF910B0EE
:1055900010BD000000040040540100200148FEF747
:1055A000E9B80000A00100203EB500240F48009497
:1055B00001940D490294016041F63F71C0E9011464
:1055C000C9108461C160FDF756FE08B1FCF7FAF816
:1055D0000094694605480294FDF7FEFD002801D0BD
:1055E000FCF7F0F83EBD000000100040A0010020D4
:1055F0002DE9F0430268264B264D274E274C4FF0ED
:105600008049984207D0484505D0A84203D0B0420F
:1056100001D0A04203D122F070074A683A43204FDC
:10562000DFF880C0DFF8808098420DD048450BD06D
:10563000A84209D0B04207D0A04205D0B84203D05A
:10564000604501D0404503D122F44075CA682A4321
:105650004D6922F080022A4302608A68C2620A68A9
:105660008262984207D0A04205D0B84203D060457C
:1056700001D0404501D109690163012141610169FE
:10568000C90703D0016921F001010161BDE8F08380
:10569000002C01400004004000080040003401409C
:1056A00000400140004401400048014010B501F0B5
:1056B0001F030121046A99408C430462016A9A40E5
:1056C0001143016210BD10B5846842EA032224F43C
:1056D0007F440A432243826010BD00008268034B6E
:1056E0001A400A4342F00701816070478FFFCFFFE5
:1056F0002DE9F043056A026A22F001020262436862
:1057000082691C4C25F0020522400C6822F003023D
:1057100014438A68194E2A43174D194FDFF864C0A5
:10572000DFF86490A84207D0B04205D0B84203D059
:10573000604501D0484506D122F00808CA6842EA0F
:10574000080222F00402A84207D0B04205D0B842B5
:1057500003D0604501D0484505D14D6923F440731D
:105760001D438B692B434360846149684163026236
:10577000BDE8F0838FFFFEFF002C014000340140A4
:10578000004001400044014000480140F0B5056A76
:10579000026A22F01002026242688369194C1B4EB1
:1057A00023400C6823F4407343EA042425F02003CB
:1057B0008D6843EA0513144DA84201D0B04206D1CA
:1057C000CF6823F0800343EA071323F04003A84285
:1057D0000AD0B04208D00E4DA84205D00D4DA842C7
:1057E00002D00D4DA84207D14D6922F4406242EA31
:1057F00085028D6942EA850242608461496881635D
:105800000362F0BDFF8FFFFE002C01400034014019
:10581000004001400044014000480140F0B5056AE5
:10582000026A22F4807202624368C269194C1B4EFC
:1058300022400C6822F00302144325F400728D68A4
:1058400042EA0522144DA84201D0B04206D1CF68E9
:1058500022F4006242EA072222F48062A8420AD0BF
:10586000B04208D00E4DA84205D00E4DA84202D03D
:105870000D4DA84207D14D6923F4405343EA051367
:105880008D6943EA05134360C4614968C1630262DC
:10589000F0BD00008FFFFEFF002C014000340140EE
:1058A000004001400044014000480140F0B5056A55
:1058B000026A22F4805202624268C369194C1B4E8C
:1058C00023400C6823F4407343EA042425F4005376
:1058D0008D6843EA0533144DA84201D0B04206D189
:1058E000CF6823F4004343EA073323F48043A842FC
:1058F0000AD0B04208D00E4DA84205D00D4DA842A6
:1059000002D00D4DA84207D14D6922F4404242EA2F
:1059100085128D6942EA85124260C461496801645A
:105920000362F0BDFF8FFFFE002C014000340140F8
:1059300000400140004401400048014030B5056A84
:10594000026A22F4803202624268036D114C2340E5
:105950000C681C4325F400330D8943EA05430E4DC2
:10596000A8420BD00D4DA84208D00D4DA84205D03D
:105970000C4DA84202D00C4DA84204D14D6922F42E
:10598000803242EA0522426004654968816403620C
:1059900030BD00008FFFFEFF002C014000340140AD
:1059A00000400140004401400048014030B5046A15
:1059B000026A22F4801202624268036D114D24F4DF
:1059C00000142B400D6843EA05230D8944EA055471
:1059D0000D4DA8420BD00D4DA84208D00C4DA84249
:1059E00005D00C4DA84202D00B4DA84204D14D6900
:1059F00022F4802242EA8522426003654968C1643C
:105A0000046230BDFF8FFFFE002C014000340140D6
:105A100000400140004401400048014070B5056865
:105A20000024AA682E4B1A404B6813432D4A13409A
:105A30000A681A43AA604A68602A4AD00DDC302AF4
:105A40001FD005DCEAB1102A1BD0202A18D118E09B
:105A5000402A1FD0502A13D135E0234D531BAA42B0
:105A60000FD009DC702A0ED0B2F1101F09D0203AF5
:105A7000B2F5801F04D104E0102B02D0402B00D0DF
:105A80000124204670BD0B69D1E902210068FFF7AF
:105A90001AFEF6E70A68052A13D0B2F1011F10D0EA
:105AA0000268136A156A25F0010515620268956996
:105AB000096925F0F00545EA01119161006803626A
:105AC000DFE7012070BD0A698968006800F00EF800
:105AD000D7E70A698968006800F050F8D1E700004C
