:020000040800F2
:1000000018070020A1010008FB240008F7240008BD
:10001000F9240008B9130008C928000800000000EE
:10002000000000000000000000000000FF240008A5
:10003000BB13000800000000FD2400080125000893
:10004000BB010008BB010008BB010008BB010008A0
:10005000BB010008BB010008BB010008BB01000890
:10006000BB010008BB010008BB010008BB01000880
:10007000BB010008BB010008BB010008BB01000870
:10008000BB010008BB010008BB010008BB01000860
:10009000BB010008BB010008BB010008BB01000850
:1000A000BB010008BB010008BB010008BB01000840
:1000B000BB010008BB010008BB010008BB01000830
:1000C000BB010008BB010008BB010008BB01000820
:1000D000BB010008F9270008BB010008BB010008AC
:1000E000BB010008BB010008BB01000800F002F8DA
:1000F00000F047F80AA090E8000C82448344AAF17B
:100100000107DA4501D100F03CF8AFF2090EBAE878
:100110000F0013F0010F18BFFB1A43F0010318473B
:10012000102D0000302D0000103A24BF78C878C18F
:10013000FAD8520724BF30C830C144BF04680C60ED
:10014000704700000023002400250026103A28BF35
:1001500078C1FBD8520728BF30C148BF0B60704739
:10016000662902F09485002070471FB500F054FB0B
:1001700004000020002102F0EBFBE0601FBD10B581
:1001800010BD00F049FC1146FFF7EFFF02F0D4FB71
:1001900000F067FC03B4FFF7F2FF03BC00F0AAFC19
:1001A0000948804709480047FEE7FEE7FEE7FEE70B
:1001B000FEE7FEE7FEE7FEE7FEE7FEE70448054947
:1001C000054A064B704700006D250008ED00000849
:1001D0001801002018070020180300201803002031
:1001E0000FB41CB5084B06AA7B44694600900598DD
:1001F00000F0F9FA04460020694600F007FB2046AB
:100200001CBC5DF814FB00002106000070B504461C
:1002100085690068C10601D5302600E02026C007A8
:1002200007D070BDD4E9012130469047206A401CB8
:1002300020626D1EF6D570BD70B5044685690078E4
:10024000C00707D170BDD4E9012120209047206A62
:10025000401C20626D1EF6D570BD2DE9F0474FF0B1
:10026000000A89460446C0F820A02046E168884775
:10027000002876D0252806D0D4E901219047206AAD
:10028000401C2062F1E7E168204600258847C4F859
:100290001CA006460027C4F818A02A2E09D0304614
:1002A00002F037FB38B304EB8708303EC8F818601B
:1002B00019E059F8041B204604EB87029161E168BC
:1002C0008847012F064618D1E069002820DA25F07A
:1002D00020051DE0D8F8180000EB800006EB400078
:1002E0003038C8F818002046E1688847064602F012
:1002F00010FB0028EED1012F0AD02E2E08D1204667
:10030000E16888477F1C0646022F45F02005C4DBC4
:10031000A069002803DA404245F00105A061E80722
:1003200001D025F01005B6B1A6F14100192802D878
:10033000203645F400654A463146204625604D4644
:10034000FFF70EFF58B1012806D0ED1D25F007007C
:1003500000F1080989E704E005F1040985E7304662
:100360008AE7206ABDE8F0874FF0000200B5134627
:1003700094469646203922BFA0E80C50A0E80C50C5
:10038000B1F12001BFF4F7AF090728BFA0E80C5076
:1003900048BF0CC05DF804EB890028BF40F8042B6F
:1003A00008BF704748BF20F8022B11F0804F18BFDC
:1003B00000F8012B704770477047704770472DE970
:1003C000FF4F0C461E464FF0FF378BB0D2E90001BD
:1003D000DDF860800A908A46C1F30A5505B93D46AA
:1003E000002108464FF00000BAF1000F00F4400071
:1003F00005DA00EB80004FF4400101EA50004FEABB
:100400009059B9F1010F00DDB9460A9850EA4A0047
:100410000ED044F61050A5F2FF3545432F14B8F125
:10042000000F1ED07542291E1EDDC9F100021CE01E
:10043000B8F1010F4FF0000001D0302103E0F2438A
:1004400005E02154401CB042FBDB30460022002175
:1004500021540B99C1F80880C1E900200FB0BDE814
:10046000F08FBD1B6D1CDEE74A4600DA694206A824
:1004700000F05CFA06AB93E8070003AB83E80700E3
:1004800050460A9900F03DFB8DE80700A0F50050AA
:100490001F3800900398002D0ADD42F21F014A46E2
:1004A0000844002303A90390684600F0A6FD09E074
:1004B000A0F500504A461F38002303A90390684660
:1004C00000F0B0FD8DE807000004000C03D04FF0F1
:1004D000FF30410800E01046B8F1000F03D00022C1
:1004E000009215461EE0751E05D400F099F93032D1
:1004F00062556D1EF9D5B3460122084302D0002291
:100500007F1C04E02078302801D100227F1E002AC1
:10051000099784D01DE0112D07DA00F081F93032FF
:1005200062556D1C50EA0102F5D1084302D00098D3
:10053000C8B10EE00021681E05E0235C625C6354D4
:100540002254401E491C8142F7DBAB46A81B401ECB
:100550000990002004F80B000B98099AC0F8088055
:10056000C0E9002B7AE711264FF0000857E72DE984
:10057000F04F88460446D21D22F0070191B0D1E920
:100580000001CDE90A0102F0A0F902460B98C00F64
:1005900001D02D2007E02068810701D52B2002E043
:1005A000202101EAC000032A099001D0072A05DBB7
:1005B00003464146204600F079F90BE12078800699
:1005C00001D5E06900E00620B8F1650F814606D04C
:1005D000B8F1660F18D0B8F1670F70D131E0002084
:1005E000B9F1110F009001DB112301E009F10103C2
:1005F0000AAA01A90CA8FFF7E2FEDDE90C700026AB
:1006000009F10105834647E001204B4600904FF079
:1006100000470AAA01A90CA8FFF7D1FEDDE90DB039
:100620000C995D46002610B909F101000D18B9EBCF
:10063000050003D4C0F1FF3609F10105A5EB09005F
:100640002BE0B9F1010F01DA4FF001090020B9F1F7
:10065000110F0090484601DD112300E003460AAA6D
:1006600001A90CA8FFF7ABFEDDE90C704D46002692
:100670008346207800070AD4AB4500DA5D4601A81E
:10068000012D04DD411911F8011C302907D04F4517
:1006900002DA17F1040F04DA012082460FE06D1E22
:1006A000EEE7002F02DCED1B3E4403E0781CA8427D
:1006B00000DD7D1CB81B00F1010A4FF000472078D7
:1006C000000703D4AA4501DB4FF0FF3A0021B7F140
:1006D000004F0DF143088DF8431024D002202B2346
:1006E000002F01DA7F422D230A21021EA0F1010012
:1006F00000DC5FB197FBF1FC97FBF1F201FB1C7C86
:1007000017460CF1300C08F801CDEEE7A8F1010016
:1007100003702188090501D5452100E06521A0F17C
:10072000010800F8011C09980FA9A1EB0807FF1D9B
:1007300000B10120411901EBEA70A1693844081A9F
:10074000401EA0612078C00602D42046FFF75EFD5F
:10075000099828B1D4E901219047206A401C206201
:100760002078C00622D52046FFF750FD1EE0002E5F
:1007700004DBB34502DD01A8805D00E03020D4E950
:1007800001219047206A401C2062761CAAF10100DA
:100790005FEA000A0AD100F03FF8C0680168405CD7
:1007A000D4E901219047206A401C2062281EA5F14F
:1007B0000105DCDC07E0D4E9012118F8010B9047C2
:1007C000206A401C2062381EA7F10107F3DC204696
:1007D000FFF732FD032011B041E6000001694A1C19
:1007E00002610878704700B58FB0CDE90131002172
:1007F000059105497944CDE9031011466846FFF794
:100800002CFD0FB000BD0000E5FFFFFF0A6802F8F5
:10081000010B0A607047000000487047D8000020B4
:1008200030B5B0F10A024FEA900E71F100034EEAC2
:10083000817EB0EB0E0061EB91014FEA101E4EEA93
:10084000017E10EB0E0041EB11114FEA102E4EEA23
:10085000016E10EB0E0041EB11214FEA104E4EEAF3
:10086000014E10EB0E0041EB1141401841F1000127
:100870004FEAD00040EA41704FEAD10110EB800509
:100880004FEA810444EA907444EB01046D1944EB8F
:100890000404521BA3414FF0000348BF0A3200D5A5
:1008A00030BD401C41F1000130BD00002DE9F04198
:1008B0001F46044603260168072A01F4006004DB92
:1008C00008B116A505E016A503E008B115A500E0DE
:1008D00015A521F010002060A069C01EA0610FB115
:1008E000401EA0612046FFF791FC4FB1D4E90121E1
:1008F00038469047206A401C2062C01C206206E0F7
:10090000206AFAE7D4E9012115F8010B9047761E19
:10091000F8D22046FFF790FCBDE8F0814E414E0032
:100920006E616E00494E4600696E66002DE9F04723
:10093000814616468AB0354878440DC88DE80D00CA
:1009400032487844801C03AC0DC884E80D0041F6A1
:100950009B300844372190FBF1F290FBF1F5A5F1B3
:10096000800501FB12041B3C02D56442012000E01B
:100970000020DFF898A080460027FA44AAF1BE0ABA
:100980000EE0E0070AD03246684607EB4701012334
:100990000AEB810100F046FB8DE8070064107F1C24
:1009A000002CEED1194F7F44AE3F19E0E80715D077
:1009B00007EB04100DF1180A90E80E008AE80E000B
:1009C000C068F04201D1981908903246012306A967
:1009D00003A800F027FB03AB83E807006D10641C3D
:1009E000002DE3D14FF0010332466946B8F1000F04
:1009F00003A802D000F001FB01E000F013FBC9E9FD
:100A00000001C9F808200AB0BDE8F087DC24000026
:100A100000487047B80000207546FFF7F9FFAE4662
:100A200005006946534620F00700854618B020B5FA
:100A3000FFF7C4FBBDE820404FF000064FF0000771
:100A40004FF000084FF0000B21F00701AC46ACE876
:100A5000C009ACE8C009ACE8C009ACE8C0098D46E3
:100A6000704710B50446AFF300802046BDE8104043
:100A7000FFF790BB4FF0013C50F8042B51F8043BBA
:100A80009A4221D1A2EB0C03934313EACC1317D162
:100A900050F8042B51F8043B9A4215D1A2EB0C03F9
:100AA000934313EACC130BD150F8042B51F8043BB9
:100AB0009A4209D1A2EB0C03934313EACC13DBD087
:100AC0004FF00000704700BFD01A01BAB1FA81F1AF
:100AD00001F0180122FA01F0CB40C1F12001DBB294
:100AE000C0B2C01A2CFA01F3D11A914311EAC31112
:100AF000E6D1704701491820ABBEFEE72600020090
:100B000070475FEA400C08BF91F0000F4FEA8C235A
:100B10004FEAC12243EA51514FEA1C5018BF00F579
:100B2000F0404FEA300018BF41F000415FEA6C5CD2
:100B300000F02980BCF1FF3F08BF40F080407047C3
:100B4000130C06BF12044FF0100C4FF0000C130EE4
:100B500004BF12020CF1080C130F04BF12010CF1B8
:100B6000040C930F04BF92000CF1020CD30F04BFCE
:100B700052000CF1010C11464FF00002A0F11F00D1
:100B8000A0EB0C00704711F0004F08BF704731F028
:100B900000413FF4D5AF0B0C06BF09044FF0100C19
:100BA0004FF0000C0B0E04BF09020CF1080C0B0FE8
:100BB00004BF09010CF1040C8B0F04BF89000CF178
:100BC000020CCB0F04BF49000CF1010CCCF1200347
:100BD000A0EB0C0022FA03F302FA0CF241EA030143
:100BE00000F10100704720F07F4C80EA030023F001
:100BF0007F47ACEB070303F57C5300F0004003F1A3
:100C0000FF032DE980494FEA154B09B44FEA14431D
:100C100025EA0B4E24EA03480FF2042606EB1327BD
:100C200049083E785FEA320203FB0667C7F5000712
:100C300007FB06F64FEA54374FEAD64606F102069E
:100C400007FB066CCCF1005C4FEA1C472CEA074C12
:100C500007FB06F40CFB06F504EB15464FEA961667
:100C600034BF00204FF000404FEAD13706FB07FCAD
:100C70004FEA1C4C0CFB0BF7D21B03FB0CF761EB90
:100C800007010CFB0EF7B0EB074072EB17420CFBB1
:100C900008F734BFA2EB0742B2EB074261EB174102
:100CA0004FEA0C444FEA910706FB07FC4FEA1C4C45
:100CB0000CFB0BF7B0EBC74072EB573203FB0CF7A2
:100CC00034BFA2EBC742B2EBC74261EB57310CFB1A
:100CD0000EF7B0EBC70072EB57720CFB08F734BF8E
:100CE000A2EBC702B2EBC70261EB5771039F4FEA59
:100CF000816141EA921104EBCC044FEAD1374FEA0B
:100D0000826206FB07FC42EA90124FEA80604FEADB
:100D10001C4C0CFB0BF7D21B03FB0CF761EB070120
:100D20000CFB0EF7B0EB074072EB17420CFB08F719
:100D300034BFA2EB0742B2EB074261EB17414FEA27
:100D40008C554FEA910704EB9C2406FB07FC4FEA05
:100D50001C4C0CFB0BF7B0EBC74072EB573203FB9C
:100D60000CF734BFA2EBC742B2EBC74261EB57317D
:100D70000CFB0EF7B0EBC70072EB57720CFB08F7D9
:100D800034BFA2EBC702B2EBC70261EB577115EBA0
:100D90004C254FEA816141EA92114FEA82624FEAA3
:100DA000D13742EA901206FB07FC44F100044FEAF7
:100DB00080604FEA1C4C0CFB0BF7D21B03FB0CF7BB
:100DC00061EB07010CFB0EF7B0EB074072EB17422B
:100DD0000CFB08F734BFA2EB0742B2EB074261EB12
:100DE000174115EB1C154FEA813141EA92414FEA58
:100DF000823242EA90424FEA80304FEA0C7644F168
:100E0000000448EA03434EEA0B484FF0000EB2EBF1
:100E1000080C71EB030724BF624639464EEB0E0EF9
:100E20004FF0000B0018524149414BEB0B0BB2EB5A
:100E3000080C71EB03077BF1000B24BF62463946B7
:100E40004EEB0E0E4FF0000B0018524149414BEB98
:100E50000B0BB2EB080C71EB03077BF1000B24BF0B
:100E6000624639464EEB0E0E51EA020718BF46F0B5
:100E7000010616EB0E7655F1000254F1000103D580
:100E8000BDE88901BDE80088BDE88901BDE80048EA
:100E9000B619524141EB0101A3F101037047808073
:100EA0007F7E7D7C7B7A79787776767574737271C4
:100EB00071706F6E6E6D6C6C6B6A6A69686867667C
:100EC00066656464636362616160605F5F5E5E5D0E
:100ED0005D5C5C5B5B5A5A59595858575756565582
:100EE00055555454535352525251515050504F4FE4
:100EF0004F4E4E4D4D4D4C4C4C4B4B4B4A4A4A4934
:100F00004949484848474747474646464545454476
:100F10004444444343434342424242414141002B03
:100F20009C4630D477002BD01CB54FEA370703B46A
:100F30004FF010004FF01001BAF1000F06D0BCF1D5
:100F4000000FDCBF40F0080040F008014FF0000047
:100F50000FBCBDE810400BF1010BBBF1010F08BF46
:100F60005FEA170722BF12F1010211F101014FF0F0
:100F7000004143F1000300F0004043EA00007047E5
:100F8000F9D35708D0E746EA064613F1400F4FEA77
:100F900016461FDD13F1200FDFBF16430A4600215E
:100FA00020335B42BED0C3F1200746EA064602FA70
:100FB00007F74FEA164646EA0706C3F1200722FA6A
:100FC00003F201FA07F721FA03F14FF0000342EAB6
:100FD0000702A7E746EA020646EA06464FEA164631
:100FE00046EA0106BCBF46EA0646360C4FF000034F
:100FF0004FF000024FF0000194E72DE9804C9A4633
:10100000934670B491E8380007C831EA400C48BFF5
:1010100034EA430C03D5FFF7E6FDFFF780FFF0BC91
:10102000BDE8008C2DE9804C9A46934670B491E857
:10103000380007C810F0804F08BF13F0804F03D16D
:1010400000F005F8FFF76BFFF0BCBDE8008C20F066
:101050007F4780EA030023F07F4C07EB0C03A3F5E6
:101060007C5300F00040A3F1FE0392F0000F00F06B
:10107000B38095F0000F00F077802DE901494FEA29
:1010800011404FEA144621EA004800FB06FC24EA1E
:10109000064708FB06F607FB08F800FB07F718EB06
:1010A00006484CEB164C4FEA124B18EB07484FEA38
:1010B00015464CEB174022EA0B4E0BFB06FC25EACB
:1010C00006470EFB06F607FB0EFE0BFB07F71EEBB3
:1010D000064E4CEB164C4FF000061EEB074E4CEB49
:1010E000174B18EB0B0840F1000018EB0E0B58EBF8
:1010F000000840F100008F1A4FF000013CBFC943C7
:10110000661B14BFB5EB040C00213CBFC943F61BA2
:101110004FEA17444EEA8E0E27EA04454FEA1C4771
:1011200004FB07622CEA074C05FB07F70CFB05F6EE
:1011300004FB0CFC16EB074642EB174216EB0C4681
:1011400042EB1C421BEB060658EB0202414146EA09
:101150009E0601D5BDE80189B619524141EB010156
:10116000A3F10103BDE801894FEA14454FEA114795
:1011700024EA054621EA074C05FB07F406FB07F7BE
:101180000CFB06F105FB0CFC11EB074144EB17448B
:101190004FEA124711EB0C4144EB1C4422EA074C86
:1011A00005FB07F206FB07F70CFB06F605FB0CFC3C
:1011B00016EB074642EB174216EB0C4642EB1C457A
:1011C0006A1854F1000148BF7047B619524141EB0B
:1011D0000101A3F10103704795F0000F37D04FEAEA
:1011E00011424FEA144721EA024624EA074C02FB67
:1011F00007F106FB07F70CFB06F402FB0CFC14EBF3
:10120000074441EB17414FEA154714EB0C4441EBFF
:101210001C4125EA074C02FB07F506FB07F70CFB10
:1012200006F602FB0CFC16EB074645EB174516EBE2
:101230000C4645EB1C42121951F1000148BF7047A2
:10124000B619524141EB0101A3F1010370474FEA86
:1012500014454FEA114724EA054621EA074C05FBED
:1012600007F106FB07F70CFB06F24FF0000605FB43
:101270000CFC12EB074241EB174112EB0C4251EB15
:101280001C4148BF7047921841EB0101A3F10103D3
:10129000704700003EB50024114800940194029468
:1012A0000E498460016001250573047505614FF4E2
:1012B00060214460C16100F005F908B100F07EF8DA
:1012C0000320CDE9000569460294054800F078F84E
:1012D000002801D000F072F83EBD0000002401405B
:1012E0008800002070B5044600688168C943C907BA
:1012F00017D1816821F00101816000F05DFB054696
:101300000AE000BF00F058FB401B022804D9206807
:101310008068C043C00706D020688068C043C0070B
:10132000F0D0002070BDA06A40F01000A062E06A1A
:1013300040F00100E062012070BD0000F8B5002619
:101340000446009600688168C943C9072DD08168AA
:1013500041F001018160164816490068B0FBF1F0C8
:1013600000E0401E00900028FBD100F025FB054660
:1013700016E000BF00F020FB401B022810D92068B7
:101380008068C043C0070BD0A06A40F01000A06284
:10139000E06A40F00100E06284F824600120F8BDBA
:1013A00020688068C043C007E4D10020F8BD000079
:1013B0000C00002040420F00FEE7704772B6FEE7C7
:1013C000F8B50024009490F824202546012A12D074
:1013D000012280F824204A681F23072A0DD20668BC
:1013E000776B521E02EB820293409F430B6893403F
:1013F0001F43776319E00220F8BD06680D2A0AD260
:10140000376BD21F02EB820293409F430B689340DD
:101410001F43376309E0F76A0D3A02EB82029340FB
:101420009F430B6893401F43F7620A6807230668CF
:101430000A2A0AD3F7680A3A02EB420293409F4312
:101440008B6893401F43F76008E0376902EB420264
:1014500093409F438B6893401F4337610A68102A6B
:1014600001D0112A20D1124B02689A4217D19368F9
:101470001B0219D4936843F4000393600968102990
:1014800012D10C490C4A0968B1FBF2F101EB810160
:10149000490000E0491E00910029FBD104E0816A67
:1014A00041F020018162012480F824502046F8BDDB
:1014B000002401400C00002040420F000068C06C76
:1014C000704700002DE9F0414FF0000704003D4651
:1014D0007ED0A06A002628B9E66284F824602046FF
:1014E00000F07EF82046FFF7FDFEA16AC90600D491
:1014F00020B1A06A40F01000A06269E0A16A21F466
:10150000885141F00201A1626268E169237B0A43CC
:1015100047EA43010A43A1684FF48077B94209D0F2
:10152000012907D05FF0000194F814C0BCF1010F4D
:1015300002D00AE03946F7E7F3B1A36A43F020038B
:10154000A362E36A43F00103E3622368D3F804C0B3
:101550002CF4694C4CEA010CC3F804C021688B6878
:10156000DFF870C003EA0C0313438B60A168B94233
:101570000BD0012909D00CE0DFF85CC0A3690CEBAB
:1015800043330B4343F40061DFE7218A0D05A5F5E2
:1015900080152168CB6A23F470032B43CB6221684A
:1015A00089680E4B1940914208D1E662A16A21F088
:1015B000020141F00101A162BDE8F081A06A20F0C2
:1015C000020040F01000A062E06A40F00100E0621A
:1015D0000120F1E7FDF7E1FF00E0FFFFFE0E1FFF36
:1015E00000B585B00021009101910291039100683E
:1015F0000E49884218D10E48816941F40071816119
:10160000816901F400710491816941F004018161F3
:101610008069694600F004000490082000900320CF
:101620000190044800F0D8F805B000BD0024014046
:10163000001002400008014070B5044690F82400F4
:1016400001280DD0012084F824002046FFF776FE03
:1016500002004FF0000005D084F82400104670BD51
:10166000022070BDA16A40F20123994341F48071C8
:10167000A1621F4D23681F49AB4218D10E6816F4B2
:10168000702F14D0A66A46F48016A6620E687605FE
:1016900005D5A66A26F4005646F48056A662A66AC8
:1016A000F6040AD5E66A26F00606E66206E0A66AB1
:1016B00026F48016A6625E68E9E7E06284F82400FA
:1016C0006FF00200186020688368C3F34243072B61
:1016D00005D1A84208D1096811F4702F04D081689F
:1016E00041F480118160B9E7816841F4A001F9E714
:1016F000002801400424014010B590F82110002278
:10170000022905D00421816380F82020012010BD2A
:1017100001680B6823F00E030B6001680B6823F06F
:1017200001030B6090F84030C46B012101FA03F310
:10173000636080F8211080F82020104610BD000062
:1017400010B590F821100024022903D004218163F0
:1017500001243DE001680A6822F00E020A60016877
:101760000A6822F001020A601A4A0168914201D116
:10177000012121E0174A1432914201D110211BE0CE
:10178000144A2832914201D1891515E0114A3C32A0
:10179000914201D189140FE00E4A5032914202D198
:1017A0004FF4803108E00B4A6432914202D14FF489
:1017B000801101E04FF08071064A083A5160012122
:1017C00080F82110002180F82010416B01B188477A
:1017D000204610BD080002402DE9F84FDFF8B8910F
:1017E0000024A9F1040B23460F2709F1040AABF1E9
:1017F000040EC9E00125A5402A40AA427DD1674ECA
:10180000D1F804C0ACEB0608B44532D014DCBCF10E
:10181000030F3AD009DCBCF1000F2AD0BCF1010F54
:101820001CD0BCF1020F31D11DE0BCF1110F17D05B
:10183000BCF1120F2AD119E0B8F5881F19D006DCC7
:10184000B8F5803F15D0B8F5801F1FD111E0B8F56D
:10185000001F0ED0B8F5041F18D10AE0CB6815E0C0
:10186000CB681B1D12E0CB6808330FE0CB680C334C
:101870000CE08B682BB1012B4FF0080303D04561BE
:1018800004E0042302E0056100E00023FF2A01D800
:10189000064601E000F104064FEA840501D9A5F1EE
:1018A0002005D6F8008007FA05FC28EA0C0803FAA0
:1018B00005F548EA0508C6F800804D68ED0062D5D8
:1018C000374DAE6946F00106AE61AD6924F00306FE
:1018D00005F001050095334D06EB050CDCF80850CA
:1018E000A607360F07FA06F825EA0805DFF8B880DC
:1018F000404503D14FF0000817E044E0DFF8AC802A
:10190000404502D14FF001080FE0DFF8A4804045C8
:1019100002D14FF0020808E0DFF89880404502D17C
:101920004FF0030801E04FF0040808FA06F848EA0F
:101930000508CCF808804D68D9F80060ED024D46E6
:1019400001D5164300E096432E604D68DAF800603A
:10195000AD02554601D5164300E096432E604D6812
:10196000DBF80060AD035D4601D5164300E0964309
:101970002E604D68DEF80060ED03754601D5164314
:1019800000E096432E60641C0D682A46E5407FF413
:1019900031AFBDE8F88F00000804014000001110CD
:1019A000001002400000014000080140000C01400E
:1019B0000010014000140140014880687047000099
:1019C000000000200248816802781144816070475D
:1019D00000000020074810B5016841F010010160C7
:1019E000032000F079F8002000F006F800F024F859
:1019F000002010BD0020024070B50D4D04464FF48C
:101A00007A712878B1FBF0F00A490968B1FBF0F06F
:101A100000F056FB48B9102C07D200221146501E88
:101A200000F03AF800206C6070BD012070BD00002D
:101A3000000000200C0000200E4808B5816941F02C
:101A400001018161816901F001010091C16941F0E9
:101A50008051C161C06900F080500090052000F005
:101A60003BF80548416821F0E06141F000714160B8
:101A700008BD00000010024000000140002809DB02
:101A800000F01F02012191404009800000F1E02098
:101A9000C0F8001170470000F0B40E4B1B680C46F4
:101AA000C3F30223C3F10705042D00D90425191D32
:101AB000072901D2002300E0DB1E012606FA05F10A
:101AC000491E214099409E40761E16403143F0BC8D
:101AD00000F00FBF0CED00E0064900F007020868B7
:101AE0004FF6FF03184040EA0220034A1043086003
:101AF000704700000CED00E00000FA052DE9F84306
:101B000005460078354CC00754D0E0690026C00077
:101B100008D4E06940F08050E061E069012600F0FF
:101B2000805000902E480168C90512D40168804693
:101B300041F480710160FFF73FFF074605E000BFF9
:101B4000FFF73AFFC01B642823D8D8F80000C0056F
:101B5000F6D5206A10F4407021D0A98801F44071B4
:101B600081421CD0206A1F49012220F440700A6083
:101B700000220A602062C00711D0FFF71DFF074650
:101B800041F2883808E000BFFFF716FFC11B41454E
:101B900002D90320BDE8F883206A8007F4D5206AC3
:101BA000696820F44070084320621EB1E06920F0AB
:101BB0008050E0612878800705D56068A96820F426
:101BC0004040084360602878C00605D56068E96831
:101BD00020F48000084360600020DBE70010024032
:101BE00000700040400442422DE9F0470F460500D6
:101BF00061D0434E306800F00700B84209D2306827
:101C000020F0070038433060306800F00700B84229
:101C100051D128683B4C810712D5400703D5606835
:101C200040F4E06060602878000703D5606840F405
:101C3000605060606068A96820F0F0000843606050
:101C40002878C00728D06868012810D021680228A9
:101C500010D0890700292EDA616821F003010143C1
:101C60006160FFF7A9FE804641F288390DE02168E6
:101C70008903EFE78901EDE7FFF79EFEA0EB08017E
:101C8000494502D90320BDE8F0876068696800F023
:101C90000C00B0EB810FEFD1306800F00700B842C4
:101CA0000BD9306820F0070038433060306800F00E
:101CB0000700B84201D00120E5E72878400705D5A4
:101CC0006068E96820F4E0600843606028780007F5
:101CD00006D56068296920F4605040EAC100606060
:101CE00000F038F86168084AC1F30311515CC8403C
:101CF0000649086006480068FFF77EFE0020C2E73C
:101D00000020024000100240842D00080C0000203A
:101D1000040000200448054900684968044AC1F3EA
:101D20000221515CC84070470C00002000100240A6
:101D3000942D00080448054900684968044AC1F325
:101D4000C221515CC84070470C00002000100240C6
:101D5000942D00080E4A51680E4801F00C03042B24
:101D600011D0082B0FD10C48C1F38343C903C05CC9
:101D70000AD55168084AC1F34041921E515C054A98
:101D80005043B0FBF1F070470449484370470000EE
:101D90000010024000127A00742D000800093D0076
:101DA0002DE9F84F040070D02078C04DC00749D00D
:101DB0006868C0F38100012807D06868C0F381001B
:101DC000022809D16868C00306D52868800339D580
:101DD00060680028E7D035E06068B0F5803F0BD040
:101DE00010B1B0F5A02F11D0286820F48030286001
:101DF000286820F4802002E0286840F480302860C1
:101E0000606890B1FFF7D8FD06460AE0286840F404
:101E100080202860F0E700BFFFF7CEFD801B64281C
:101E200073D828688003F7D50CE0FFF7C5FD064698
:101E300005E000BFFFF7C0FD801B6428F0D82868CC
:101E40008003F7D420789A4E80074FF001094FF0B5
:101E5000000839D5686810F00C0F07D06868C0F327
:101E60008100022809D16868C00306D42868800769
:101E700014D52069012808D110E02069B0B1C6F856
:101E80000090FFF799FD074605E00AE1FFF794FD92
:101E9000C01B0228C4D828688007F7D52868616964
:101EA00020F0F80040EAC10028600DE0C6F800808C
:101EB000FFF782FD074604E0FFF77EFDC01B022806
:101EC00023D828688007F7D4207800072CD57948D4
:101ED000A169D9B1C0F80090FFF76EFD074604E094
:101EE000FFF76AFDC01B02280FD8686A8007F7D584
:101EF00071484FF4FA510068B0FBF1F0009000BF58
:101F00000098411E0091FAD20EE080E0C0F80080F7
:101F1000FFF752FD074604E0FFF74EFDC01B022805
:101F200075D8686A8007F7D42078400760D5E869DB
:101F30000027C00008D4E86940F08050E861E869F3
:101F4000012700F0805000905C480168C90513D457
:101F50000168834641F480710160FFF72DFD8246E0
:101F600006E000BFFFF728FDA0EB0A0064284ED86A
:101F7000DBF80000C005F5D5E06801280AD008B1FB
:101F8000052813D0286A20F001002862286A20F072
:101F9000040002E0286A40F001002862E06841F293
:101FA000883B98B1FFF708FD82460BE0286A40F0B5
:101FB00004002862EEE700BFFFF7FEFCA0EB0A0179
:101FC00059455AD8286A8007F6D50CE0FFF7F4FC8B
:101FD000824605E0FFF7F0FCA0EB0A0159454CD81A
:101FE000286A8007F6D41FB1E86920F08050E861C4
:101FF000E06988B36968C1F38101022944D00228ED
:10200000C6F8608004D0FFF7D7FC044638E034E01F
:10201000FFF7D2FC074604E0FFF7CEFCC01B022806
:102020002BD828688001F7D4206AB0F5803F05D10D
:102030006868A16820F4003008436860D4E90801AA
:102040000843696821F4741108436860C6F8609019
:10205000FFF7B2FC044606E025E000BFFFF7ACFC4A
:10206000001B022809D828688001F7D51BE000BFB3
:10207000FFF7A2FC001B022802D90320BDE8F88F5D
:1020800028688001F4D40EE00128F7D06868226A3D
:1020900000F48031914204D1616A00F470108842EA
:1020A00001D00120EAE70020E8E70000001002402C
:1020B00000004242800442420C00002000700040B8
:1020C00010B5401EB0F1807F01D3012010BD4FF04C
:1020D000E02460610F21601700F00BFC0020A0617C
:1020E00007202061002010BD70477047F8B50168D7
:1020F00004460868CA684B6910F00F0F4FF00005DE
:1021000059D003F0010602F49077374365D0C10738
:1021100005D0D10503D5616C41F00101616441072F
:1021200005D5D90703D0616C41F0020161648107D4
:1021300005D5D90703D0616C41F004016164010742
:1021400007D502F02001314303D0616C41F0080152
:102150006164616C00293AD0800604D5900602D5EE
:10216000204600F033FA20684069616CC0F38010AB
:10217000090700D460B3204600F001FA20684069E6
:10218000400621D52068143050E8001F21F040019E
:1021900040E80012002AF5D1E06BA8B16D49416317
:1021A000E06BFFF7CDFA002811D0E06B416B01B076
:1021B000BDE8F040084783060FD593060DD52046AD
:1021C000BDE8F84000F002BA2046FFF78EFFF8BDE8
:1021D0002046FFF78AFF6564F8BD266B2023012E99
:1021E0007CD1C6067AD5D60678D5086848680090AE
:1021F00048694FF00206400640D5E16B0868406828
:102200000004000CE8D0A28D8242E5D9E0858869FF
:1022100020282DD020680C3050E8001F21F4807158
:1022200040E80012002AF5D12068143050E8001F61
:1022300021F0010140E80012002AF5D12068143095
:1022400050E8001F21F0400140E80012002AF5D1BB
:1022500084F84230256320680C3050E8001F21F0DC
:10226000100140E80012002AF5D1E06BFFF744FAB4
:102270006663A08DE18D401A81B22AE0A08DE18DC8
:10228000401A81B2E08D0028A6D00029A4D022688F
:102290000C3252E8000F20F4907042E80007002F43
:1022A000F5D12068143050E8002F22F0010240E8F8
:1022B0000027002FF5D184F84230256320680C30C8
:1022C00050E8002F22F0100240E80023002BF5D147
:1022D00066632046FFF708FFF8BDFFE705062BD52C
:1022E000150629D594F841002128F5D1A068B0F54C
:1022F000805F01D12069B0B1206A411C2162216850
:1023000000784860E08C401E0004000CE084E3D1BB
:102310002068C16821F08001C1602068C16841F077
:102320004001C160D8E7206A0088C0F30800486017
:10233000206A801C2062E5E74006CDD55006CBD54B
:10234000CA68204622F04002CA6084F8413000F09A
:10235000D1F8C1E76F25000870B5040004D094F8E7
:102360004100002510B106E0012070BD84F8405006
:10237000204600F023F8242084F841002068C1683A
:1023800021F40051C160204600F082F92068016903
:1023900021F4904101612068416921F02A014161E5
:1023A0002068C16841F40051C1606564202084F850
:1023B000410084F842006563002070BD30B585B0EF
:1023C0000024009401940294039400681849884200
:1023D0002CD11848816941F480418161816901F4FF
:1023E00080410491816941F0040181618069124D4D
:1023F00000F0040004904FF400700090022001905F
:102400000320039069462846FFF7E6F92815CDE931
:102410000004694628460294FFF7DEF900220121F4
:102420002520FFF739FB2520FFF728FB05B030BD3D
:1024300000380140001002400008014090F842308E
:10244000202B01D00220704721B11AB10023036371
:1024500000F07AB90120704770472DE9F84304462F
:1024600090F841001F4616460D46202802D0022053
:10247000BDE8F8837DB176B100206064212084F846
:102480004100FFF799FAA6848046E684A068B0F57B
:10249000805F02D003E00120EAE7206910B12E46F8
:1024A00000250EE000260CE08021204600F067F9B0
:1024B000A0B9AEB116F8010B21684860E08C401E4F
:1024C000E084E08C43464FF0000200970028EBD1F7
:1024D0004FF04001204600F052F930B10320C7E729
:1024E00035F8020BC0F30800E6E7202084F841002D
:1024F0000020BDE77047FEE7FEE7FEE77047704744
:10250000FFF760BA30B593B028216846FDF72CFF7D
:1025100014210AA8FDF728FF002401200F940225AA
:102520000490009510201194059010941294079433
:102530006846FFF735FC08B172B6FEE70F20CDE91B
:102540000A040C940D9400210AA80E94FFF74CFB8A
:1025500008B172B6FEE70FA80F951194FFF7CEFAF7
:10256000002801D072B6FEE713B030BD704710B539
:10257000406A0021C185C184FFF7B7FD10BD016825
:102580000C3151E8002F22F4907241E80023002B17
:10259000F5D10168143151E8002F22F0010241E821
:1025A0000023002BF5D1016B012909D101680C3101
:1025B00051E8002F22F0100241E80023002BF5D152
:1025C000202180F8421000210163704708B590F87F
:1025D0004210222901D0022008BD82684FF48053A6
:1025E0009A4201D1016921B1816A9A421BD04AB154
:1025F0000AE00268816A5268C2F308020A80816AAE
:10260000891C08E0026972B10268526802F07F0218
:102610000A70816A491C8162C18D491E0904090C36
:10262000C18503D01BE002685268F1E70168CA68FF
:1026300022F02002CA600168CA6822F48072CA606F
:1026400001684A6922F001024A61202180F84210A3
:1026500000214163026B012A03D0FFF7FDFE002039
:1026600008BD016301680C3151E8002F22F010020F
:1026700041E80023002BF5D101680A68D20602D593
:102680000A6849680091818DFFF72EFDE7E7000099
:1026900070B5044600680169E26821F440511143B5
:1026A00001612169A0680843616908432168CA681B
:1026B00041F20C639A430243CA6020684169A269EF
:1026C00021F44071114341611E492068884202D1C2
:1026D000FFF730FB01E0FFF71DFB00EBC00101EB52
:1026E0000012606864218000B2FBF0F3B3FBF1F3E9
:1026F0006FF018067343B2FBF0F5B2FBF0F605EB92
:102700008305322303EB0515B5FBF1F5B6FBF1F6B6
:1027100005F0F00505EB0615B2FBF0F6B2FBF0F0A4
:10272000B0FBF1F06FF01802504306EB800003EBB2
:102730000010B0FBF1F0216800F00F002844886021
:1027400070BD00000038014081628285C285002191
:102750004164222180F84210016921B10168CA68F0
:1027600042F48072CA6001684A6942F001024A611B
:102770000068C16841F02001C160002070472DE968
:10278000F041984617460E460446069D27E0681C11
:1027900025D02DB1FFF710F9A0EB0800A8421ED9F3
:1027A00020680C3050E8001F21F4D07140E800127E
:1027B000002AF5D12068143050E8001F21F00101F3
:1027C00040E80012002AF5D1202084F8410084F866
:1027D0004200002084F840000320BDE8F08120681A
:1027E000006836EA000004D00020B842CFD00020B4
:1027F000F3E70120F9E700000148FFF777BC00008C
:10280000180000200E4810B50C4901604FF4E1316A
:102810004160002181600C22C160C0E90412816125
:10282000C161FFF799FD08B1FEF7C8FD0449012217
:10283000BDE8104048310248FFF700BE00380140B3
:102840001800002010B518480168184C2268891A31
:10285000B1F5FA6F26D30068206000F061F800F04F
:10286000BDF96FF00B0100F046FA00F085F94FF06A
:1028700066320F4B00F082F802460B460DA111485C
:10288000FDF7AEFC0F4982B23223A1F15C00FFF7E5
:10289000E4FD6068401CA0F51C516060103901D156
:1028A0000020606010BD0000080000201000002023
:1028B00066660A405233385F566F6C3A25362E33BF
:1028C0006656000074000020FEE7490050EAC1206F
:1028D00018BF04204A0D18BF40F0010040F2FF72FB
:1028E000B2EB515F08BF40F00200012808BF05208D
:1028F00070470907090E002804DB00F1E02080F88A
:102900000014704700F00F0000F1E02080F8141D63
:10291000704730380A2801D20120704700207047E4
:1029200010B50448FEF788FE0248FEF7C7FD80B2E6
:1029300010BD000088000020FFF74CF8FFF7E2FD13
:10294000FFF760FFFEF7A6FCFFF77CFFFCE7000047
:1029500010B500290AD00878002807D00548784427
:10296000FEF788F8002801D0002010BD0248784406
:1029700010BD0000F2040000EA040000DFF848C1C6
:1029800070B51CEA111E1EBF1CEA13159EEA0C0F3F
:1029900095EA0C0F00F06F8081EA030423EA4C13E0
:1029A0004EEAD47E21EA4C1141F4801143F48013A5
:1029B000AE44A1FB024CA0FB0365AEF17F7E36194D
:1029C00055EB0C05A1FB034C4CF10003A0FB021CD2
:1029D00016EB0C06654153F10003094218BF46F09F
:1029E000010613F4007F0BD14FEA03314FEA0530A3
:1029F000340341EA155140EA16506FF003020AE031
:102A00004FEAC3214FEAC520F40241EA555140EA9A
:102A100056506FF0020202EB2E4201EB025585EA9E
:102A2000CE710AD05FEA440C18BF24F0004450F184
:102A3000000041F1000120EAD47040F2FE7C6245C2
:102A400000D270BDA84214BF4FF080444FF0404404
:102A5000002E08BF0024BEF1806FA8BFA1F1C041C5
:102A6000BDE8704080F282804FF0000001F1C0416B
:102A700001F0004170479EEA0C0F0CEA131518BFD5
:102A800095EA0C0F06D04FF0000081EA030E0EF01D
:102A9000004170BD00F01CF88900013E00F007B84D
:102AA00000F009B84FEA430C5FEA5C5C08D081EAA9
:102AB000030100F05BB84FEA410C5FEA5C5CF6D1C1
:102AC0004FF00000014970470000FF070000F87F49
:102AD0000EF1020E2EF0030E5EF8046B364205D4A2
:102AE000012A43EB030515F5001F12D8012841EB1D
:102AF000010C1CF5001F0CD80ED14FEAD17C15F546
:102B0000001F0CEB4C0C0CF1020C08BF4CEBD37CFF
:102B100004E04FF0080C01E04FEAD37C0CEB4C05CD
:102B200026FA05F606F00706B6F1040C06D20EEBFF
:102B3000860CBDE870404CF0010C6047DFE80CF0FB
:102B4000090B02024FF000414FF00000A1F50021F7
:102B500070BD19461046012851EB010418BFD4F589
:102B6000001484BF002001F0004170BD0808A0F5EA
:102B700000114FEA3101704743004FEAD30C4FEA8E
:102B80003C0C43401FBF40070CF1605113F0FE4F57
:102B900070471CF0006F03D100200CF0004170471B
:102BA0000CF0004343EA507010B540EACC0000F04E
:102BB00028F800BF000000924FEA0001FFF7D6BFDF
:102BC0004FF000414FF00000A1F5002170470000D8
:102BD000014800F05EB800BF0000C07FB0FA80F38B
:102BE00010FA03F2C3F19D030AD0D90501EB1220BC
:102BF000530638BF704700F1010008BF20F0010004
:102C000070470EF1020E2EF0030E5EF8044B2442C4
:102C100004D44FEA4102B2F17F4F11D84FEA40038A
:102C2000B3F17F4F0CD80ED14FEAD07CB2F17F4F79
:102C30000CEB4C0C0CF1020C08BF4CEBD17C04E00B
:102C40004FF0080C01E04FEAD17C0CEB4C0324FA66
:102C500003F404F00704B4F1040C06D20EEB840C68
:102C6000BDE810404CF0010C6047DFE80CF00708AD
:102C700002024FF00040A0F5800010BD084642005F
:102C800018BFD2F1807288BF00F0004010BDFDF780
:102C90006EBC0CF00F03092B08BF082000F0518018
:102CA0000A2B0BD0082B18BF704708BF1CF0400F31
:102CB0000AD04FF000004FF0000170471CF0400FA9
:102CC00018BF4FF0004070471CF0100F08D020F0E4
:102CD000704300F07F4242EAD3014FEA43707047ED
:102CE00000F0604021F07F4242EA000201F07F40A4
:102CF00040EA727070474FF0FF0212EAD0521CBFD8
:102D000092F0FF038B42C2BFD14200EBC15070472B
:102D1000002A0AD0002B0BD0002900F00040A4BFED
:102D200040F0FE4040F40000704700F00040704763
:102D300043024FF00B0C18BF4CF0806C7FF448AF8F
:102D400070471CF4801F11D01CF4E02F03D06FEAF1
:102D5000CC31490070474FF04050EFF3008222F031
:102D6000704242EA000282F3008870474FF0000090
:102D70007047010202030405060708090A0B0C0D3F
:102D80000E0F1010000000000000000001020304FC
:102D900006070809000000000102030402400000C9
:102DA000000000A00000000005400000000000C876
:102DB000000000000C4000000000409C00000000EB
:102DC000194000000020BCBE00000000344000009C
:102DD000BFC91B8E00000004B5400000504BCFD08F
:102DE0006607E2CF010000006C4100003E8251AA5C
:102DF000DFEEA73401000000D9420000DCB5A0E2FC
:102E00003A301F97FFFFFFFFB4450000FD25A0C823
:102E1000E9A3C14FFFFFFFFFFF3F0000000000805C
:102E200000000000FF3F00000000008000000000E4
:102E30006C2E000800000020180000002801000887
:102E4000842E00081800002000070000440100083C
:102E50001C00000043000000F8FFFFFF0C00000012
:102E60000E0000000F0000002E0000000100000016
:102E700010000000000000000024F400000000002A
:042E8000000000004E
:04000005080000ED02
:00000001FF
