:020000040800F2
:10000000F80600209101000895130008BB110008B4
:100010009313000873040008C517000800000000CF
:100020000000000000000000000000002114000893
:10003000750400080000000097130008231400084E
:10004000AB010008AB010008AB010008AB010008E0
:10005000AB010008AB010008AB010008AB010008D0
:10006000AB010008AB010008AB010008AB010008C0
:10007000AB010008AB010008AB010008AB010008B0
:10008000AB010008AB010008AB010008AB010008A0
:10009000AB010008AB010008AB010008AB01000890
:1000A000AB010008AB010008AB010008AB01000880
:1000B000AB010008AB010008AB010008AB01000870
:1000C000AB010008AB010008AB010008AB01000860
:1000D000AB01000801170008AB010008AB010008E4
:1000E000AB010008AB010008AB01000800F002F80A
:1000F00000F03FF80AA090E8000C82448344AAF183
:100100000107DA4501D100F034F8AFF2090EBAE880
:100110000F0013F0010F18BFFB1A43F0010318473B
:100120005018000070180000103A24BF78C878C139
:10013000FAD8520724BF30C830C144BF04680C60ED
:10014000704700000023002400250026103A28BF35
:1001500078C1FBD8520728BF30C148BF0B60704739
:10016000782900F07F80002070471FB51FBD10B5B3
:1001700010BD00F044F91146FFF7F7FF01F088FBCE
:1001800000F062F903B4FFF7F2FF03BC00F06AF974
:100190000948804709480047FEE7FEE7FEE7FEE71B
:1001A000FEE7FEE7FEE7FEE7FEE7FEE70448054957
:1001B000054A064B7047000077140008ED00000860
:1001C000F8000020F8060020F8020020F8020020C5
:1001D0000FB41CB5084B06AA7B44694600900598ED
:1001E00000F0F5F804460020694600F003F92046C7
:1001F0001CBC5DF814FB0000190200002DE9F04161
:100200000E460446002020622046E168884730B34D
:10021000252805D0D4E901219047206A401CF2E747
:10022000E168204600278847050018D0A5F1410065
:10023000192802D820354FF4006732462946204657
:100240002760FFF78DFF40B1012804D0F61D26F08E
:1002500007060836D8E7361DD6E72846DAE7206ACB
:10026000BDE8F08170B504460D4621461068AFF335
:1002700000802188090502D50F4A7A4402E00E4A1F
:100280007A440E32002104F1240305E000F00F0649
:100290000009965D5E54491C0028F7D120780023A0
:1002A000000704D5702D02D009B102231132204677
:1002B000BDE8704000F02CB8CA1600004FF00002F4
:1002C00000B5134694469646203922BFA0E80C504C
:1002D000A0E80C50B1F12001BFF4F7AF090728BF27
:1002E000A0E80C5048BF0CC05DF804EB890028BFA3
:1002F00040F8042B08BF704748BF20F8022B11F0CC
:10030000804F18BF00F8012B704770477047704747
:100310002DE9F0470D4699469246044600F124081F
:100320000168880604D5E06921F01001216000E031
:100330000120A84201DD471B00E00027A1697A19CE
:1003400002EB0900081AA0612078C00602D42046FA
:10035000AFF30080002608E0D4E901211AF8060076
:100360009047206A401C761C20624E45F4DB2078C2
:10037000C0060AD52046AFF3008006E0D4E901218B
:1003800030209047206A401C2062381EA7F10107E8
:10039000F4DC07E0D4E9012118F805009047206A51
:1003A000401C2062281EA5F10105F3DC2046AFF3B6
:1003B00000802078000602D50220BDE8F0870120E9
:1003C000FBE7000001694A1C02610878704700B52C
:1003D0008FB0CDE901310021059105497944CDE97E
:1003E000031011466846FFF709FF0FB000BD00007B
:1003F000E5FFFFFF0A6802F8010B0A6070477546C7
:1004000000F02CF8AE4605006946534620F0070080
:10041000854618B020B5FFF7C9FEBDE820404FF073
:1004200000064FF000074FF000084FF0000B21F0DE
:100430000701AC46ACE8C009ACE8C009ACE8C009AB
:10044000ACE8C0098D46704710B50446AFF3008094
:100450002046BDE81040FFF795BE000000487047F9
:100460009800002001491820ABBEFEE726000200DC
:100470007047FEE7704772B6FEE710B590F821109E
:100480000022022905D00421816380F82020012068
:1004900010BD01680B6823F00E030B6001680B6848
:1004A00023F001030B6090F84030C46B012101FA86
:1004B00003F3636080F8211080F82020104610BDFF
:1004C00010B590F821100024022903D00421816383
:1004D00001243DE001680A6822F00E020A6001680A
:1004E0000A6822F001020A601A4A0168914201D1A9
:1004F000012121E0174A1432914201D110211BE061
:10050000144A2832914201D1891515E0114A3C3232
:10051000914201D189140FE00E4A5032914202D12A
:100520004FF4803108E00B4A6432914202D14FF41B
:10053000801101E04FF08071064A083A51600121B4
:1005400080F82110002180F82010416B01B188470C
:10055000204610BD0800024070B5044600F004F9C2
:100560000546601C02D004480078044400F0FCF802
:10057000401BA042FAD370BD0C0000202DE9F84FBB
:10058000DFF8B8910024A9F1040B23460F2709F1E5
:10059000040AABF1040EC9E00125A5402A40AA4295
:1005A0007DD1674ED1F804C0ACEB0608B44532D01B
:1005B00014DCBCF1030F3AD009DCBCF1000F2AD0E7
:1005C000BCF1010F1CD0BCF1020F31D11DE0BCF118
:1005D000110F17D0BCF1120F2AD119E0B8F5881FFE
:1005E00019D006DCB8F5803F15D0B8F5801F1FD1B3
:1005F00011E0B8F5001F0ED0B8F5041F18D10AE0BD
:10060000CB6815E0CB681B1D12E0CB6808330FE008
:10061000CB680C330CE08B682BB1012B4FF0080337
:1006200003D0456104E0042302E0056100E00023FB
:10063000FF2A01D8064601E000F104064FEA8405CE
:1006400001D9A5F12005D6F8008007FA05FC28EAB3
:100650000C0803FA05F548EA0508C6F800804D685D
:10066000ED0062D5374DAE6946F00106AE61AD6969
:1006700024F0030605F001050095334D06EB050C4B
:10068000DCF80850A607360F07FA06F825EA080531
:10069000DFF8B880404503D14FF0000817E044E090
:1006A000DFF8AC80404502D14FF001080FE0DFF8E1
:1006B000A480404502D14FF0020808E0DFF898809E
:1006C000404502D14FF0030801E04FF0040808FA5A
:1006D00006F848EA0508CCF808804D68D9F80060AB
:1006E000ED024D4601D5164300E096432E604D685D
:1006F000DAF80060AD02554601D5164300E0964396
:100700002E604D68DBF80060AD035D4601D51643F1
:1007100000E096432E604D68DEF80060ED037546FC
:1007200001D5164300E096432E60641C0D682A46EE
:10073000E5407FF431AFBDE8F88F000008040140C8
:1007400000001110001002400000014000080140AC
:10075000000C014000100140001401408068084076
:1007600000D00120704700000148806870470000F9
:100770000C000020024881680278114481607047B3
:100780000C000020074810B5016841F0100101601D
:10079000032000F079F8002000F006F800F024F8BB
:1007A000002010BD0020024070B50D4D04464FF4EE
:1007B0007A712878B1FBF0F00A490968B1FBF0F0D2
:1007C00000F0E0FA48B9102C07D200221146501E62
:1007D00000F03AF800206C6070BD012070BD000090
:1007E0000C000020180000200E4808B5816941F077
:1007F00001018161816901F001010091C16941F04C
:100800008051C161C06900F080500090052000F067
:100810003BF80548416821F0E06141F0007141601A
:1008200008BD00000010024000000140002809DB64
:1008300000F01F02012191404009800000F1E020FA
:10084000C0F8001170470000F0B40E4B1B680C4656
:10085000C3F30223C3F10705042D00D90425191D94
:10086000072901D2002300E0DB1E012606FA05F16C
:10087000491E214099409E40761E16403143F0BCEF
:1008800000F0A1BF0CED00E0064900F00702086887
:100890004FF6FF03184040EA0220034A1043086065
:1008A000704700000CED00E00000FA052DE9F0476C
:1008B0000F46050061D0434E306800F00700B84293
:1008C00009D2306820F0070038433060306800F00B
:1008D0000700B84251D128683B4C810712D5400728
:1008E00003D5606840F4E06060602878000703D5B5
:1008F000606840F4605060606068A96820F0F000B3
:10090000084360602878C00728D06868012810D0A4
:100910002168022810D0890700292EDA616821F0A9
:10092000030101436160FFF71FFF804641F28839F0
:100930000DE021688903EFE78901EDE7FFF714FF78
:10094000A0EB0801494502D90320BDE8F0876068A3
:10095000696800F00C00B0EB810FEFD1306800F057
:100960000700B8420BD9306820F0070038433060E8
:10097000306800F00700B84201D00120E5E7287890
:10098000400705D56068E96820F4E06008436060CE
:100990002878000706D56068296920F4605040EA8D
:1009A000C100606000F038F86168084AC1F30311C3
:1009B000515CC8400649086006480068FFF7F4FE2D
:1009C0000020C2E700200240001002403019000859
:1009D00018000020100000200448054900684968FC
:1009E000044AC1F30221515CC8407047180000203E
:1009F0000010024040190008044805490068496891
:100A0000044AC1F3C221515CC8407047180000205D
:100A100000100240401900080E4A51680E4801F0CB
:100A20000C03042B11D0082B0FD10C48C1F38343C6
:100A3000C903C05C0AD55168084AC1F34041921EFF
:100A4000515C054A5043B0FBF1F0704704494843FC
:100A5000704700000010024000127A0020190008C0
:100A600000093D002DE9F84F040070D02078C04DFA
:100A7000C00749D06868C0F38100012807D06868C2
:100A8000C0F38100022809D16868C00306D5286830
:100A9000800339D560680028E7D035E06068B0F59C
:100AA000803F0BD010B1B0F5A02F11D0286820F4F2
:100AB00080302860286820F4802002E0286840F414
:100AC00080302860606890B1FFF74EFE06460AE06D
:100AD000286840F480202860F0E700BFFFF744FE5C
:100AE000801B642873D828688003F7D50CE0FFF7D3
:100AF0003BFE064605E000BFFFF736FE801B64287C
:100B0000F0D828688003F7D420789A4E80074FF0F9
:100B100001094FF0000839D5686810F00C0F07D0B4
:100B20006868C0F38100022809D16868C00306D450
:100B30002868800714D52069012808D110E02069B1
:100B4000B0B1C6F80090FFF70FFE074605E00AE1D6
:100B5000FFF70AFEC01B0228C4D828688007F7D513
:100B60002868616920F0F80040EAC10028600DE0C3
:100B7000C6F80080FFF7F8FD074604E0FFF7F4FD34
:100B8000C01B022823D828688007F7D420780007E4
:100B90002CD57948A169D9B1C0F80090FFF7E4FDE0
:100BA000074604E0FFF7E0FDC01B02280FD8686A83
:100BB0008007F7D571484FF4FA510068B0FBF1F0A7
:100BC000009000BF0098411E0091FAD20EE080E034
:100BD000C0F80080FFF7C8FD074604E0FFF7C4FD3A
:100BE000C01B022875D8686A8007F7D420784007B0
:100BF00060D5E8690027C00008D4E86940F080505B
:100C0000E861E869012700F0805000905C480168C5
:100C1000C90513D40168834641F480710160FFF770
:100C2000A3FD824606E000BFFFF79EFDA0EB0A0091
:100C300064284ED8DBF80000C005F5D5E06801282F
:100C40000AD008B1052813D0286A20F001002862D4
:100C5000286A20F0040002E0286A40F001002862BF
:100C6000E06841F2883B98B1FFF77EFD82460BE0D9
:100C7000286A40F004002862EEE700BFFFF774FD29
:100C8000A0EB0A0159455AD8286A8007F6D50CE02E
:100C9000FFF76AFD824605E0FFF766FDA0EB0A015B
:100CA00059454CD8286A8007F6D41FB1E86920F06E
:100CB0008050E861E06988B36968C1F38101022965
:100CC00044D00228C6F8608004D0FFF74DFD0446EA
:100CD00038E034E0FFF748FD074604E0FFF744FD45
:100CE000C01B02282BD828688001F7D4206AB0F5F1
:100CF000803F05D16868A16820F40030084368602F
:100D0000D4E908010843696821F474110843686054
:100D1000C6F86090FFF728FD044606E025E000BF16
:100D2000FFF722FD001B022809D828688001F7D5AB
:100D30001BE000BFFFF718FD001B022802D90320AB
:100D4000BDE8F88F28688001F4D40EE00128F7D0C0
:100D50006868226A00F48031914204D1616A00F42B
:100D60007010884201D00120EAE70020E8E7000087
:100D7000001002400000424280044242180000205D
:100D80000070004010B5401EB0F1807F01D30120FB
:100D900010BD4FF0E02460610F21601700F013FDDB
:100DA0000020A06107202061002010BD704770471F
:100DB000F8B5016804460868CA684B6910F00F0F5F
:100DC0004FF0000559D003F0010602F49077374345
:100DD00065D0C10705D0D10503D5616C41F0010193
:100DE0006164410705D5D90703D0616C41F0020168
:100DF0006164810705D5D90703D0616C41F0040116
:100E00006164010707D502F02001314303D0616C12
:100E100041F008016164616C00293AD0800604D574
:100E2000900602D5204600F056FB20684069616CB0
:100E3000C0F38010090700D460B3204600F024FB03
:100E400020684069400621D52068143050E8001F12
:100E500021F0400140E80012002AF5D1E06BA8B172
:100E60006D494163E06BFFF72BFB002811D0E06B6D
:100E7000416B01B0BDE8F040084783060FD59306EB
:100E80000DD52046BDE8F84000F025BB2046FFF711
:100E90008EFFF8BD2046FFF78AFF6564F8BD266B1C
:100EA0002023012E7CD1C6067AD5D60678D50868CF
:100EB0004868009048694FF00206400640D5E16B53
:100EC000086840680004000CE8D0A28D8242E5D991
:100ED000E085886920282DD020680C3050E8001F5C
:100EE00021F4807140E80012002AF5D12068143006
:100EF00050E8001F21F0010140E80012002AF5D15E
:100F00002068143050E8001F21F0400140E8001232
:100F1000002AF5D184F84230256320680C3050E86F
:100F2000001F21F0100140E80012002AF5D1E06B0B
:100F3000FFF7A3FA6663A08DE18D401A81B22AE023
:100F4000A08DE18D401A81B2E08D0028A6D0002945
:100F5000A4D022680C3252E8000F20F4907042E8CE
:100F60000007002FF5D12068143050E8002F22F040
:100F7000010240E80027002FF5D184F842302563B4
:100F800020680C3050E8002F22F0100240E80023C7
:100F9000002BF5D166632046FFF708FFF8BDFFE799
:100FA00005062BD5150629D594F841002128F5D141
:100FB000A068B0F5805F01D12069B0B1206A411C02
:100FC0002162216800784860E08C401E0004000C1B
:100FD000E084E3D12068C16821F08001C16020680D
:100FE000C16841F04001C160D8E7206A0088C0F3C1
:100FF00008004860206A801C2062E5E74006CDD5E5
:101000005006CBD5CA68204622F04002CA6084F858
:10101000413000F0D1F8C1E77914000870B5040040
:1010200004D094F84100002510B106E0012070BD05
:1010300084F84050204600F023F8242084F8410032
:101040002068C16821F40051C160204600F0A4FA74
:101050002068016921F4904101612068416921F013
:101060002A0141612068C16841F40051C160656492
:10107000202084F8410084F842006563002070BDA0
:1010800030B585B000240094019402940394006864
:10109000184988422CD11848816941F48041816106
:1010A000816901F480410491816941F00401816109
:1010B0008069124D00F0040004904FF4007000901D
:1010C000022001900320039069462846FFF756FA54
:1010D0002815CDE90004694628460294FFF74EFA28
:1010E000002201212520FFF7AFFB2520FFF79EFB03
:1010F00005B030BD0038014000100240000801403A
:1011000090F84230202B01D00220704721B11AB153
:101110000023036300F09CBA0120704770472DE95B
:10112000F843044690F841001F4616460D46202815
:1011300002D00220BDE8F8837DB176B10020606462
:10114000212084F84100FFF70FFBA6848046E68447
:10115000A068B0F5805F02D003E00120EAE72069D3
:1011600010B12E4600250EE000260CE0802120461E
:1011700000F089FAA0B9AEB116F8010B21684860F9
:10118000E08C401EE084E08C43464FF00002009764
:101190000028EBD14FF04001204600F074FA30B146
:1011A0000320C7E735F8020BC0F30800E6E720206C
:1011B00084F841000020BDE77047FEE71FB5C0205E
:1011C000009001200190029003200390694602489C
:1011D000FFF7D4F91FBD0000000C014070B50824D2
:1011E000002500F0F1F813E06806050E002000F07D
:1011F000D3F8142000F0F7FA142000F0F4FA0120DC
:1012000000F0CAF8142000F0EEFA00F0D1F805431F
:10121000641EE4B2E8D2002000F0BEF8142000F012
:10122000E2FA00F0EDF8284670BD10B5002000F09D
:10123000DBF8142000F0D7FA142000F0D4FA0120D3
:1012400000F0AAF8142000F0CEFA002000F0A4F874
:10125000BDE81040142000F0C6BA70B50446082559
:1012600016E000F099F8142000F0BDFA04F08000B8
:1012700000F0BAF8142000F0B6FA6006040E14204C
:1012800000F0B1FA012000F087F8142000F0ABFA6A
:101290006D1EEDB24FF00000E3D200F07DF8BDE826
:1012A0007040142000F09FBA10B5012000F09CF8A7
:1012B000142000F098FA142000F095FA012000F0B4
:1012C0006BF8142000F08FFA002000F065F8BDE8FC
:1012D0001040142000F087BA10B5012000F084F807
:1012E000142000F080FA012000F056F8142000F0DD
:1012F0007AFA002000F078F8142000F074FA002048
:1013000000F04AF8BDE81040142000F06CBA10B5A7
:10131000002000F041F8142000F065FA002000F0F1
:1013200063F8142000F05FFA012000F035F8142073
:1013300000F059FA012000F057F8BDE810401420E1
:1013400000F051BA10B5052400F03EF8142000F06A
:101350004AFA012000F020F8142000F044FA05E0D9
:10136000641EA4B2142000F03EFA64B100F020F82C
:101370000028F5D100F010F8142000F034FA00F045
:101380003FF8002010BD00F03BF8FFF7C0FF012040
:1013900010BDFEE7FEE7704708B1044801E00348CE
:1013A000001D016841F0400101607047100C0140D0
:1013B00010B580210348FFF7D1F9012800D00020A3
:1013C00010BD0000000C01401FB5002001908020DE
:1013D0000090012002900320039069460148FFF726
:1013E000CDF81FBD000C014008B1044801E00348DE
:1013F000001D016841F0800101607047100C014040
:101400001FB5002002908020009011200190032041
:10141000039069460148FFF7B1F81FBD000C014079
:101420007047FFF7A7B910B590B028216846FEF7BE
:1014300045FF14210AA8FEF741FF02200090012079
:10144000049010200024059007946846FFF70AFBDB
:1014500008B172B6FEE70F20CDE90A040C940D9492
:1014600000210AA80E94FFF721FA002801D072B6D5
:10147000FEE710B010BD704710B5406A0021C1856D
:10148000C184FFF794FC10BD01680C3151E8002FB6
:1014900022F4907241E80023002BF5D10168143149
:1014A00051E8002F22F0010241E80023002BF5D182
:1014B000016B012909D101680C3151E8002F22F09C
:1014C000100241E80023002BF5D1202180F84210C2
:1014D00000210163704708B590F84210222901D01D
:1014E000022008BD82684FF480539A4201D10169FD
:1014F00021B1816A9A421BD04AB10AE00268816A2E
:101500005268C2F308020A80816A891C08E00269F5
:1015100072B10268526802F07F020A70816A491C47
:101520008162C18D491E0904090CC18503D01BE0ED
:1015300002685268F1E70168CA6822F02002CA60B6
:101540000168CA6822F48072CA6001684A6922F0A0
:1015500001024A61202180F8421000214163026BA0
:10156000012A03D0FFF7DAFD002008BD01630168FE
:101570000C3151E8002F22F0100241E80023002B2B
:10158000F5D101680A68D20602D50A684968009157
:10159000818DFFF70BFCE7E770B504460068016931
:1015A000E26821F44051114301612169A0680843B8
:1015B000616908432168CA6841F20C639A43024397
:1015C000CA6020684169A26921F4407111434161F8
:1015D0001E492068884202D1FFF70EFA01E0FFF7AA
:1015E000FBF900EBC00101EB001260686421800090
:1015F000B2FBF0F3B3FBF1F36FF018067343B2FBE9
:10160000F0F5B2FBF0F605EB8305322303EB05158D
:10161000B5FBF1F5B6FBF1F605F0F00505EB0615A7
:10162000B2FBF0F6B2FBF0F0B0FBF1F06FF0180295
:10163000504306EB800003EB0010B0FBF1F0216893
:1016400000F00F002844886070BD000000380140A1
:1016500081628285C28500214164222180F8421086
:10166000016921B10168CA6842F48072CA600168E8
:101670004A6942F001024A610068C16841F02001F4
:10168000C160002070472DE9F041984617460E468C
:101690000446069D27E0681C25D02DB1FFF764F8AD
:1016A000A0EB0800A8421ED920680C3050E8001FAB
:1016B00021F4D07140E80012002AF5D120681430DE
:1016C00050E8001F21F0010140E80012002AF5D186
:1016D000202084F8410084F84200002084F8400073
:1016E0000320BDE8F0812068006836EA000004D0DD
:1016F0000020B842CFD00020F3E70120F9E7000036
:101700000148FFF755BB0000280000200E4810B527
:101710000C4901604FF4E1314160002181600C22ED
:10172000C160C0E904128161C161FFF777FC08B1B3
:10173000FEF7A1FEBDE81040012204490248FFF770
:10174000DFBC000000380140280000201C00002001
:101750003EB513480168134C6268891AB1F5FA6FF7
:101760001DD300686060104881780379C2788DE8E5
:101770000E00437802780DA11148FEF729FD1049AB
:1017800082B23223A1F14800FFF7C9FCA068401CD7
:10179000A0F51C51A060103901D10020A0603EBD11
:1017A000140000201C000020060000204545505277
:1017B0004F4D3A2578257825782578257820000022
:1017C00070000020FEE70907090E002804DB00F185
:1017D000E02080F80014704700F00F0000F1E020D6
:1017E00080F8141D7047002100E0491C8142FCD3A1
:1017F000704770B515460E460446FFF76DFDA020F4
:10180000FFF72BFDFFF79EFD3046FFF726FDFFF7A4
:1018100099FDFFF761FDA120FFF71FFDFFF792FD86
:1018200009E0FFF7DBFC04F8010B15B1FFF7FDFC45
:1018300001E0FFF739FD6D1EEDB2F2D2BDE8704058
:10184000FFF765BD70B515460E460446FFF744FD2B
:10185000A020FFF702FDFFF775FD3046FFF7FDFC06
:10186000FFF770FDFFF738FDA02001E014F8010B31
:10187000FFF7F3FCFFF766FD6D1EEDB2F6D2FFF742
:1018800046FDBDE870404FF4FA70FFF7ACBF0000B2
:10189000FEF778FFFFF7C7FDFFF790FCFFF736FF75
:1018A000052201210B48FFF7CDFF6420FEF754FE0F
:1018B000084805220121401DFFF79BFF772000F01B
:1018C0001CF800F009F80349491E0870FFF740FFB3
:1018D000FCE700000100002010B5FFF7FDFC5F20D1
:1018E000FFF7BBFCFFF72EFDFFF778FC0446FFF780
:1018F000DBFCFFF70CFD204610BD10B50446FFF7DA
:10190000EBFC5E20FFF7A9FCFFF71CFD2046FFF76C
:10191000A4FCFFF717FDBDE81040FFF7F8BC01027B
:1019200002030405060708090A0B0C0D0E0F101020
:10193000000000000000000001020304060708097F
:1019400000000000010203043031323334353637F1
:1019500038394142434445464030580030313233F3
:1019600034353637383961626364656640307800F3
:10197000901900080000002028000000280100083D
:10198000B819000828000020D00600004401000813
:101990000011223344550000000000000100000047
:1019A00010000000000000000024F400000000000F
:0819B00000000000000000002F
:04000005080000ED02
:00000001FF
