:020000040800F2
:10000000F006002091010008131400085D13000899
:1000100011140008EB050008B117000800000000EB
:10002000000000000000000000000000171400089D
:10003000ED05000800000000151400081914000860
:10004000AB010008AB010008AB010008AB010008E0
:10005000AB010008AB010008AB010008AB010008D0
:10006000AB010008AB010008AB010008AB010008C0
:10007000AB010008AB010008AB010008AB010008B0
:10008000AB010008AB010008AB010008AB010008A0
:10009000AB010008AB010008AB010008AB01000890
:1000A000AB010008AB010008AB010008AB01000880
:1000B000AB010008AB010008AB010008AB01000870
:1000C000AB010008AB010008AB010008AB01000860
:1000D000AB010008F9160008AB010008AB010008ED
:1000E000AB010008AB010008AB01000800F002F80A
:1000F00000F03FF80AA090E8000C82448344AAF183
:100100000107DA4501D100F034F8AFF2090EBAE880
:100110000F0013F0010F18BFFB1A43F0010318473B
:100120001817000038170000103A24BF78C878C1AB
:10013000FAD8520724BF30C830C144BF04680C60ED
:10014000704700000023002400250026103A28BF35
:1001500078C1FBD8520728BF30C148BF0B60704739
:10016000642900F07180002070471FB51FBD10B5D5
:1001700010BD00F000FA1146FFF7F7FF01F030FB69
:1001800000F01EFA03B4FFF7F2FF03BC00F026FAFA
:100190000948804709480047FEE7FEE7FEE7FEE71B
:1001A000FEE7FEE7FEE7FEE7FEE7FEE70448054957
:1001B000054A064B704700006D140008ED0000086A
:1001C000F0000020F0060020F0020020F0020020E5
:1001D0000FB41CB5074B06AA7B44694600900598EE
:1001E00000F0B1F90020694600F0C0F91CBC5DF8D0
:1001F00014FB00009103000070B504468569006897
:10020000C10601D5302600E02026C00707D070BD0A
:10021000D4E9012130469047206A401C20626D1EBF
:10022000F6D570BD70B5044685690078C00707D162
:1002300070BDD4E9012120209047206A401C206233
:100240006D1EF6D570BD00002DE9F0410646002474
:1002500010687529314616A510D0AFF3008000282C
:1002600002DA404213A507E031688A0701D512A5DA
:1002700002E0490704D511A5012401E0AFF3008095
:1002800000210A2206F1240709E0B0FBF2FCB0FBD2
:10029000F2F302FB1C00303078541846491C002849
:1002A000F3D123462A463046BDE8F04100F0EDB8D0
:1002B000000000002D0000002B00000020000000C6
:1002C0002DE9F05F894604464FF0000ADFF824B1BB
:1002D000FB44C0F820A02046E168884700287DD074
:1002E000252806D0D4E901219047206A401C2062CD
:1002F000F1E700255F462046E1688847202806464A
:1003000007DB312E05D2B81910F8200C08B10543CF
:10031000F1E7A80701D525F00405C4F81CA00027C3
:10032000C4F818A02A2E09D0304601F052FA38B38A
:1003300004EB8708303EC8F8186019E059F8041B30
:10034000204604EB87029161E1688847012F064649
:1003500018D1E069002820DA25F020051DE0D8F842
:10036000180000EB800006EB40003038C8F8180099
:100370002046E1688847064601F02BFA0028EED1B6
:10038000012F0AD02E2E08D12046E16888477F1C15
:100390000646022F45F02005C4DBA069002803DAD9
:1003A000404245F00105A061E80701D025F01005A5
:1003B000A6B1A6F14100192802D8203645F40065FF
:1003C0004A463146204625604D46FFF7C9FE60B1DA
:1003D000012807D0ED1D25F0070000E007E000F13F
:1003E000080978E705F1040975E730467AE7206ADD
:1003F000BDE8F09F5015000010B5431C02E010F856
:10040000011B71B18107FAD14FF0013202C88C1A79
:100410008C4314EAC211F9D0C01A0A0603D0C01ED8
:1004200010BDC01A10BD0A0401D0801E10BD090203
:10043000FCD0401E10BD4FF0000200B5134694469C
:100440009646203922BFA0E80C50A0E80C50B1F12C
:100450002001BFF4F7AF090728BFA0E80C5048BF40
:100460000CC05DF804EB890028BF40F8042B08BFDE
:10047000704748BF20F8022B11F0804F18BF00F8DA
:10048000012B70477047704770472DE9F0470D46C4
:1004900099469246044600F124080168880604D56E
:1004A000E06921F01001216000E00120A84201DD97
:1004B000471B00E00027A1697A1902EB0900081A1E
:1004C000A0612078C00602D42046FFF795FE0026E2
:1004D00008E0D4E901211AF806009047206A401C80
:1004E000761C20624E45F4DB2078C0060AD52046F3
:1004F000FFF782FE06E0D4E9012130209047206A10
:10050000401C2062381EA7F10107F4DC07E0D4E9A3
:10051000012118F805009047206A401C2062281E1F
:10052000A5F10105F3DC2046FFF77CFE20780006EC
:1005300002D50220BDE8F0870120FBE701694A1CD3
:1005400002610878704700B58FB0CDE90131002114
:10055000059105497944CDE9031011466846FFF736
:10056000AFFE0FB000BD0000E5FFFFFF0A6802F814
:10057000010B0A607047754600F02CF8AE46050086
:100580006946534620F00700854618B020B5FFF7AE
:100590000DFEBDE820404FF000064FF000074FF081
:1005A00000084FF0000B21F00701AC46ACE8C00991
:1005B000ACE8C009ACE8C009ACE8C0098D4670479A
:1005C00010B50446AFF300802046BDE81040FFF7A9
:1005D000D9BD0000004870478C0000200149182058
:1005E000ABBEFEE7260002007047FEE7704772B61A
:1005F000FEE710B590F821100022022905D0042151
:10060000816380F82020012010BD01680B6823F071
:100610000E030B6001680B6823F001030B6090F878
:100620004030C46B012101FA03F3636080F82110AC
:1006300080F82020104610BD10B590F8211000243D
:10064000022903D00421816301243DE001680A6886
:1006500022F00E020A6001680A6822F001020A60B4
:100660001A4A0168914201D1012121E0174A14324E
:10067000914201D110211BE0144A2832914201D14C
:10068000891515E0114A3C32914201D189140FE0DD
:100690000E4A5032914202D14FF4803108E00B4AA9
:1006A0006432914202D14FF4801101E04FF0807129
:1006B000064A083A5160012180F82110002180F893
:1006C0002010416B01B18847204610BD0800024050
:1006D00070B5044600F004F90546601C02D00448D9
:1006E0000078044400F0FCF8401BA042FAD370BD2F
:1006F000000000202DE9F84FDFF8B8910024A9F19F
:10070000040B23460F2709F1040AABF1040EC9E0DC
:100710000125A5402A40AA427DD1674ED1F804C0E8
:10072000ACEB0608B44532D014DCBCF1030F3AD070
:1007300009DCBCF1000F2AD0BCF1010F1CD0BCF1C8
:10074000020F31D11DE0BCF1110F17D0BCF1120F17
:100750002AD119E0B8F5881F19D006DCB8F5803F1A
:1007600015D0B8F5801F1FD111E0B8F5001F0ED0CD
:10077000B8F5041F18D10AE0CB6815E0CB681B1D43
:1007800012E0CB6808330FE0CB680C330CE08B68C9
:100790002BB1012B4FF0080303D0456104E0042383
:1007A00002E0056100E00023FF2A01D8064601E0CF
:1007B00000F104064FEA840501D9A5F12005D6F819
:1007C000008007FA05FC28EA0C0803FA05F548EA58
:1007D0000508C6F800804D68ED0062D5374DAE695A
:1007E00046F00106AE61AD6924F0030605F001058F
:1007F0000095334D06EB050CDCF80850A607360FC4
:1008000007FA06F825EA0805DFF8B880404503D165
:100810004FF0000817E044E0DFF8AC80404502D11B
:100820004FF001080FE0DFF8A480404502D14FF0FF
:10083000020808E0DFF89880404502D14FF0030835
:1008400001E04FF0040808FA06F848EA0508CCF879
:1008500008804D68D9F80060ED024D4601D5164379
:1008600000E096432E604D68DAF80060AD02554610
:1008700001D5164300E096432E604D68DBF800601A
:10088000AD035D4601D5164300E096432E604D68EA
:10089000DEF80060ED03754601D5164300E096438F
:1008A0002E60641C0D682A46E5407FF431AFBDE838
:1008B000F88F0000080401400000111000100240F1
:1008C0000000014000080140000C01400010014000
:1008D000001401400AB1016170470904FBE7000000
:1008E00001488068704700000000002002488168CD
:1008F000027811448160704700000020074810B55D
:10090000016841F010010160032000F079F8002037
:1009100000F006F800F024F8002010BD002002408E
:1009200070B50D4D04464FF47A712878B1FBF0F0A4
:100930000A490968B1FBF0F000F0E0FA48B9102C60
:1009400007D200221146501E00F03AF800206C60D9
:1009500070BD012070BD0000000000200C000020D0
:100960000E4808B5816941F001018161816901F09A
:1009700001010091C16941F08051C161C06900F07D
:1009800080500090052000F03BF80548416821F0B8
:10099000E06141F00071416008BD000000100240BC
:1009A00000000140002809DB00F01F0201219140F6
:1009B0004009800000F1E020C0F8001170470000FD
:1009C000F0B40E4B1B680C46C3F30223C3F10705BA
:1009D000042D00D90425191D072901D2002300E0A8
:1009E000DB1E012606FA05F1491E214099409E4072
:1009F000761E16403143F0BC00F0DBBE0CED00E08B
:100A0000064900F0070208684FF6FF03184040EA65
:100A10000220034A10430860704700000CED00E01C
:100A20000000FA052DE9F0470F46050061D0434E5E
:100A3000306800F00700B84209D2306820F00700A3
:100A400038433060306800F00700B84251D1286860
:100A50003B4C810712D5400703D5606840F4E06045
:100A600060602878000703D5606840F460506060DB
:100A70006068A96820F0F000084360602878C0072B
:100A800028D06868012810D02168022810D0890772
:100A900000292EDA616821F0030101436160FFF74C
:100AA0001FFF804641F288390DE021688903EFE796
:100AB0008901EDE7FFF714FFA0EB0801494502D9D2
:100AC0000320BDE8F0876068696800F00C00B0EBB7
:100AD000810FEFD1306800F00700B8420BD93068C1
:100AE00020F0070038433060306800F00700B8425B
:100AF00001D00120E5E72878400705D56068E9685E
:100B000020F4E060084360602878000706D560683C
:100B1000296920F4605040EAC100606000F038F8B4
:100B20006168084AC1F30311515CC8400649086076
:100B300006480068FFF7F4FE0020C2E700200240EC
:100B4000001002400C1800080C00002004000020D7
:100B50000448054900684968044AC1F30221515C10
:100B6000C84070470C000020001002401C1800080C
:100B70000448054900684968044AC1F3C221515C30
:100B8000C84070470C000020001002401C180008EC
:100B90000E4A51680E4801F00C03042B11D0082BAB
:100BA0000FD10C48C1F38343C903C05C0AD5516817
:100BB000084AC1F34041921E515C054A5043B0FBC4
:100BC000F1F07047044948437047000000100240AC
:100BD00000127A00FC17000800093D002DE9F84FCB
:100BE000040070D02078C04DC00749D06868C0F3B9
:100BF0008100012807D06868C0F38100022809D16C
:100C00006868C00306D52868800339D56068002865
:100C1000E7D035E06068B0F5803F0BD010B1B0F59B
:100C2000A02F11D0286820F480302860286820F494
:100C3000802002E0286840F480302860606890B12D
:100C4000FFF74EFE06460AE0286840F48020286040
:100C5000F0E700BFFFF744FE801B642873D82868C4
:100C60008003F7D50CE0FFF73BFE064605E000BF2A
:100C7000FFF736FE801B6428F0D828688003F7D47D
:100C800020789A4E80074FF001094FF0000839D5BF
:100C9000686810F00C0F07D06868C0F38100022864
:100CA00009D16868C00306D42868800714D5206974
:100CB000012808D110E02069B0B1C6F80090FFF714
:100CC0000FFE074605E00AE1FFF70AFEC01B0228F7
:100CD000C4D828688007F7D52868616920F0F80033
:100CE00040EAC10028600DE0C6F80080FFF7F8FD7B
:100CF000074604E0FFF7F4FDC01B022823D828684C
:100D00008007F7D4207800072CD57948A169D9B19C
:100D1000C0F80090FFF7E4FD074604E0FFF7E0FDB0
:100D2000C01B02280FD8686A8007F7D571484FF4B6
:100D3000FA510068B0FBF1F0009000BF0098411E2E
:100D40000091FAD20EE080E0C0F80080FFF7C8FD05
:100D5000074604E0FFF7C4FDC01B022875D8686A87
:100D60008007F7D42078400760D5E8690027C000E5
:100D700008D4E86940F08050E861E869012700F094
:100D8000805000905C480168C90513D4016883460F
:100D900041F480710160FFF7A3FD824606E000BFC9
:100DA000FFF79EFDA0EB0A0064284ED8DBF8000098
:100DB000C005F5D5E06801280AD008B1052813D090
:100DC000286A20F001002862286A20F0040002E06E
:100DD000286A40F001002862E06841F2883B98B13F
:100DE000FFF77EFD82460BE0286A40F0040028628F
:100DF000EEE700BFFFF774FDA0EB0A0159455AD892
:100E0000286A8007F6D50CE0FFF76AFD824605E008
:100E1000FFF766FDA0EB0A0159454CD8286A800708
:100E2000F6D41FB1E86920F08050E861E06988B32A
:100E30006968C1F38101022944D00228C6F86080A4
:100E400004D0FFF74DFD044638E034E0FFF748FDDD
:100E5000074604E0FFF744FDC01B02282BD8286892
:100E60008001F7D4206AB0F5803F05D16868A16899
:100E700020F4003008436860D4E908010843696839
:100E800021F4741108436860C6F86090FFF728FDEC
:100E9000044606E025E000BFFFF722FD001B022804
:100EA00009D828688001F7D51BE000BFFFF718FDBF
:100EB000001B022802D90320BDE8F88F28688001B2
:100EC000F4D40EE00128F7D06868226A00F480317B
:100ED000914204D1616A00F47010884201D001206F
:100EE000EAE70020E8E7000000100240000042426C
:100EF000800442420C0000200070004010B5401EEB
:100F0000B0F1807F01D3012010BD4FF0E02460617B
:100F10000F21601700F04DFC0020A0610720206128
:100F2000002010BD70477047F8B501680446086896
:100F3000CA684B6910F00F0F4FF0000559D003F04D
:100F4000010602F49077374365D0C10705D0D1057B
:100F500003D5616C41F001016164410705D5D907F2
:100F600003D0616C41F002016164810705D5D907A6
:100F700003D0616C41F004016164010707D502F000
:100F80002001314303D0616C41F008016164616C60
:100F900000293AD0800604D5900602D5204600F0FC
:100FA00095FA20684069616CC0F38010090700D48D
:100FB00060B3204600F063FA20684069400621D5FE
:100FC0002068143050E8001F21F0400140E8001272
:100FD000002AF5D1E06BA8B16D494163E06BFFF7E2
:100FE0002BFB002811D0E06B416B01B0BDE8F04055
:100FF000084783060FD593060DD52046BDE8F84077
:1010000000F064BA2046FFF78EFFF8BD2046FFF7D8
:101010008AFF6564F8BD266B2023012E7CD1C606AD
:101020007AD5D60678D508684868009048694FF0A8
:101030000206400640D5E16B086840680004000CD9
:10104000E8D0A28D8242E5D9E085886920282DD09C
:1010500020680C3050E8001F21F4807140E8001235
:10106000002AF5D12068143050E8001F21F001015A
:1010700040E80012002AF5D12068143050E8001F23
:1010800021F0400140E80012002AF5D184F84230F6
:10109000256320680C3050E8001F21F0100140E863
:1010A0000012002AF5D1E06BFFF7A3FA6663A08D6A
:1010B000E18D401A81B22AE0A08DE18D401A81B203
:1010C000E08D0028A6D00029A4D022680C3252E876
:1010D000000F20F4907042E80007002FF5D120683F
:1010E000143050E8002F22F0010240E80027002FC2
:1010F000F5D184F84230256320680C3050E8002F89
:1011000022F0100240E80023002BF5D16663204650
:10111000FFF708FFF8BDFFE705062BD5150629D513
:1011200094F841002128F5D1A068B0F5805F01D185
:101130002069B0B1206A411C2162216800784860B2
:10114000E08C401E0004000CE084E3D12068C168FC
:1011500021F08001C1602068C16841F04001C16098
:10116000D8E7206A0088C0F308004860206A801C25
:101170002062E5E74006CDD55006CBD5CA682046AB
:1011800022F04002CA6084F8413000F0E6F8C1E77E
:101190006F14000870B5040004D094F841000025D5
:1011A00010B106E0012070BD84F84050204600F0E8
:1011B00023F8242084F841002068C16821F40051FC
:1011C000C160204600F0E4F92068016921F49041F3
:1011D00001612068416921F02A0141612068C168EC
:1011E00041F40051C1606564202084F8410084F816
:1011F00042006563002070BD30B585B000240094C6
:101200000194029403940068184988422CD118482C
:10121000816941F480418161816901F480410491D7
:10122000816941F0040181618069124D00F0040080
:1012300004904FF40070009002200190032003906E
:1012400069462846FFF756FA2815CDE90004694695
:1012500028460294FFF74EFA002201212520FFF7CD
:10126000AFFB2520FFF79EFB05B030BD00380140E5
:10127000001002400008014090F84230202B01D0BD
:101280000220704721B11AB10023036300F0DCB9DA
:101290000120704710B5FF2000F080F84FF49670E1
:1012A000FFF716FA002000F079F8BDE8104001229F
:1012B00001490248FFF7E0BF100000201C00002099
:1012C0002DE9F843044690F841001F4616460D46A6
:1012D000202802D00220BDE8F8837DB176B100203D
:1012E0006064212084F84100FFF7FAFAA684804662
:1012F000E684A068B0F5805F02D003E00120EAE751
:10130000206910B12E4600250EE000260CE0802159
:10131000204600F0B4F9A0B9AEB116F8010B21686F
:101320004860E08C401EE084E08C43464FF00002B1
:1013300000970028EBD14FF04001204600F09FF9C4
:1013400030B10320C7E735F8020BC0F30800E6E729
:10135000202084F841000020BDE77047FEE7000030
:1013600000B585B00020019003900A48816941F0E2
:10137000080181618069694600F00800049040F22C
:1013800001400090012002900348FFF7B3F905B037
:1013900000BD000000100240000C014070B5074D78
:1013A0000446012207212846FFF794FA21462846E1
:1013B000BDE870400022FFF78DBA00000008014030
:1013C00030B585B000241048009401940294039431
:1013D000816941F00401816180690C4D00F00400D5
:1013E0000490012207212846FFF774FA0720009095
:1013F0000120CDE901040320039069462846FFF748
:1014000079F905B030BD000000100240000801402D
:10141000FEE7FEE770477047FFF768BA10B590B077
:1014200028216846FFF707F814210AA8FFF703F8F8
:1014300002200090012004901020002405900794C1
:101440006846FFF7CBFB08B172B6FEE70F20CDE987
:101450000A040C940D9400210AA80E94FFF7E2FAF6
:10146000002801D072B6FEE710B010BD704710B56D
:10147000406A0021C185C184FFF755FD10BD016898
:101480000C3151E8002F22F4907241E80023002B28
:10149000F5D10168143151E8002F22F0010241E832
:1014A0000023002BF5D1016B012909D101680C3112
:1014B00051E8002F22F0100241E80023002BF5D163
:1014C000202180F8421000210163704708B590F890
:1014D0004210222901D0022008BD82684FF48053B7
:1014E0009A4201D1016921B1816A9A421BD04AB165
:1014F0000AE00268816A5268C2F308020A80816ABF
:10150000891C08E0026972B10268526802F07F0229
:101510000A70816A491C8162C18D491E0904090C47
:10152000C18503D01BE002685268F1E70168CA6810
:1015300022F02002CA600168CA6822F48072CA6080
:1015400001684A6922F001024A61202180F84210B4
:1015500000214163026B012A03D0FFF79BFE0020AC
:1015600008BD016301680C3151E8002F22F0100220
:1015700041E80023002BF5D101680A68D20602D5A4
:101580000A6849680091818DFFF7CCFCE7E700000D
:1015900070B5044600680169E26821F440511143C6
:1015A00001612169A0680843616908432168CA682C
:1015B00041F20C639A430243CA6020684169A26900
:1015C00021F44071114341611E492068884202D1D3
:1015D000FFF7CEFA01E0FFF7BBFA00EBC00101EB29
:1015E0000012606864218000B2FBF0F3B3FBF1F3FA
:1015F0006FF018067343B2FBF0F5B2FBF0F605EBA3
:101600008305322303EB0515B5FBF1F5B6FBF1F6C7
:1016100005F0F00505EB0615B2FBF0F6B2FBF0F0B5
:10162000B0FBF1F06FF01802504306EB800003EBC3
:101630000010B0FBF1F0216800F00F002844886032
:1016400070BD00000038014081628285C2850021A2
:101650004164222180F84210016921B10168CA6801
:1016600042F48072CA6001684A6942F001024A612C
:101670000068C16841F02001C160002070472DE979
:10168000F041984617460E460446069D27E0681C22
:1016900025D02DB1FFF724F9A0EB0800A8421ED9F0
:1016A00020680C3050E8001F21F4D07140E800128F
:1016B000002AF5D12068143050E8001F21F0010104
:1016C00040E80012002AF5D1202084F8410084F877
:1016D0004200002084F840000320BDE8F08120682B
:1016E000006836EA000004D00020B842CFD00020C5
:1016F000F3E70120F9E700000148FFF715BC0000FF
:101700001C0000200E4810B50C4901604FF4E13177
:101710004160002181600C22C160C0E90412816136
:10172000C161FFF737FD08B1FEF761FFBDE810406A
:10173000012204490248FFF79FBD00000038014024
:101740001C0000201000002010B511480168114C49
:101750006268891AB1F5FA6F19D3006860600EA14A
:101760001248A268FEF734FD1048FEF745FE0F4907
:1017700082B23223A1F14800FFF7A2FDA068401C0D
:10178000A0F51C51A060103901D10020A06010BD4F
:101790000800002010000020253034643A48656CB1
:1017A0006C6F2C776F726C642E0D0A006400002041
:1017B000FEE70907090E002804DB00F1E02080F8AD
:1017C0000014704700F00F0000F1E02080F8141DB5
:1017D000704730380A2801D2012070470020704736
:1017E000FFF78CF8FFF71AFEFFF7EAFDFFF7B8FDE9
:1017F000FFF788FFFFF7A8FFFCE7010202030405DB
:10180000060708090A0B0C0D0E0F1010000000004F
:1018100000000000010203040607080900000000A0
:1018200001020304040000080000000000000002A0
:1018300000010000100000005818000800000020FF
:101840001C00000028010008741800081C0000207B
:10185000D406000044010008010000001000000050
:10186000000000000024F400000000000000000060
:041870000000000074
:04000005080000ED02
:00000001FF
