:020000040800F2
:1000000018080020910100089B1C00083B1B0008F9
:10001000991C0008B3050008172200080000000022
:100020000000000000000000000000009F1C00080D
:10003000B5050008000000009D1C0008A11C000878
:10004000AB010008AB010008AB010008AB010008E0
:10005000AB010008AB010008AB010008AB010008D0
:10006000AB010008AB010008AB010008AB010008C0
:10007000AB010008AB010008AB010008AB010008B0
:10008000AB010008AB010008AB010008AB010008A0
:10009000AB010008AB010008AB010008AB01000890
:1000A000AB010008AB010008AB010008AB01000880
:1000B000AB010008291D0008AB010008AB010008D6
:1000C000AB010008AB010008AB010008AB01000860
:1000D000AB010008C9210008AB010008AB01000812
:1000E000AB010008AB010008AB01000800F002F80A
:1000F00000F03FF80AA090E8000C82448344AAF183
:100100000107DA4501D100F034F8AFF2090EBAE880
:100110000F0013F0010F18BFFB1A43F0010318473B
:1001200080210000A0210000103A24BF78C878C1C7
:10013000FAD8520724BF30C830C144BF04680C60ED
:10014000704700000023002400250026103A28BF35
:1001500078C1FBD8520728BF30C148BF0B60704739
:10016000642900F07380002070471FB51FBD10B5D3
:1001700010BD00F0E4F91146FFF7F7FF02F063F855
:1001800000F002FA03B4FFF7F2FF03BC00F00AFA32
:100190000948804709480047FEE7FEE7FEE7FEE71B
:1001A000FEE7FEE7FEE7FEE7FEE7FEE70448054957
:1001B000054A064B70470000271D0008ED000008A7
:1001C000180200201808002018040020180400203D
:1001D0000FB41CB5084B06AA7B44694600900598ED
:1001E00000F095F904460020694600F0A3F9204686
:1001F0001CBC5DF814FB00005903000070B50446F8
:1002000085690068C10601D5302600E02026C007B8
:1002100007D070BDD4E9012130469047206A401CC8
:1002200020626D1EF6D570BD70B5044685690078F4
:10023000C00707D170BDD4E9012120209047206A72
:10024000401C20626D1EF6D570BD00002DE9F04106
:100250000646002410687529314616A510D0AFF364
:100260000080002802DA404213A507E031688A07BF
:1002700001D512A502E0490704D511A5012401E02A
:10028000AFF3008000210A2206F1240709E0B0FB49
:10029000F2FCB0FBF2F302FB1C003030785418463D
:1002A000491C0028F3D123462A463046BDE8F041D8
:1002B00000F0CEB8000000002D0000002B00000070
:1002C000200000002DE9F05F894604464FF0000A47
:1002D000DFF824B1FB44C0F820A02046E16888473D
:1002E00000287DD0252806D0D4E901219047206A36
:1002F000401C2062F1E700255F462046E168884700
:100300002028064607DB312E05D2B81910F8200C3C
:1003100008B10543F1E7A80701D525F00405C4F8A5
:100320001CA00027C4F818A02A2E09D0304601F0DE
:1003300083FF38B304EB8708303EC8F8186019E033
:1003400059F8041B204604EB87029161E168884755
:10035000012F064618D1E069002820DA25F0200593
:100360001DE0D8F8180000EB800006EB40003038A4
:10037000C8F818002046E1688847064601F05CFF8F
:100380000028EED1012F0AD02E2E08D12046E16898
:1003900088477F1C0646022F45F02005C4DBA06974
:1003A000002803DA404245F00105A061E80701D0CA
:1003B00025F01005A6B1A6F14100192802D8203673
:1003C00045F400654A463146204625604D46FFF714
:1003D000C7FE60B1012807D0ED1D25F0070000E041
:1003E00007E000F1080978E705F1040975E73046F0
:1003F0007AE7206ABDE8F09FB61F00004FF00002C8
:1004000000B5134694469646203922BFA0E80C500A
:10041000A0E80C50B1F12001BFF4F7AF090728BFE5
:10042000A0E80C5048BF0CC05DF804EB890028BF61
:1004300040F8042B08BF704748BF20F8022B11F08A
:10044000804F18BF00F8012B704770477047704706
:100450002DE9F0470D4699469246044600F12408DE
:100460000168880604D5E06921F01001216000E0F0
:100470000120A84201DD471B00E00027A1697A198D
:1004800002EB0900081AA0612078C00602D42046B9
:10049000FFF7B4FE002608E0D4E901211AF80600AF
:1004A0009047206A401C761C20624E45F4DB207881
:1004B000C0060AD52046FFF7A1FE06E0D4E90121D7
:1004C00030209047206A401C2062381EA7F10107A7
:1004D000F4DC07E0D4E9012118F805009047206A10
:1004E000401C2062281EA5F10105F3DC2046FFF721
:1004F0009BFE2078000602D50220BDE8F08701208F
:10050000FBE7000001694A1C02610878704700B5EA
:100510008FB0CDE901310021059105497944CDE93C
:10052000031011466846FFF7CDFE0FB000BD000076
:10053000E5FFFFFF0A6802F8010B0A607047754685
:1005400000F02CF8AE4605006946534620F007003F
:10055000854618B020B5FFF729FEBDE820404FF0D2
:1005600000064FF000074FF000084FF0000B21F09D
:100570000701AC46ACE8C009ACE8C009ACE8C0096A
:10058000ACE8C0098D46704710B50446AFF3008053
:100590002046BDE81040FFF7F5BD00000048704759
:1005A000B401002001491820ABBEFEE7260002007E
:1005B0007047FEE7704772B6FEE710B590F821105D
:1005C0000022022905D00421816380F82020012027
:1005D00010BD01680B6823F00E030B6001680B6807
:1005E00023F001030B6090F84030C46B012101FA45
:1005F00003F3636080F8211080F82020104610BDBE
:1006000010B590F821100024022903D00421816341
:1006100001243DE001680A6822F00E020A600168C8
:100620000A6822F001020A601A4A0168914201D167
:10063000012121E0174A1432914201D110211BE01F
:10064000144A2832914201D1891515E0114A3C32F1
:10065000914201D189140FE00E4A5032914202D1E9
:100660004FF4803108E00B4A6432914202D14FF4DA
:10067000801101E04FF08071064A083A5160012173
:1006800080F82110002180F82010416B01B18847CB
:10069000204610BD080002402DE9F84FDFF8B89160
:1006A0000024A9F1040B23460F2709F1040AABF13A
:1006B000040EC9E00125A5402A40AA427DD1674E1B
:1006C000D1F804C0ACEB0608B44532D014DCBCF160
:1006D000030F3AD009DCBCF1000F2AD0BCF1010FA6
:1006E0001CD0BCF1020F31D11DE0BCF1110F17D0AD
:1006F000BCF1120F2AD119E0B8F5881F19D006DC19
:10070000B8F5803F15D0B8F5801F1FD111E0B8F5BE
:10071000001F0ED0B8F5041F18D10AE0CB6815E011
:10072000CB681B1D12E0CB6808330FE0CB680C339D
:100730000CE08B682BB1012B4FF0080303D045610F
:1007400004E0042302E0056100E00023FF2A01D851
:10075000064601E000F104064FEA840501D9A5F13F
:100760002005D6F8008007FA05FC28EA0C0803FAF1
:1007700005F548EA0508C6F800804D68ED0062D529
:10078000374DAE6946F00106AE61AD6924F003064F
:1007900005F001050095334D06EB050CDCF808501B
:1007A000A607360F07FA06F825EA0805DFF8B8802D
:1007B000404503D14FF0000817E044E0DFF8AC807B
:1007C000404502D14FF001080FE0DFF8A48040451A
:1007D00002D14FF0020808E0DFF89880404502D1CE
:1007E0004FF0030801E04FF0040808FA06F848EA61
:1007F0000508CCF808804D68D9F80060ED024D4638
:1008000001D5164300E096432E604D68DAF800608B
:10081000AD02554601D5164300E096432E604D6863
:10082000DBF80060AD035D4601D5164300E096435A
:100830002E604D68DEF80060ED03754601D5164365
:1008400000E096432E60641C0D682A46E5407FF464
:1008500031AFBDE8F88F000008040140000011101E
:10086000001002400000014000080140000C01405F
:1008700000100140001401400148806870470000EA
:1008800000000020024881680278114481607047AE
:1008900000000020074810B5016841F01001016018
:1008A000032000F079F8002000F006F800F024F8AA
:1008B000002010BD0020024070B50D4D04464FF4DD
:1008C0007A712878B1FBF0F00A490968B1FBF0F0C1
:1008D00000F07AFB48B9102C07D202210022C81E72
:1008E00000F03AF800206C6070BD012070BD00007F
:1008F000000000200C0000200E4808B5816941F07E
:1009000001018161816901F001010091C16941F03A
:100910008051C161C06900F080500090052000F056
:100920003BF80548416821F0E06141F00071416009
:1009300008BD00000010024000000140002809DB53
:1009400000F01F02012191404009800000F1E020E9
:10095000C0F8001170470000F0B40E4B1B680C4645
:10096000C3F30223C3F10705042D00D90425191D83
:10097000072901D2002300E0DB1E012606FA05F15B
:10098000491E214099409E40761E16403143F0BCDE
:1009900001F042BC0CED00E0064900F007020868D7
:1009A0004FF6FF03184040EA0220034A1043086054
:1009B000704700000CED00E00000FA052DE9F84357
:1009C00005460078354CC00754D0E0690026C000C9
:1009D00008D4E06940F08050E061E069012600F051
:1009E000805000902E480168C90512D401688046E5
:1009F00041F480710160FFF73FFF074605E000BF4B
:100A0000FFF73AFFC01B642823D8D8F80000C005C0
:100A1000F6D5206A10F4407021D0A98801F4407105
:100A200081421CD0206A1F49012220F440700A60D4
:100A300000220A602062C00711D0FFF71DFF0746A1
:100A400041F2883808E000BFFFF716FFC11B41459F
:100A500002D90320BDE8F883206A8007F4D5206A14
:100A6000696820F44070084320621EB1E06920F0FC
:100A70008050E0612878800705D56068A96820F477
:100A80004040084360602878C00605D56068E96882
:100A900020F48000084360600020DBE70010024083
:100AA00000700040400442422DE9F0470F46050027
:100AB00061D0434E306800F00700B84209D2306878
:100AC00020F0070038433060306800F00700B8427B
:100AD00051D128683B4C810712D5400703D5606887
:100AE00040F4E06060602878000703D5606840F457
:100AF000605060606068A96820F0F00008436060A2
:100B00002878C00728D06868012810D021680228FA
:100B100010D0890700292EDA616821F00301014312
:100B20006160FFF7A9FE804641F288390DE0216837
:100B30008903EFE78901EDE7FFF79EFEA0EB0801CF
:100B4000494502D90320BDE8F0876068696800F074
:100B50000C00B0EB810FEFD1306800F00700B84215
:100B60000BD9306820F0070038433060306800F05F
:100B70000700B84201D00120E5E72878400705D5F5
:100B80006068E96820F4E060084360602878000746
:100B900006D56068296920F4605040EAC1006060B1
:100BA00000F038F86168084AC1F30311515CC8408D
:100BB0000649086006480068FFF77EFE0020C2E78D
:100BC0000020024000100240762200080C000020A5
:100BD000040000200448054900684968044AC1F33C
:100BE0000221515CC84070470C00002000100240F8
:100BF000862200080448054900684968044AC1F390
:100C0000C221515CC84070470C0000200010024017
:100C1000862200080E4A51680E4801F00C03042B8E
:100C200011D0082B0FD10C48C1F38343C903C05C1A
:100C30000AD55168084AC1F34041921E515C054AE9
:100C40005043B0FBF1F0704704494843704700003F
:100C50000010024000127A006622000800093D00E0
:100C600030B585B00020029002200190032003904F
:100C70000B4C4FF480700090A0690D4640F00400CA
:100C8000A061A069694600F0040004900548FFF7E0
:100C900003FD606820F0E0602843606005B030BD6F
:100CA00000100240000801402DE9F84F040070D008
:100CB0002078C04DC00749D06868C0F38100012882
:100CC00007D06868C0F38100022809D16868C003B2
:100CD00006D52868800339D560680028E7D035E05C
:100CE0006068B0F5803F0BD010B1B0F5A02F11D0E7
:100CF000286820F480302860286820F4802002E0F2
:100D0000286840F480302860606890B1FFF7B4FD37
:100D100006460AE0286840F480202860F0E700BF1B
:100D2000FFF7AAFD801B642873D828688003F7D5D5
:100D30000CE0FFF7A1FD064605E000BFFFF79CFDB4
:100D4000801B6428F0D828688003F7D420789A4E56
:100D500080074FF001094FF0000839D5686810F09E
:100D60000C0F07D06868C0F38100022809D16868B9
:100D7000C00306D42868800714D52069012808D14B
:100D800010E02069B0B1C6F80090FFF775FD074686
:100D900005E00AE1FFF770FDC01B0228C4D82868EF
:100DA0008007F7D52868616920F0F80040EAC100A3
:100DB00028600DE0C6F80080FFF75EFD074604E0FE
:100DC000FFF75AFDC01B022823D828688007F7D4F4
:100DD000207800072CD57948A169D9B1C0F80090D6
:100DE000FFF74AFD074604E0FFF746FDC01B022857
:100DF0000FD8686A8007F7D571484FF4FA51006838
:100E0000B0FBF1F0009000BF0098411E0091FAD2B3
:100E10000EE080E0C0F80080FFF72EFD074604E0FA
:100E2000FFF72AFDC01B022875D8686A8007F7D42F
:100E30002078400760D5E8690027C00008D4E86939
:100E400040F08050E861E869012700F08050009090
:100E50005C480168C90513D40168834641F4807178
:100E60000160FFF709FD824606E000BFFFF704FDC1
:100E7000A0EB0A0064284ED8DBF80000C005F5D5C9
:100E8000E06801280AD008B1052813D0286A20F0AC
:100E900001002862286A20F0040002E0286A40F07D
:100EA00001002862E06841F2883B98B1FFF7E4FC5A
:100EB00082460BE0286A40F004002862EEE700BF9B
:100EC000FFF7DAFCA0EB0A0159455AD8286A8007D7
:100ED000F6D50CE0FFF7D0FC824605E0FFF7CCFC2E
:100EE000A0EB0A0159454CD8286A8007F6D41FB1F7
:100EF000E86920F08050E861E06988B36968C1F36F
:100F00008101022944D00228C6F8608004D0FFF78E
:100F1000B3FC044638E034E0FFF7AEFC074604E0DB
:100F2000FFF7AAFCC01B02282BD828688001F7D441
:100F3000206AB0F5803F05D16868A16820F40030D0
:100F400008436860D4E908010843696821F4741112
:100F500008436860C6F86090FFF78EFC044606E020
:100F600025E000BFFFF788FC001B022809D828688D
:100F70008001F7D51BE000BFFFF77EFC001B0228B5
:100F800002D90320BDE8F88F28688001F4D40EE070
:100F90000128F7D06868226A00F48031914204D1B8
:100FA000616A00F47010884201D00120EAE7002055
:100FB000E8E7000000100240000042428004424284
:100FC0000C0000200070004010B5401EB0F1807F82
:100FD00001D3012010BD4FF0E02460610F216017A4
:100FE00001F01AF90020A06107202061002010BD47
:100FF0007047704770B590F83C20012A26D0012434
:1010000080F83C40022280F83D2003685A689D68C1
:1010100022F070060A6832435A600D4B02689A4209
:1010200008D0B2F1804F05D00A4B9A4202D00A4B49
:101030009A4204D1496825F080031943916080F8F1
:101040003D40002180F83C10084670BD022070BD74
:10105000002C0140000400400008004010B50400CE
:1010600003D094F83D0010B107E0012010BD00202E
:1010700084F83C00204600F01FF8022084F83D0070
:10108000211D206800F056FE012084F8460084F8F7
:101090003E0084F83F0084F8400084F8410084F862
:1010A000420084F8430084F8440084F8450084F842
:1010B0003D00002010BD000000B585B0002100916A
:1010C00001910291039101681B48B1F1804F29D031
:1010D0001A4A914224D1C16941F00201C161C1693A
:1010E00001F002010491816941F00401816180698C
:1010F000694600F004000490402000901048FFF77B
:10110000CBFA002211461D20FFF726FC1D20FFF719
:1011100015FC0C4800F018F800210A4800F09CF972
:1011200005B000BDC16941F00101C161C06900F0B5
:1011300001000490F4E700000010024000040040A9
:10114000000801406C01002090F83D10012901D0F9
:1011500001207047022180F83D1000680B49884249
:1011600008D0B0F1804F05D00949884202D0094922
:10117000884204D1816801F00701062903D0016883
:1011800041F001010160002070470000002C014087
:10119000000400400008004070B5044690F83C0090
:1011A0000025012817D0012684F83C60022084F82D
:1011B0003D002068826822F0770222F47F4282603C
:1011C0000868502838D00DDC20284FD005DC90B3BB
:1011D000102811D14AE0022070BD302846D04028A6
:1011E0000AD13BE060282FD070280DD0B0F5805F89
:1011F00003D0B0F5005F12D0012584F83D600020D7
:1012000084F83C00284670BDCB68D1E901212068F4
:1012100000F0D3FD2068816841F0770109E0CB68D8
:10122000D1E90121206800F0C8FD2068816841F4FF
:1012300080418160E1E719E0CA684968206800F0F0
:1012400014FE5021206806E0CA684968206800F052
:1012500049FE6021206800F0BAFDCEE7CA684968FF
:10126000206800F002FE40212068F4E72268014671
:101270001046F0E710B50F4A0168914218D1017F7E
:10128000012915D1002100F00FFA0B49401C80B252
:1012900008800A49B1FBF0F209A10D48FEF798FF5A
:1012A00082B2BDE81040322309490A4800F0F7BB7A
:1012B00010BD0000000400401000002040420F005C
:1012C00050574D315F467265713A202530366400C3
:1012D000C0000020140000202DE9F041054690F8E0
:1012E0003C0000260C46012810D0012085F83C0067
:1012F00072B1042A1CD0082A2CD00C2A50D0012606
:10130000002085F83C003046BDE8F0810220FBE774
:10131000D4E90012E368286800F0B8FD2868816904
:1013200021F00C01816128688169A26811430FE0F6
:10133000D4E90012E368286800F0E6FD28688169B6
:1013400021F44061816128688169A26841EA022133
:101350008161D5E72868D4E9002C277B036A016AFC
:1013600021F480710162C16923F4007321F003014B
:1013700041EA0C0121F0F00C39074FF400774CEAF8
:10138000116107EA02221A43C16102622868C16939
:1013900021F00C01C1612868C169A26811432BE0EA
:1013A0002868D4E90021E768036AD0F820C02CF44B
:1013B000805CC0F820C0D0F81CC023F400532CF48B
:1013C000407C4CEA012121F4704C4FF6FF7101EA98
:1013D00007314FF4005741EA0C0107EA02321A4381
:1013E000C16102622868C16921F44061C161286855
:1013F000C169A26841EA0221C16181E710B5040018
:1014000003D094F83D0010B107E0012010BD00208A
:1014100084F83C00204600F01EF8022084F83D00CD
:10142000211D206800F086FC012084F8460084F825
:101430003E0084F83F0084F8400084F8410084F8BE
:10144000420084F8430084F8440084F8450084F89E
:101450003D00002010BD704730B50446002551B155
:1014600004290DD0082910D094F8410094F84520A3
:10147000012811D10EE094F83E0094F84220F7E7DD
:1014800094F83F0094F84320F2E794F8400094F871
:101490004420EDE7012A01D0012030BD022059B1DE
:1014A000042912D0082919D084F8410084F8450095
:1014B0000C2938D0012534E084F83E0084F842003D
:1014C0002068C26842F0020210E084F83F0084F80D
:1014D00043002068C26842F0040207E084F840003C
:1014E00084F844002068C26842F00802C260012209
:1014F000206800F055FC0E492068884208D0B0F101
:10150000804F05D00B49884202D00B49884204D154
:10151000816801F00701062903D0016841F001014B
:101520000160284630BD2068C26842F01002DDE745
:10153000002C0140000400400008004070B5044643
:10154000006801694FF00005C943890715D4C168D7
:10155000C943890711D4E91E016101202077206861
:1015600080698007204602D0FFF784FE04E000F087
:1015700098F8204600F096F8257720680169C9435D
:10158000490717D4C168C943490713D46FF0040150
:101590000161022020772068806910F4407F204696
:1015A00002D0FFF767FE04E000F07BF8204600F071
:1015B00079F8257720680169C943090716D4C168FD
:1015C000C943090712D46FF0080101610420207794
:1015D0002068C0698007204602D0FFF74BFE04E078
:1015E00000F05FF8204600F05DF82577206801697B
:1015F000C943C90617D4C168C943C90613D46FF0DB
:1016000010010161082020772068C06910F4407F34
:10161000204602D0FFF72EFE04E000F042F82046FC
:1016200000F040F8257720680169C943C90708D14F
:10163000C168C943C90704D1891E0161204600F071
:1016400032F820680169C943090609D4C168C94351
:10165000090605D46FF0800101612046FFF7C8FC40
:1016600020680169C943490609D4C168C9434906CC
:1016700005D46FF040010161204600F055F8206864
:101680000169C94389060BD4C168C943890607D4D7
:101690006FF0200101612046BDE87040FFF7A9BC52
:1016A00070BD7047704770470246002041B1042961
:1016B00009D008290AD00C2901D11068006C7047A4
:1016C0001068406B70471068806B70471068C06B83
:1016D000704770B5044690F83C00012812D00125EF
:1016E00084F83C50022084F83D00204600F077FB4F
:1016F00001004FF0000007D084F83D5084F83C0012
:10170000012070BD022070BD2168CA6822F040022D
:10171000CA602168CA6822F48042CA6084F83D50D9
:1017200084F83C00002070BD70477047704700008F
:10173000F8B5016804460868CA684B6910F00F0FD5
:101740004FF0000559D003F0010602F490773743BB
:1017500065D0C10705D0D10503D5616C41F0010109
:101760006164410705D5D90703D0616C41F00201DE
:101770006164810705D5D90703D0616C41F004018C
:101780006164010707D502F02001314303D0616C89
:1017900041F008016164616C00293AD0800604D5EB
:1017A000900602D5204600F0F9FB20684069616C84
:1017B000C0F38010090700D460B3204600F0C7FBD7
:1017C00020684069400621D52068143050E8001F89
:1017D00021F0400140E80012002AF5D1E06BA8B1E9
:1017E0006D494163E06BFEF70BFF002811D0E06B01
:1017F000416B01B0BDE8F040084783060FD5930662
:101800000DD52046BDE8F84000F0C8BB2046FFF7E4
:101810008DFFF8BD2046FFF789FF6564F8BD266B94
:101820002023012E7CD1C6067AD5D60678D5086845
:101830004868009048694FF00206400640D5E16BC9
:10184000086840680004000CE8D0A28D8242E5D907
:10185000E085886920282DD020680C3050E8001FD2
:1018600021F4807140E80012002AF5D1206814307C
:1018700050E8001F21F0010140E80012002AF5D1D4
:101880002068143050E8001F21F0400140E80012A9
:10189000002AF5D184F84230256320680C3050E8E6
:1018A000001F21F0100140E80012002AF5D1E06B82
:1018B000FEF783FE6663A08DE18D401A81B22AE0B7
:1018C000A08DE18D401A81B2E08D0028A6D00029BC
:1018D000A4D022680C3252E8000F20F4907042E845
:1018E0000007002FF5D12068143050E8002F22F0B7
:1018F000010240E80027002FF5D184F8423025632B
:1019000020680C3050E8002F22F0100240E800233D
:10191000002BF5D166632046FFF707FFF8BDFFE710
:1019200005062BD5150629D594F841002128F5D1B7
:10193000A068B0F5805F01D12069B0B1206A411C78
:101940002162216800784860E08C401E0004000C91
:10195000E084E3D12068C16821F08001C160206883
:10196000C16841F04001C160D8E7206A0088C0F337
:1019700008004860206A801C2062E5E74006CDD55B
:101980005006CBD5CA68204622F04002CA6084F8CF
:10199000413000F0D1F8C1E73F1F000870B50400E6
:1019A00004D094F84100002510B106E0012070BD7C
:1019B00084F84050204600F023F8242084F84100A9
:1019C0002068C16821F40051C160204600F048FB46
:1019D0002068016921F4904101612068416921F08A
:1019E0002A0141612068C16841F40051C160656409
:1019F000202084F8410084F842006563002070BD17
:101A000030B585B0002400940194029403940068DA
:101A1000184988422CD11848816941F4804181617C
:101A2000816901F480410491816941F0040181617F
:101A30008069124D00F0040004904FF40070009093
:101A4000022001900320039069462846FEF724FEF9
:101A50002815CDE90004694628460294FEF71CFECD
:101A6000002201212520FEF777FF2520FEF766FFE3
:101A700005B030BD003801400010024000080140B0
:101A800090F84230202B01D00220704721B11AB1CA
:101A90000023036300F040BB0120704770472DE92D
:101AA000F843044690F841001F4616460D4620288C
:101AB00002D00220BDE8F8837DB176B100206064D9
:101AC000212084F84100FEF7D7FEA6848046E684F4
:101AD000A068B0F5805F02D003E00120EAE720694A
:101AE00010B12E4600250EE000260CE08021204695
:101AF00000F02DFBA0B9AEB116F8010B21684860CB
:101B0000E08C401EE084E08C43464FF000020097DA
:101B10000028EBD14FF04001204600F018FB30B117
:101B20000320C7E735F8020BC0F30800E6E72020E2
:101B300084F841000020BDE77047FEE700B585B09E
:101B4000002002900A48816941F0040181618069A6
:101B5000694600F0040004904FF480700090022069
:101B6000019003900348FEF797FD05B000BD00000B
:101B7000001002400008014010B586B0002417484C
:101B8000009401940294039404944FF080410594CE
:101B9000016041F63F71C0E9011442F20F71C0E9E2
:101BA000031480218161FFF759FA08B1FEF703FDA4
:101BB0004FF48050009069460848FFF7EDFA08B1ED
:101BC000FEF7F9FC049404A904480594FFF712FAFF
:101BD000002801D0FEF7EFFC06B010BD2401002064
:101BE00010B590B0002409940A940B94142104A811
:101BF0000C94FEF703FC27480D940E940094019476
:101C000002942349039401604721C0E901144FF66F
:101C1000FF71C0E903148461FFF720FA08B1FEF7F1
:101C2000CAFC4FF48050099009A91A48FFF7B4FA8A
:101C300008B1FEF7C0FC1748FFF7E0FB08B1FEF75C
:101C4000BAFC042004905020CDE9050404A91148F1
:101C50000894FFF73EFD08B1FEF7ADFC0D940DA909
:101C60000C480E94FFF7C6F908B1FEF7A4FC01205A
:101C7000CDE9004002940022694606480394FFF72C
:101C80002BFB002801D0FEF796FC10B010BD000021
:101C9000000400406C010020FEE7FEE7704770473B
:101CA000FEF7F0BD30B593B028216846FEF7A6FBDD
:101CB00014210AA8FEF7A2FB002501200F9510951C
:101CC0001195010412958DE8230004904FF4E01063
:101CD000CDE90810022407946846FEF7E5FF08B135
:101CE00072B6FEE70AA90F2081E831004FF4806048
:101CF000CDE90D0502210AA8FEF7D6FE08B172B69D
:101D0000FEE74FF4004011900F940FA8FEF756FE27
:101D100008B172B6FEE700224FF0E0611046FEF710
:101D20009FFF13B030BD70470148FFF707BC0000AC
:101D30006C010020F0B50268164B174C174D4FF0A0
:101D40008047984205D0B84203D0A04201D0A842B3
:101D500003D122F070064A683243984205D0B84257
:101D600003D0A04201D0A84203D122F44074CA6833
:101D700022434C6922F08002224302608A68C262D8
:101D80000A688262984201D10969016301214161B7
:101D9000F0BD0000002C014000040040000800409D
:101DA00010B501F01F030121046A99408C430462BD
:101DB000016A9A401143016210BD10B5846842EA7D
:101DC000032224F47F440A432243826010BD8268C8
:101DD00022F070020A4342F007018160704770B53B
:101DE000036800249A6822F070054A682A4322F0AA
:101DF00007050A682A439A604A6812F00F0F31D12A
:101E00001211082A2ED2DFE802F02E2E2E2E0B21E0
:101E100027040B69D1E902210068FFF7CEFF22E019
:101E20000A68052A10D00268136A156A25F00105B0
:101E3000156202689569096925F0F00545EA011106
:101E40009161006803620EE0012070BD0A69896833
:101E5000006800F00AF806E00A698968006800F086
:101E600041F800E00124204670BD10B5036A046A01
:101E700024F001040462846924F0F00444EA0214AA
:101E800023F00A020A438461026210BD70B5056A3C
:101E9000046A24F00104046284690F4EB04208D041
:101EA000B0F1804F05D00D4EB04202D00C4EB04282
:101EB00003D124F00304144301E044F001041A07A1
:101EC00024F0F00444EA126225F00A0301F00A014A
:101ED00019438261016270BD002C01400004004082
:101EE0000008004010B5036A046A24F0100404627C
:101EF000846923F0A00324F4704444EA023243EAE4
:101F000001118261016210BD30B5046A056A25F0D5
:101F100010050562856925F4407545EA022222F420
:101F200070454FF6FF7202EA033224F0A0032A4301
:101F3000A02404EA011119438261016230BD10B589
:101F4000406A0021C185C184FFF7F0FB10BD016824
:101F50000C3151E8002F22F4907241E80023002B4D
:101F6000F5D10168143151E8002F22F0010241E857
:101F70000023002BF5D1016B012909D101680C3137
:101F800051E8002F22F0100241E80023002BF5D188
:101F9000202180F8421000210163704708B590F8B5
:101FA0004210222901D0022008BD82684FF48053DC
:101FB0009A4201D1016921B1816A9A421BD04AB18A
:101FC0000AE00268816A5268C2F308020A80816AE4
:101FD000891C08E0026972B10268526802F07F024F
:101FE0000A70816A491C8162C18D491E0904090C6D
:101FF000C18503D01BE002685268F1E70168CA6836
:1020000022F02002CA600168CA6822F48072CA60A5
:1020100001684A6922F001024A61202180F84210D9
:1020200000214163026B012A03D0FFF737FD002036
:1020300008BD016301680C3151E8002F22F0100245
:1020400041E80023002BF5D101680A68D20602D5C9
:102050000A6849680091818DFFF767FBE7E7000098
:1020600070B5044600680169E26821F440511143EB
:1020700001612169A0680843616908432168CA6851
:1020800041F20C639A430243CA6020684169A26925
:1020900021F44071114341611E492068884202D1F8
:1020A000FEF7A8FD01E0FEF795FD00EBC00101EB96
:1020B0000012606864218000B2FBF0F3B3FBF1F31F
:1020C0006FF018067343B2FBF0F5B2FBF0F605EBC8
:1020D0008305322303EB0515B5FBF1F5B6FBF1F6ED
:1020E00005F0F00505EB0615B2FBF0F6B2FBF0F0DB
:1020F000B0FBF1F06FF01802504306EB800003EBE9
:102100000010B0FBF1F0216800F00F002844886057
:1021100070BD00000038014081628285C2850021C7
:102120004164222180F84210016921B10168CA6826
:1021300042F48072CA6001684A6942F001024A6151
:102140000068C16841F02001C160002070472DE99E
:10215000F041984617460E460446069D27E0681C47
:1021600025D02DB1FEF788FBA0EB0800A8421ED9B0
:1021700020680C3050E8001F21F4D07140E80012B4
:10218000002AF5D12068143050E8001F21F0010129
:1021900040E80012002AF5D1202084F8410084F89C
:1021A0004200002084F840000320BDE8F081206850
:1021B000006836EA000004D00020B842CFD00020EA
:1021C000F3E70120F9E700000148FFF7B1BA00008A
:1021D000140000200E4810B50C4901604FF4E131A5
:1021E0004160002181600C22C160C0E9041281615C
:1021F000C161FFF7D3FB08B1FEF7DDF90449012205
:10220000BDE8104048310248FFF73ABC00380140B1
:10221000140000207047FEE70907090E002804DBC0
:1022200000F1E02080F80014704700F00F0000F18A
:10223000E02080F8141D704730380A2801D20120B0
:10224000704700207047FEF725FBFFF72BFDFFF7D7
:10225000C1FFFFF791FCFFF7C3FCFFF76FFCFFF72F
:10226000D9FFFCE7010202030405060708090A0B6F
:102270000C0D0E0F10100000000000000000010205
:10228000030406070809000000000102030404001B
:102290000008000000000000000200010000100023
:1022A000C0220008000000201400000028010008DF
:1022B000D422000814000020040800004401000893
:1022C0000100000010000000000000000024F400E5
:0422D000000000000A
:04000005080000ED02
:00000001FF
